{
	"01 - Variables.sol": {
		"Variables": {
			"abi": [
				{
					"inputs": [],
					"name": "course",
					"outputs": [
						{
							"internalType": "string",
							"name": "",
							"type": "string"
						}
					],
					"stateMutability": "view",
					"type": "function"
				},
				{
					"inputs": [],
					"name": "sender",
					"outputs": [
						{
							"internalType": "string",
							"name": "",
							"type": "string"
						}
					],
					"stateMutability": "view",
					"type": "function"
				},
				{
					"inputs": [],
					"name": "showInfo",
					"outputs": [
						{
							"internalType": "string",
							"name": "",
							"type": "string"
						}
					],
					"stateMutability": "view",
					"type": "function"
				}
			],
			"devdoc": {
				"kind": "dev",
				"methods": {},
				"version": 1
			},
			"evm": {
				"assembly": "    /* \"01 - Variables.sol\":66:1886  contract Variables{\r... */\n  mstore(0x40, 0x80)\n    /* \"01 - Variables.sol\":278:315  bytes32 nameByteFixed = \"Yavuz ilhan\" */\n  sstore(0x04, 0x596176757a20696c68616e000000000000000000000000000000000000000000)\n    /* \"01 - Variables.sol\":384:417  string nameString = \"Yavuz ilhan\" */\n  mload(0x40)\n  dup1\n  0x40\n  add\n  0x40\n  mstore\n  dup1\n  0x0b\n  dup2\n  mstore\n  0x20\n  add\n  0x596176757a20696c68616e000000000000000000000000000000000000000000\n  dup2\n  mstore\n  pop\n  0x05\n  swap1\n  dup1\n  mload\n  swap1\n  0x20\n  add\n  swap1\n  tag_1\n  swap3\n  swap2\n  swap1\n  tag_2\n  jump\t// in\ntag_1:\n  pop\n    /* \"01 - Variables.sol\":424:461  bytes nameByteDynamic = \"Yavuz ilhan\" */\n  mload(0x40)\n  dup1\n  0x40\n  add\n  0x40\n  mstore\n  dup1\n  0x0b\n  dup2\n  mstore\n  0x20\n  add\n  0x596176757a20696c68616e000000000000000000000000000000000000000000\n  dup2\n  mstore\n  pop\n  0x06\n  swap1\n  dup1\n  mload\n  swap1\n  0x20\n  add\n  swap1\n  tag_3\n  swap3\n  swap2\n  swap1\n  tag_4\n  jump\t// in\ntag_3:\n  pop\n    /* \"01 - Variables.sol\":468:517  string[] names = [\"Yavuz\",\"ilhan\",\"Ahmet\",\"Veli\"] */\n  mload(0x40)\n  dup1\n  0x80\n  add\n  0x40\n  mstore\n  dup1\n  mload(0x40)\n  dup1\n  0x40\n  add\n  0x40\n  mstore\n  dup1\n  0x05\n  dup2\n  mstore\n  0x20\n  add\n  0x596176757a000000000000000000000000000000000000000000000000000000\n  dup2\n  mstore\n  pop\n  dup2\n  mstore\n  0x20\n  add\n  mload(0x40)\n  dup1\n  0x40\n  add\n  0x40\n  mstore\n  dup1\n  0x05\n  dup2\n  mstore\n  0x20\n  add\n  0x696c68616e000000000000000000000000000000000000000000000000000000\n  dup2\n  mstore\n  pop\n  dup2\n  mstore\n  0x20\n  add\n  mload(0x40)\n  dup1\n  0x40\n  add\n  0x40\n  mstore\n  dup1\n  0x05\n  dup2\n  mstore\n  0x20\n  add\n  0x41686d6574000000000000000000000000000000000000000000000000000000\n  dup2\n  mstore\n  pop\n  dup2\n  mstore\n  0x20\n  add\n  mload(0x40)\n  dup1\n  0x40\n  add\n  0x40\n  mstore\n  dup1\n  0x04\n  dup2\n  mstore\n  0x20\n  add\n  0x56656c6900000000000000000000000000000000000000000000000000000000\n  dup2\n  mstore\n  pop\n  dup2\n  mstore\n  pop\n  0x07\n  swap1\n  0x04\n  tag_5\n  swap3\n  swap2\n  swap1\n  tag_6\n  jump\t// in\ntag_5:\n  pop\n    /* \"01 - Variables.sol\":539:567  uint[] numbers = [1,2,3,4,5] */\n  mload(0x40)\n  dup1\n  0xa0\n  add\n  0x40\n  mstore\n  dup1\n    /* \"01 - Variables.sol\":557:558  1 */\n  0x01\n    /* \"01 - Variables.sol\":539:567  uint[] numbers = [1,2,3,4,5] */\n  0xff\n  and\n  dup2\n  mstore\n  0x20\n  add\n    /* \"01 - Variables.sol\":559:560  2 */\n  0x02\n    /* \"01 - Variables.sol\":539:567  uint[] numbers = [1,2,3,4,5] */\n  0xff\n  and\n  dup2\n  mstore\n  0x20\n  add\n    /* \"01 - Variables.sol\":561:562  3 */\n  0x03\n    /* \"01 - Variables.sol\":539:567  uint[] numbers = [1,2,3,4,5] */\n  0xff\n  and\n  dup2\n  mstore\n  0x20\n  add\n    /* \"01 - Variables.sol\":563:564  4 */\n  0x04\n    /* \"01 - Variables.sol\":539:567  uint[] numbers = [1,2,3,4,5] */\n  0xff\n  and\n  dup2\n  mstore\n  0x20\n  add\n    /* \"01 - Variables.sol\":565:566  5 */\n  0x05\n    /* \"01 - Variables.sol\":539:567  uint[] numbers = [1,2,3,4,5] */\n  0xff\n  and\n  dup2\n  mstore\n  pop\n  0x08\n  swap1\n  0x05\n  tag_7\n  swap3\n  swap2\n  swap1\n  tag_8\n  jump\t// in\ntag_7:\n  pop\n    /* \"01 - Variables.sol\":1158:1196  string public course =\"Blockchain Dev\" */\n  mload(0x40)\n  dup1\n  0x40\n  add\n  0x40\n  mstore\n  dup1\n  0x0e\n  dup2\n  mstore\n  0x20\n  add\n  0x426c6f636b636861696e20446576000000000000000000000000000000000000\n  dup2\n  mstore\n  pop\n  0x0a\n  swap1\n  dup1\n  mload\n  swap1\n  0x20\n  add\n  swap1\n  tag_9\n  swap3\n  swap2\n  swap1\n  tag_2\n  jump\t// in\ntag_9:\n  pop\n    /* \"01 - Variables.sol\":1460:1465  1 wei */\n  0x01\n    /* \"01 - Variables.sol\":1448:1465  uint _Wei = 1 wei */\n  0x0b\n  sstore\n    /* \"01 - Variables.sol\":1485:1491  1 gwei */\n  0x3b9aca00\n    /* \"01 - Variables.sol\":1472:1491  uint _Gwei = 1 gwei */\n  0x0c\n  sstore\n    /* \"01 - Variables.sol\":1524:1531  1 ether */\n  0x0de0b6b3a7640000\n    /* \"01 - Variables.sol\":1510:1531  uint _Ether = 1 ether */\n  0x0d\n  sstore\n    /* \"01 - Variables.sol\":1577:1586  1 seconds */\n  0x01\n    /* \"01 - Variables.sol\":1563:1586  uint second = 1 seconds */\n  0x0e\n  sstore\n    /* \"01 - Variables.sol\":1607:1617  60 seconds */\n  0x3c\n    /* \"01 - Variables.sol\":1593:1617  uint minute = 60 seconds */\n  0x0f\n  sstore\n    /* \"01 - Variables.sol\":1636:1646  60 minutes */\n  0x0e10\n    /* \"01 - Variables.sol\":1624:1646  uint hour = 60 minutes */\n  0x10\n  sstore\n    /* \"01 - Variables.sol\":1680:1686  1 days */\n  0x015180\n    /* \"01 - Variables.sol\":1669:1686  uint day = 1 days */\n  0x11\n  sstore\n    /* \"01 - Variables.sol\":1705:1712  1 weeks */\n  0x093a80\n    /* \"01 - Variables.sol\":1693:1712  uint week = 1 weeks */\n  0x12\n  sstore\n    /* \"01 - Variables.sol\":1767:1779  block.number */\n  number\n    /* \"01 - Variables.sol\":1748:1779  uint blockNumber = block.number */\n  0x13\n  sstore\n    /* \"01 - Variables.sol\":1802:1816  block.gaslimit */\n  gaslimit\n    /* \"01 - Variables.sol\":1786:1816  uint gasLimit = block.gaslimit */\n  0x14\n  sstore\n    /* \"01 - Variables.sol\":1870:1880  msg.sender */\n  caller\n    /* \"01 - Variables.sol\":1853:1881  abi.encodePacked(msg.sender) */\n  add(0x20, mload(0x40))\n  tag_10\n  swap2\n  swap1\n  tag_11\n  jump\t// in\ntag_10:\n  mload(0x40)\n  0x20\n  dup2\n  dup4\n  sub\n  sub\n  dup2\n  mstore\n  swap1\n  0x40\n  mstore\n    /* \"01 - Variables.sol\":1823:1882  string public sender = string(abi.encodePacked(msg.sender)) */\n  0x15\n  swap1\n  dup1\n  mload\n  swap1\n  0x20\n  add\n  swap1\n  tag_12\n  swap3\n  swap2\n  swap1\n  tag_2\n  jump\t// in\ntag_12:\n  pop\n    /* \"01 - Variables.sol\":66:1886  contract Variables{\r... */\n  callvalue\n  dup1\n  iszero\n  tag_13\n  jumpi\n  0x00\n  dup1\n  revert\ntag_13:\n  pop\n  jump(tag_14)\ntag_2:\n  dup3\n  dup1\n  sload\n  tag_15\n  swap1\n  tag_16\n  jump\t// in\ntag_15:\n  swap1\n  0x00\n  mstore\n  keccak256(0x00, 0x20)\n  swap1\n  0x1f\n  add\n  0x20\n  swap1\n  div\n  dup2\n  add\n  swap3\n  dup3\n  tag_18\n  jumpi\n  0x00\n  dup6\n  sstore\n  jump(tag_17)\ntag_18:\n  dup3\n  0x1f\n  lt\n  tag_19\n  jumpi\n  dup1\n  mload\n  not(0xff)\n  and\n  dup4\n  dup1\n  add\n  or\n  dup6\n  sstore\n  jump(tag_17)\ntag_19:\n  dup3\n  dup1\n  add\n  0x01\n  add\n  dup6\n  sstore\n  dup3\n  iszero\n  tag_17\n  jumpi\n  swap2\n  dup3\n  add\ntag_20:\n  dup3\n  dup2\n  gt\n  iszero\n  tag_21\n  jumpi\n  dup3\n  mload\n  dup3\n  sstore\n  swap2\n  0x20\n  add\n  swap2\n  swap1\n  0x01\n  add\n  swap1\n  jump(tag_20)\ntag_21:\ntag_17:\n  pop\n  swap1\n  pop\n  tag_22\n  swap2\n  swap1\n  tag_23\n  jump\t// in\ntag_22:\n  pop\n  swap1\n  jump\t// out\ntag_4:\n  dup3\n  dup1\n  sload\n  tag_24\n  swap1\n  tag_16\n  jump\t// in\ntag_24:\n  swap1\n  0x00\n  mstore\n  keccak256(0x00, 0x20)\n  swap1\n  0x1f\n  add\n  0x20\n  swap1\n  div\n  dup2\n  add\n  swap3\n  dup3\n  tag_26\n  jumpi\n  0x00\n  dup6\n  sstore\n  jump(tag_25)\ntag_26:\n  dup3\n  0x1f\n  lt\n  tag_27\n  jumpi\n  dup1\n  mload\n  not(0xff)\n  and\n  dup4\n  dup1\n  add\n  or\n  dup6\n  sstore\n  jump(tag_25)\ntag_27:\n  dup3\n  dup1\n  add\n  0x01\n  add\n  dup6\n  sstore\n  dup3\n  iszero\n  tag_25\n  jumpi\n  swap2\n  dup3\n  add\ntag_28:\n  dup3\n  dup2\n  gt\n  iszero\n  tag_29\n  jumpi\n  dup3\n  mload\n  dup3\n  sstore\n  swap2\n  0x20\n  add\n  swap2\n  swap1\n  0x01\n  add\n  swap1\n  jump(tag_28)\ntag_29:\ntag_25:\n  pop\n  swap1\n  pop\n  tag_30\n  swap2\n  swap1\n  tag_23\n  jump\t// in\ntag_30:\n  pop\n  swap1\n  jump\t// out\ntag_6:\n  dup3\n  dup1\n  sload\n  dup3\n  dup3\n  sstore\n  swap1\n  0x00\n  mstore\n  keccak256(0x00, 0x20)\n  swap1\n  dup2\n  add\n  swap3\n  dup3\n  iszero\n  tag_31\n  jumpi\n  swap2\n  0x20\n  mul\n  dup3\n  add\ntag_32:\n  dup3\n  dup2\n  gt\n  iszero\n  tag_33\n  jumpi\n  dup3\n  mload\n  dup3\n  swap1\n  dup1\n  mload\n  swap1\n  0x20\n  add\n  swap1\n  tag_34\n  swap3\n  swap2\n  swap1\n  tag_2\n  jump\t// in\ntag_34:\n  pop\n  swap2\n  0x20\n  add\n  swap2\n  swap1\n  0x01\n  add\n  swap1\n  jump(tag_32)\ntag_33:\ntag_31:\n  pop\n  swap1\n  pop\n  tag_35\n  swap2\n  swap1\n  tag_36\n  jump\t// in\ntag_35:\n  pop\n  swap1\n  jump\t// out\ntag_8:\n  dup3\n  dup1\n  sload\n  dup3\n  dup3\n  sstore\n  swap1\n  0x00\n  mstore\n  keccak256(0x00, 0x20)\n  swap1\n  dup2\n  add\n  swap3\n  dup3\n  iszero\n  tag_37\n  jumpi\n  swap2\n  0x20\n  mul\n  dup3\n  add\ntag_38:\n  dup3\n  dup2\n  gt\n  iszero\n  tag_39\n  jumpi\n  dup3\n  mload\n  dup3\n  swap1\n  0xff\n  and\n  swap1\n  sstore\n  swap2\n  0x20\n  add\n  swap2\n  swap1\n  0x01\n  add\n  swap1\n  jump(tag_38)\ntag_39:\ntag_37:\n  pop\n  swap1\n  pop\n  tag_40\n  swap2\n  swap1\n  tag_23\n  jump\t// in\ntag_40:\n  pop\n  swap1\n  jump\t// out\ntag_23:\ntag_41:\n  dup1\n  dup3\n  gt\n  iszero\n  tag_42\n  jumpi\n  0x00\n  dup2\n  0x00\n  swap1\n  sstore\n  pop\n  0x01\n  add\n  jump(tag_41)\ntag_42:\n  pop\n  swap1\n  jump\t// out\ntag_36:\ntag_43:\n  dup1\n  dup3\n  gt\n  iszero\n  tag_44\n  jumpi\n  0x00\n  dup2\n  dup2\n  tag_45\n  swap2\n  swap1\n  tag_46\n  jump\t// in\ntag_45:\n  pop\n  0x01\n  add\n  jump(tag_43)\ntag_44:\n  pop\n  swap1\n  jump\t// out\ntag_46:\n  pop\n  dup1\n  sload\n  tag_47\n  swap1\n  tag_16\n  jump\t// in\ntag_47:\n  0x00\n  dup3\n  sstore\n  dup1\n  0x1f\n  lt\n  tag_49\n  jumpi\n  pop\n  jump(tag_48)\ntag_49:\n  0x1f\n  add\n  0x20\n  swap1\n  div\n  swap1\n  0x00\n  mstore\n  keccak256(0x00, 0x20)\n  swap1\n  dup2\n  add\n  swap1\n  tag_50\n  swap2\n  swap1\n  tag_23\n  jump\t// in\ntag_50:\ntag_48:\n  pop\n  jump\t// out\n    /* \"#utility.yul\":7:164   */\ntag_52:\n    /* \"#utility.yul\":112:157   */\n  tag_54\n    /* \"#utility.yul\":132:156   */\n  tag_55\n    /* \"#utility.yul\":150:155   */\n  dup3\n    /* \"#utility.yul\":132:156   */\n  tag_56\n  jump\t// in\ntag_55:\n    /* \"#utility.yul\":112:157   */\n  tag_57\n  jump\t// in\ntag_54:\n    /* \"#utility.yul\":107:110   */\n  dup3\n    /* \"#utility.yul\":100:158   */\n  mstore\n    /* \"#utility.yul\":7:164   */\n  pop\n  pop\n  jump\t// out\n    /* \"#utility.yul\":170:426   */\ntag_11:\n    /* \"#utility.yul\":282:285   */\n  0x00\n    /* \"#utility.yul\":297:372   */\n  tag_59\n    /* \"#utility.yul\":368:371   */\n  dup3\n    /* \"#utility.yul\":359:365   */\n  dup5\n    /* \"#utility.yul\":297:372   */\n  tag_52\n  jump\t// in\ntag_59:\n    /* \"#utility.yul\":397:399   */\n  0x14\n    /* \"#utility.yul\":392:395   */\n  dup3\n    /* \"#utility.yul\":388:400   */\n  add\n    /* \"#utility.yul\":381:400   */\n  swap2\n  pop\n    /* \"#utility.yul\":417:420   */\n  dup2\n    /* \"#utility.yul\":410:420   */\n  swap1\n  pop\n    /* \"#utility.yul\":170:426   */\n  swap3\n  swap2\n  pop\n  pop\n  jump\t// out\n    /* \"#utility.yul\":432:528   */\ntag_56:\n    /* \"#utility.yul\":469:476   */\n  0x00\n    /* \"#utility.yul\":498:522   */\n  tag_61\n    /* \"#utility.yul\":516:521   */\n  dup3\n    /* \"#utility.yul\":498:522   */\n  tag_62\n  jump\t// in\ntag_61:\n    /* \"#utility.yul\":487:522   */\n  swap1\n  pop\n    /* \"#utility.yul\":432:528   */\n  swap2\n  swap1\n  pop\n  jump\t// out\n    /* \"#utility.yul\":534:660   */\ntag_62:\n    /* \"#utility.yul\":571:578   */\n  0x00\n    /* \"#utility.yul\":611:653   */\n  0xffffffffffffffffffffffffffffffffffffffff\n    /* \"#utility.yul\":604:609   */\n  dup3\n    /* \"#utility.yul\":600:654   */\n  and\n    /* \"#utility.yul\":589:654   */\n  swap1\n  pop\n    /* \"#utility.yul\":534:660   */\n  swap2\n  swap1\n  pop\n  jump\t// out\n    /* \"#utility.yul\":666:986   */\ntag_16:\n    /* \"#utility.yul\":710:716   */\n  0x00\n    /* \"#utility.yul\":747:748   */\n  0x02\n    /* \"#utility.yul\":741:745   */\n  dup3\n    /* \"#utility.yul\":737:749   */\n  div\n    /* \"#utility.yul\":727:749   */\n  swap1\n  pop\n    /* \"#utility.yul\":794:795   */\n  0x01\n    /* \"#utility.yul\":788:792   */\n  dup3\n    /* \"#utility.yul\":784:796   */\n  and\n    /* \"#utility.yul\":815:833   */\n  dup1\n    /* \"#utility.yul\":805:886   */\n  tag_65\n  jumpi\n    /* \"#utility.yul\":871:875   */\n  0x7f\n    /* \"#utility.yul\":863:869   */\n  dup3\n    /* \"#utility.yul\":859:876   */\n  and\n    /* \"#utility.yul\":849:876   */\n  swap2\n  pop\n    /* \"#utility.yul\":805:886   */\ntag_65:\n    /* \"#utility.yul\":933:935   */\n  0x20\n    /* \"#utility.yul\":925:931   */\n  dup3\n    /* \"#utility.yul\":922:936   */\n  lt\n    /* \"#utility.yul\":902:920   */\n  dup2\n    /* \"#utility.yul\":899:937   */\n  eq\n    /* \"#utility.yul\":896:980   */\n  iszero\n  tag_66\n  jumpi\n    /* \"#utility.yul\":952:970   */\n  tag_67\n  tag_68\n  jump\t// in\ntag_67:\n    /* \"#utility.yul\":896:980   */\ntag_66:\n    /* \"#utility.yul\":717:986   */\n  pop\n    /* \"#utility.yul\":666:986   */\n  swap2\n  swap1\n  pop\n  jump\t// out\n    /* \"#utility.yul\":992:1092   */\ntag_57:\n    /* \"#utility.yul\":1031:1038   */\n  0x00\n    /* \"#utility.yul\":1060:1086   */\n  tag_70\n    /* \"#utility.yul\":1080:1085   */\n  dup3\n    /* \"#utility.yul\":1060:1086   */\n  tag_71\n  jump\t// in\ntag_70:\n    /* \"#utility.yul\":1049:1086   */\n  swap1\n  pop\n    /* \"#utility.yul\":992:1092   */\n  swap2\n  swap1\n  pop\n  jump\t// out\n    /* \"#utility.yul\":1098:1192   */\ntag_71:\n    /* \"#utility.yul\":1137:1144   */\n  0x00\n    /* \"#utility.yul\":1166:1186   */\n  tag_73\n    /* \"#utility.yul\":1180:1185   */\n  dup3\n    /* \"#utility.yul\":1166:1186   */\n  tag_74\n  jump\t// in\ntag_73:\n    /* \"#utility.yul\":1155:1186   */\n  swap1\n  pop\n    /* \"#utility.yul\":1098:1192   */\n  swap2\n  swap1\n  pop\n  jump\t// out\n    /* \"#utility.yul\":1198:1378   */\ntag_68:\n    /* \"#utility.yul\":1246:1323   */\n  0x4e487b7100000000000000000000000000000000000000000000000000000000\n    /* \"#utility.yul\":1243:1244   */\n  0x00\n    /* \"#utility.yul\":1236:1324   */\n  mstore\n    /* \"#utility.yul\":1343:1347   */\n  0x22\n    /* \"#utility.yul\":1340:1341   */\n  0x04\n    /* \"#utility.yul\":1333:1348   */\n  mstore\n    /* \"#utility.yul\":1367:1371   */\n  0x24\n    /* \"#utility.yul\":1364:1365   */\n  0x00\n    /* \"#utility.yul\":1357:1372   */\n  revert\n    /* \"#utility.yul\":1384:1478   */\ntag_74:\n    /* \"#utility.yul\":1417:1425   */\n  0x00\n    /* \"#utility.yul\":1465:1470   */\n  dup2\n    /* \"#utility.yul\":1461:1463   */\n  0x60\n    /* \"#utility.yul\":1457:1471   */\n  shl\n    /* \"#utility.yul\":1436:1471   */\n  swap1\n  pop\n    /* \"#utility.yul\":1384:1478   */\n  swap2\n  swap1\n  pop\n  jump\t// out\n    /* \"01 - Variables.sol\":66:1886  contract Variables{\r... */\ntag_14:\n  dataSize(sub_0)\n  dup1\n  dataOffset(sub_0)\n  0x00\n  codecopy\n  0x00\n  return\nstop\n\nsub_0: assembly {\n        /* \"01 - Variables.sol\":66:1886  contract Variables{\r... */\n      mstore(0x40, 0x80)\n      callvalue\n      dup1\n      iszero\n      tag_1\n      jumpi\n      0x00\n      dup1\n      revert\n    tag_1:\n      pop\n      jumpi(tag_2, lt(calldatasize, 0x04))\n      shr(0xe0, calldataload(0x00))\n      dup1\n      0x67e404ce\n      eq\n      tag_3\n      jumpi\n      dup1\n      0xa3277eb1\n      eq\n      tag_4\n      jumpi\n      dup1\n      0xdcf63591\n      eq\n      tag_5\n      jumpi\n    tag_2:\n      0x00\n      dup1\n      revert\n        /* \"01 - Variables.sol\":1823:1882  string public sender = string(abi.encodePacked(msg.sender)) */\n    tag_3:\n      tag_6\n      tag_7\n      jump\t// in\n    tag_6:\n      mload(0x40)\n      tag_8\n      swap2\n      swap1\n      tag_9\n      jump\t// in\n    tag_8:\n      mload(0x40)\n      dup1\n      swap2\n      sub\n      swap1\n      return\n        /* \"01 - Variables.sol\":1205:1403  function showInfo() public view returns(string memory){\r... */\n    tag_4:\n      tag_10\n      tag_11\n      jump\t// in\n    tag_10:\n      mload(0x40)\n      tag_12\n      swap2\n      swap1\n      tag_9\n      jump\t// in\n    tag_12:\n      mload(0x40)\n      dup1\n      swap2\n      sub\n      swap1\n      return\n        /* \"01 - Variables.sol\":1158:1196  string public course =\"Blockchain Dev\" */\n    tag_5:\n      tag_13\n      tag_14\n      jump\t// in\n    tag_13:\n      mload(0x40)\n      tag_15\n      swap2\n      swap1\n      tag_9\n      jump\t// in\n    tag_15:\n      mload(0x40)\n      dup1\n      swap2\n      sub\n      swap1\n      return\n        /* \"01 - Variables.sol\":1823:1882  string public sender = string(abi.encodePacked(msg.sender)) */\n    tag_7:\n      0x15\n      dup1\n      sload\n      tag_16\n      swap1\n      tag_17\n      jump\t// in\n    tag_16:\n      dup1\n      0x1f\n      add\n      0x20\n      dup1\n      swap2\n      div\n      mul\n      0x20\n      add\n      mload(0x40)\n      swap1\n      dup2\n      add\n      0x40\n      mstore\n      dup1\n      swap3\n      swap2\n      swap1\n      dup2\n      dup2\n      mstore\n      0x20\n      add\n      dup3\n      dup1\n      sload\n      tag_18\n      swap1\n      tag_17\n      jump\t// in\n    tag_18:\n      dup1\n      iszero\n      tag_19\n      jumpi\n      dup1\n      0x1f\n      lt\n      tag_20\n      jumpi\n      0x0100\n      dup1\n      dup4\n      sload\n      div\n      mul\n      dup4\n      mstore\n      swap2\n      0x20\n      add\n      swap2\n      jump(tag_19)\n    tag_20:\n      dup3\n      add\n      swap2\n      swap1\n      0x00\n      mstore\n      keccak256(0x00, 0x20)\n      swap1\n    tag_21:\n      dup2\n      sload\n      dup2\n      mstore\n      swap1\n      0x01\n      add\n      swap1\n      0x20\n      add\n      dup1\n      dup4\n      gt\n      tag_21\n      jumpi\n      dup3\n      swap1\n      sub\n      0x1f\n      and\n      dup3\n      add\n      swap2\n    tag_19:\n      pop\n      pop\n      pop\n      pop\n      pop\n      dup2\n      jump\t// out\n        /* \"01 - Variables.sol\":1205:1403  function showInfo() public view returns(string memory){\r... */\n    tag_11:\n        /* \"01 - Variables.sol\":1245:1258  string memory */\n      0x60\n        /* \"01 - Variables.sol\":1297:1315  string memory info */\n      0x00\n        /* \"01 - Variables.sol\":1297:1327  string memory info = \" Course\" */\n      mload(0x40)\n      dup1\n      0x40\n      add\n      0x40\n      mstore\n      dup1\n      0x07\n      dup2\n      mstore\n      0x20\n      add\n      0x20436f7572736500000000000000000000000000000000000000000000000000\n      dup2\n      mstore\n      pop\n      swap1\n      pop\n        /* \"01 - Variables.sol\":1369:1375  course */\n      0x0a\n        /* \"01 - Variables.sol\":1377:1381  info */\n      dup2\n        /* \"01 - Variables.sol\":1352:1394  abi.encodePacked(course, info, \" Section\") */\n      add(0x20, mload(0x40))\n      tag_23\n      swap3\n      swap2\n      swap1\n      tag_24\n      jump\t// in\n    tag_23:\n      mload(0x40)\n      0x20\n      dup2\n      dup4\n      sub\n      sub\n      dup2\n      mstore\n      swap1\n      0x40\n      mstore\n        /* \"01 - Variables.sol\":1338:1395  return string(abi.encodePacked(course, info, \" Section\")) */\n      swap2\n      pop\n      pop\n        /* \"01 - Variables.sol\":1205:1403  function showInfo() public view returns(string memory){\r... */\n      swap1\n      jump\t// out\n        /* \"01 - Variables.sol\":1158:1196  string public course =\"Blockchain Dev\" */\n    tag_14:\n      0x0a\n      dup1\n      sload\n      tag_25\n      swap1\n      tag_17\n      jump\t// in\n    tag_25:\n      dup1\n      0x1f\n      add\n      0x20\n      dup1\n      swap2\n      div\n      mul\n      0x20\n      add\n      mload(0x40)\n      swap1\n      dup2\n      add\n      0x40\n      mstore\n      dup1\n      swap3\n      swap2\n      swap1\n      dup2\n      dup2\n      mstore\n      0x20\n      add\n      dup3\n      dup1\n      sload\n      tag_26\n      swap1\n      tag_17\n      jump\t// in\n    tag_26:\n      dup1\n      iszero\n      tag_27\n      jumpi\n      dup1\n      0x1f\n      lt\n      tag_28\n      jumpi\n      0x0100\n      dup1\n      dup4\n      sload\n      div\n      mul\n      dup4\n      mstore\n      swap2\n      0x20\n      add\n      swap2\n      jump(tag_27)\n    tag_28:\n      dup3\n      add\n      swap2\n      swap1\n      0x00\n      mstore\n      keccak256(0x00, 0x20)\n      swap1\n    tag_29:\n      dup2\n      sload\n      dup2\n      mstore\n      swap1\n      0x01\n      add\n      swap1\n      0x20\n      add\n      dup1\n      dup4\n      gt\n      tag_29\n      jumpi\n      dup3\n      swap1\n      sub\n      0x1f\n      and\n      dup3\n      add\n      swap2\n    tag_27:\n      pop\n      pop\n      pop\n      pop\n      pop\n      dup2\n      jump\t// out\n        /* \"#utility.yul\":7:371   */\n    tag_31:\n        /* \"#utility.yul\":95:98   */\n      0x00\n        /* \"#utility.yul\":123:162   */\n      tag_33\n        /* \"#utility.yul\":156:161   */\n      dup3\n        /* \"#utility.yul\":123:162   */\n      tag_34\n      jump\t// in\n    tag_33:\n        /* \"#utility.yul\":178:249   */\n      tag_35\n        /* \"#utility.yul\":242:248   */\n      dup2\n        /* \"#utility.yul\":237:240   */\n      dup6\n        /* \"#utility.yul\":178:249   */\n      tag_36\n      jump\t// in\n    tag_35:\n        /* \"#utility.yul\":171:249   */\n      swap4\n      pop\n        /* \"#utility.yul\":258:310   */\n      tag_37\n        /* \"#utility.yul\":303:309   */\n      dup2\n        /* \"#utility.yul\":298:301   */\n      dup6\n        /* \"#utility.yul\":291:295   */\n      0x20\n        /* \"#utility.yul\":284:289   */\n      dup7\n        /* \"#utility.yul\":280:296   */\n      add\n        /* \"#utility.yul\":258:310   */\n      tag_38\n      jump\t// in\n    tag_37:\n        /* \"#utility.yul\":335:364   */\n      tag_39\n        /* \"#utility.yul\":357:363   */\n      dup2\n        /* \"#utility.yul\":335:364   */\n      tag_40\n      jump\t// in\n    tag_39:\n        /* \"#utility.yul\":330:333   */\n      dup5\n        /* \"#utility.yul\":326:365   */\n      add\n        /* \"#utility.yul\":319:365   */\n      swap2\n      pop\n        /* \"#utility.yul\":99:371   */\n      pop\n        /* \"#utility.yul\":7:371   */\n      swap3\n      swap2\n      pop\n      pop\n      jump\t// out\n        /* \"#utility.yul\":377:754   */\n    tag_41:\n        /* \"#utility.yul\":483:486   */\n      0x00\n        /* \"#utility.yul\":511:550   */\n      tag_43\n        /* \"#utility.yul\":544:549   */\n      dup3\n        /* \"#utility.yul\":511:550   */\n      tag_34\n      jump\t// in\n    tag_43:\n        /* \"#utility.yul\":566:655   */\n      tag_44\n        /* \"#utility.yul\":648:654   */\n      dup2\n        /* \"#utility.yul\":643:646   */\n      dup6\n        /* \"#utility.yul\":566:655   */\n      tag_45\n      jump\t// in\n    tag_44:\n        /* \"#utility.yul\":559:655   */\n      swap4\n      pop\n        /* \"#utility.yul\":664:716   */\n      tag_46\n        /* \"#utility.yul\":709:715   */\n      dup2\n        /* \"#utility.yul\":704:707   */\n      dup6\n        /* \"#utility.yul\":697:701   */\n      0x20\n        /* \"#utility.yul\":690:695   */\n      dup7\n        /* \"#utility.yul\":686:702   */\n      add\n        /* \"#utility.yul\":664:716   */\n      tag_38\n      jump\t// in\n    tag_46:\n        /* \"#utility.yul\":741:747   */\n      dup1\n        /* \"#utility.yul\":736:739   */\n      dup5\n        /* \"#utility.yul\":732:748   */\n      add\n        /* \"#utility.yul\":725:748   */\n      swap2\n      pop\n        /* \"#utility.yul\":487:754   */\n      pop\n        /* \"#utility.yul\":377:754   */\n      swap3\n      swap2\n      pop\n      pop\n      jump\t// out\n        /* \"#utility.yul\":784:1629   */\n    tag_47:\n        /* \"#utility.yul\":887:890   */\n      0x00\n        /* \"#utility.yul\":924:929   */\n      dup2\n        /* \"#utility.yul\":918:930   */\n      sload\n        /* \"#utility.yul\":953:989   */\n      tag_49\n        /* \"#utility.yul\":979:988   */\n      dup2\n        /* \"#utility.yul\":953:989   */\n      tag_17\n      jump\t// in\n    tag_49:\n        /* \"#utility.yul\":1005:1094   */\n      tag_50\n        /* \"#utility.yul\":1087:1093   */\n      dup2\n        /* \"#utility.yul\":1082:1085   */\n      dup7\n        /* \"#utility.yul\":1005:1094   */\n      tag_45\n      jump\t// in\n    tag_50:\n        /* \"#utility.yul\":998:1094   */\n      swap5\n      pop\n        /* \"#utility.yul\":1125:1126   */\n      0x01\n        /* \"#utility.yul\":1114:1123   */\n      dup3\n        /* \"#utility.yul\":1110:1127   */\n      and\n        /* \"#utility.yul\":1141:1142   */\n      0x00\n        /* \"#utility.yul\":1136:1273   */\n      dup2\n      eq\n      tag_52\n      jumpi\n        /* \"#utility.yul\":1287:1288   */\n      0x01\n        /* \"#utility.yul\":1282:1623   */\n      dup2\n      eq\n      tag_53\n      jumpi\n        /* \"#utility.yul\":1103:1623   */\n      jump(tag_51)\n        /* \"#utility.yul\":1136:1273   */\n    tag_52:\n        /* \"#utility.yul\":1220:1224   */\n      0xff\n        /* \"#utility.yul\":1216:1225   */\n      not\n        /* \"#utility.yul\":1205:1214   */\n      dup4\n        /* \"#utility.yul\":1201:1226   */\n      and\n        /* \"#utility.yul\":1196:1199   */\n      dup7\n        /* \"#utility.yul\":1189:1227   */\n      mstore\n        /* \"#utility.yul\":1256:1262   */\n      dup2\n        /* \"#utility.yul\":1251:1254   */\n      dup7\n        /* \"#utility.yul\":1247:1263   */\n      add\n        /* \"#utility.yul\":1240:1263   */\n      swap4\n      pop\n        /* \"#utility.yul\":1136:1273   */\n      jump(tag_51)\n        /* \"#utility.yul\":1282:1623   */\n    tag_53:\n        /* \"#utility.yul\":1349:1387   */\n      tag_54\n        /* \"#utility.yul\":1381:1386   */\n      dup6\n        /* \"#utility.yul\":1349:1387   */\n      tag_55\n      jump\t// in\n    tag_54:\n        /* \"#utility.yul\":1409:1410   */\n      0x00\n        /* \"#utility.yul\":1423:1577   */\n    tag_56:\n        /* \"#utility.yul\":1437:1443   */\n      dup4\n        /* \"#utility.yul\":1434:1435   */\n      dup2\n        /* \"#utility.yul\":1431:1444   */\n      lt\n        /* \"#utility.yul\":1423:1577   */\n      iszero\n      tag_58\n      jumpi\n        /* \"#utility.yul\":1511:1518   */\n      dup2\n        /* \"#utility.yul\":1505:1519   */\n      sload\n        /* \"#utility.yul\":1501:1502   */\n      dup2\n        /* \"#utility.yul\":1496:1499   */\n      dup10\n        /* \"#utility.yul\":1492:1503   */\n      add\n        /* \"#utility.yul\":1485:1520   */\n      mstore\n        /* \"#utility.yul\":1561:1562   */\n      0x01\n        /* \"#utility.yul\":1552:1559   */\n      dup3\n        /* \"#utility.yul\":1548:1563   */\n      add\n        /* \"#utility.yul\":1537:1563   */\n      swap2\n      pop\n        /* \"#utility.yul\":1459:1463   */\n      0x20\n        /* \"#utility.yul\":1456:1457   */\n      dup2\n        /* \"#utility.yul\":1452:1464   */\n      add\n        /* \"#utility.yul\":1447:1464   */\n      swap1\n      pop\n        /* \"#utility.yul\":1423:1577   */\n      jump(tag_56)\n    tag_58:\n        /* \"#utility.yul\":1606:1612   */\n      dup4\n        /* \"#utility.yul\":1601:1604   */\n      dup9\n        /* \"#utility.yul\":1597:1613   */\n      add\n        /* \"#utility.yul\":1590:1613   */\n      swap6\n      pop\n        /* \"#utility.yul\":1289:1623   */\n      pop\n      pop\n        /* \"#utility.yul\":1103:1623   */\n    tag_51:\n      pop\n        /* \"#utility.yul\":891:1629   */\n      pop\n      pop\n        /* \"#utility.yul\":784:1629   */\n      swap3\n      swap2\n      pop\n      pop\n      jump\t// out\n        /* \"#utility.yul\":1635:2035   */\n    tag_59:\n        /* \"#utility.yul\":1795:1798   */\n      0x00\n        /* \"#utility.yul\":1816:1900   */\n      tag_61\n        /* \"#utility.yul\":1898:1899   */\n      0x08\n        /* \"#utility.yul\":1893:1896   */\n      dup4\n        /* \"#utility.yul\":1816:1900   */\n      tag_45\n      jump\t// in\n    tag_61:\n        /* \"#utility.yul\":1809:1900   */\n      swap2\n      pop\n        /* \"#utility.yul\":1909:2002   */\n      tag_62\n        /* \"#utility.yul\":1998:2001   */\n      dup3\n        /* \"#utility.yul\":1909:2002   */\n      tag_63\n      jump\t// in\n    tag_62:\n        /* \"#utility.yul\":2027:2028   */\n      0x08\n        /* \"#utility.yul\":2022:2025   */\n      dup3\n        /* \"#utility.yul\":2018:2029   */\n      add\n        /* \"#utility.yul\":2011:2029   */\n      swap1\n      pop\n        /* \"#utility.yul\":1635:2035   */\n      swap2\n      swap1\n      pop\n      jump\t// out\n        /* \"#utility.yul\":2041:2736   */\n    tag_24:\n        /* \"#utility.yul\":2319:2322   */\n      0x00\n        /* \"#utility.yul\":2341:2433   */\n      tag_65\n        /* \"#utility.yul\":2429:2432   */\n      dup3\n        /* \"#utility.yul\":2420:2426   */\n      dup6\n        /* \"#utility.yul\":2341:2433   */\n      tag_47\n      jump\t// in\n    tag_65:\n        /* \"#utility.yul\":2334:2433   */\n      swap2\n      pop\n        /* \"#utility.yul\":2450:2545   */\n      tag_66\n        /* \"#utility.yul\":2541:2544   */\n      dup3\n        /* \"#utility.yul\":2532:2538   */\n      dup5\n        /* \"#utility.yul\":2450:2545   */\n      tag_41\n      jump\t// in\n    tag_66:\n        /* \"#utility.yul\":2443:2545   */\n      swap2\n      pop\n        /* \"#utility.yul\":2562:2710   */\n      tag_67\n        /* \"#utility.yul\":2706:2709   */\n      dup3\n        /* \"#utility.yul\":2562:2710   */\n      tag_59\n      jump\t// in\n    tag_67:\n        /* \"#utility.yul\":2555:2710   */\n      swap2\n      pop\n        /* \"#utility.yul\":2727:2730   */\n      dup2\n        /* \"#utility.yul\":2720:2730   */\n      swap1\n      pop\n        /* \"#utility.yul\":2041:2736   */\n      swap4\n      swap3\n      pop\n      pop\n      pop\n      jump\t// out\n        /* \"#utility.yul\":2742:3055   */\n    tag_9:\n        /* \"#utility.yul\":2855:2859   */\n      0x00\n        /* \"#utility.yul\":2893:2895   */\n      0x20\n        /* \"#utility.yul\":2882:2891   */\n      dup3\n        /* \"#utility.yul\":2878:2896   */\n      add\n        /* \"#utility.yul\":2870:2896   */\n      swap1\n      pop\n        /* \"#utility.yul\":2942:2951   */\n      dup2\n        /* \"#utility.yul\":2936:2940   */\n      dup2\n        /* \"#utility.yul\":2932:2952   */\n      sub\n        /* \"#utility.yul\":2928:2929   */\n      0x00\n        /* \"#utility.yul\":2917:2926   */\n      dup4\n        /* \"#utility.yul\":2913:2930   */\n      add\n        /* \"#utility.yul\":2906:2953   */\n      mstore\n        /* \"#utility.yul\":2970:3048   */\n      tag_69\n        /* \"#utility.yul\":3043:3047   */\n      dup2\n        /* \"#utility.yul\":3034:3040   */\n      dup5\n        /* \"#utility.yul\":2970:3048   */\n      tag_31\n      jump\t// in\n    tag_69:\n        /* \"#utility.yul\":2962:3048   */\n      swap1\n      pop\n        /* \"#utility.yul\":2742:3055   */\n      swap3\n      swap2\n      pop\n      pop\n      jump\t// out\n        /* \"#utility.yul\":3061:3202   */\n    tag_55:\n        /* \"#utility.yul\":3110:3114   */\n      0x00\n        /* \"#utility.yul\":3133:3136   */\n      dup2\n        /* \"#utility.yul\":3125:3136   */\n      swap1\n      pop\n        /* \"#utility.yul\":3156:3159   */\n      dup2\n        /* \"#utility.yul\":3153:3154   */\n      0x00\n        /* \"#utility.yul\":3146:3160   */\n      mstore\n        /* \"#utility.yul\":3190:3194   */\n      0x20\n        /* \"#utility.yul\":3187:3188   */\n      0x00\n        /* \"#utility.yul\":3177:3195   */\n      keccak256\n        /* \"#utility.yul\":3169:3195   */\n      swap1\n      pop\n        /* \"#utility.yul\":3061:3202   */\n      swap2\n      swap1\n      pop\n      jump\t// out\n        /* \"#utility.yul\":3208:3307   */\n    tag_34:\n        /* \"#utility.yul\":3260:3266   */\n      0x00\n        /* \"#utility.yul\":3294:3299   */\n      dup2\n        /* \"#utility.yul\":3288:3300   */\n      mload\n        /* \"#utility.yul\":3278:3300   */\n      swap1\n      pop\n        /* \"#utility.yul\":3208:3307   */\n      swap2\n      swap1\n      pop\n      jump\t// out\n        /* \"#utility.yul\":3313:3482   */\n    tag_36:\n        /* \"#utility.yul\":3397:3408   */\n      0x00\n        /* \"#utility.yul\":3431:3437   */\n      dup3\n        /* \"#utility.yul\":3426:3429   */\n      dup3\n        /* \"#utility.yul\":3419:3438   */\n      mstore\n        /* \"#utility.yul\":3471:3475   */\n      0x20\n        /* \"#utility.yul\":3466:3469   */\n      dup3\n        /* \"#utility.yul\":3462:3476   */\n      add\n        /* \"#utility.yul\":3447:3476   */\n      swap1\n      pop\n        /* \"#utility.yul\":3313:3482   */\n      swap3\n      swap2\n      pop\n      pop\n      jump\t// out\n        /* \"#utility.yul\":3488:3636   */\n    tag_45:\n        /* \"#utility.yul\":3590:3601   */\n      0x00\n        /* \"#utility.yul\":3627:3630   */\n      dup2\n        /* \"#utility.yul\":3612:3630   */\n      swap1\n      pop\n        /* \"#utility.yul\":3488:3636   */\n      swap3\n      swap2\n      pop\n      pop\n      jump\t// out\n        /* \"#utility.yul\":3642:3949   */\n    tag_38:\n        /* \"#utility.yul\":3710:3711   */\n      0x00\n        /* \"#utility.yul\":3720:3833   */\n    tag_75:\n        /* \"#utility.yul\":3734:3740   */\n      dup4\n        /* \"#utility.yul\":3731:3732   */\n      dup2\n        /* \"#utility.yul\":3728:3741   */\n      lt\n        /* \"#utility.yul\":3720:3833   */\n      iszero\n      tag_77\n      jumpi\n        /* \"#utility.yul\":3819:3820   */\n      dup1\n        /* \"#utility.yul\":3814:3817   */\n      dup3\n        /* \"#utility.yul\":3810:3821   */\n      add\n        /* \"#utility.yul\":3804:3822   */\n      mload\n        /* \"#utility.yul\":3800:3801   */\n      dup2\n        /* \"#utility.yul\":3795:3798   */\n      dup5\n        /* \"#utility.yul\":3791:3802   */\n      add\n        /* \"#utility.yul\":3784:3823   */\n      mstore\n        /* \"#utility.yul\":3756:3758   */\n      0x20\n        /* \"#utility.yul\":3753:3754   */\n      dup2\n        /* \"#utility.yul\":3749:3759   */\n      add\n        /* \"#utility.yul\":3744:3759   */\n      swap1\n      pop\n        /* \"#utility.yul\":3720:3833   */\n      jump(tag_75)\n    tag_77:\n        /* \"#utility.yul\":3851:3857   */\n      dup4\n        /* \"#utility.yul\":3848:3849   */\n      dup2\n        /* \"#utility.yul\":3845:3858   */\n      gt\n        /* \"#utility.yul\":3842:3943   */\n      iszero\n      tag_78\n      jumpi\n        /* \"#utility.yul\":3931:3932   */\n      0x00\n        /* \"#utility.yul\":3922:3928   */\n      dup5\n        /* \"#utility.yul\":3917:3920   */\n      dup5\n        /* \"#utility.yul\":3913:3929   */\n      add\n        /* \"#utility.yul\":3906:3933   */\n      mstore\n        /* \"#utility.yul\":3842:3943   */\n    tag_78:\n        /* \"#utility.yul\":3691:3949   */\n      pop\n        /* \"#utility.yul\":3642:3949   */\n      pop\n      pop\n      pop\n      jump\t// out\n        /* \"#utility.yul\":3955:4275   */\n    tag_17:\n        /* \"#utility.yul\":3999:4005   */\n      0x00\n        /* \"#utility.yul\":4036:4037   */\n      0x02\n        /* \"#utility.yul\":4030:4034   */\n      dup3\n        /* \"#utility.yul\":4026:4038   */\n      div\n        /* \"#utility.yul\":4016:4038   */\n      swap1\n      pop\n        /* \"#utility.yul\":4083:4084   */\n      0x01\n        /* \"#utility.yul\":4077:4081   */\n      dup3\n        /* \"#utility.yul\":4073:4085   */\n      and\n        /* \"#utility.yul\":4104:4122   */\n      dup1\n        /* \"#utility.yul\":4094:4175   */\n      tag_80\n      jumpi\n        /* \"#utility.yul\":4160:4164   */\n      0x7f\n        /* \"#utility.yul\":4152:4158   */\n      dup3\n        /* \"#utility.yul\":4148:4165   */\n      and\n        /* \"#utility.yul\":4138:4165   */\n      swap2\n      pop\n        /* \"#utility.yul\":4094:4175   */\n    tag_80:\n        /* \"#utility.yul\":4222:4224   */\n      0x20\n        /* \"#utility.yul\":4214:4220   */\n      dup3\n        /* \"#utility.yul\":4211:4225   */\n      lt\n        /* \"#utility.yul\":4191:4209   */\n      dup2\n        /* \"#utility.yul\":4188:4226   */\n      eq\n        /* \"#utility.yul\":4185:4269   */\n      iszero\n      tag_81\n      jumpi\n        /* \"#utility.yul\":4241:4259   */\n      tag_82\n      tag_83\n      jump\t// in\n    tag_82:\n        /* \"#utility.yul\":4185:4269   */\n    tag_81:\n        /* \"#utility.yul\":4006:4275   */\n      pop\n        /* \"#utility.yul\":3955:4275   */\n      swap2\n      swap1\n      pop\n      jump\t// out\n        /* \"#utility.yul\":4281:4461   */\n    tag_83:\n        /* \"#utility.yul\":4329:4406   */\n      0x4e487b7100000000000000000000000000000000000000000000000000000000\n        /* \"#utility.yul\":4326:4327   */\n      0x00\n        /* \"#utility.yul\":4319:4407   */\n      mstore\n        /* \"#utility.yul\":4426:4430   */\n      0x22\n        /* \"#utility.yul\":4423:4424   */\n      0x04\n        /* \"#utility.yul\":4416:4431   */\n      mstore\n        /* \"#utility.yul\":4450:4454   */\n      0x24\n        /* \"#utility.yul\":4447:4448   */\n      0x00\n        /* \"#utility.yul\":4440:4455   */\n      revert\n        /* \"#utility.yul\":4467:4569   */\n    tag_40:\n        /* \"#utility.yul\":4508:4514   */\n      0x00\n        /* \"#utility.yul\":4559:4561   */\n      0x1f\n        /* \"#utility.yul\":4555:4562   */\n      not\n        /* \"#utility.yul\":4550:4552   */\n      0x1f\n        /* \"#utility.yul\":4543:4548   */\n      dup4\n        /* \"#utility.yul\":4539:4553   */\n      add\n        /* \"#utility.yul\":4535:4563   */\n      and\n        /* \"#utility.yul\":4525:4563   */\n      swap1\n      pop\n        /* \"#utility.yul\":4467:4569   */\n      swap2\n      swap1\n      pop\n      jump\t// out\n        /* \"#utility.yul\":4575:4733   */\n    tag_63:\n        /* \"#utility.yul\":4715:4725   */\n      0x2053656374696f6e000000000000000000000000000000000000000000000000\n        /* \"#utility.yul\":4711:4712   */\n      0x00\n        /* \"#utility.yul\":4703:4709   */\n      dup3\n        /* \"#utility.yul\":4699:4713   */\n      add\n        /* \"#utility.yul\":4692:4726   */\n      mstore\n        /* \"#utility.yul\":4575:4733   */\n      pop\n      jump\t// out\n\n    auxdata: 0xa2646970667358221220b549dfc00f1d819c9682f6bbba8669745eee98789bfb77435012074c60877d9f64736f6c63430008070033\n}\n",
				"bytecode": {
					"linkReferences": {},
					"object": "60806040527f596176757a20696c68616e0000000000000000000000000000000000000000006004556040518060400160405280600b81526020017f596176757a20696c68616e0000000000000000000000000000000000000000008152506005908051906020019062000075929190620002f5565b506040518060400160405280600b81526020017f596176757a20696c68616e00000000000000000000000000000000000000000081525060069080519060200190620000c392919062000386565b5060405180608001604052806040518060400160405280600581526020017f596176757a00000000000000000000000000000000000000000000000000000081525081526020016040518060400160405280600581526020017f696c68616e00000000000000000000000000000000000000000000000000000081525081526020016040518060400160405280600581526020017f41686d657400000000000000000000000000000000000000000000000000000081525081526020016040518060400160405280600481526020017f56656c69000000000000000000000000000000000000000000000000000000008152508152506007906004620001cb92919062000417565b506040518060a00160405280600160ff168152602001600260ff168152602001600360ff168152602001600460ff168152602001600560ff168152506008906005620002199291906200047e565b506040518060400160405280600e81526020017f426c6f636b636861696e20446576000000000000000000000000000000000000815250600a908051906020019062000267929190620002f5565b506001600b55633b9aca00600c55670de0b6b3a7640000600d556001600e55603c600f55610e106010556201518060115562093a80601255436013554560145533604051602001620002ba91906200057d565b60405160208183030381529060405260159080519060200190620002e0929190620002f5565b50348015620002ee57600080fd5b5062000668565b8280546200030390620005ce565b90600052602060002090601f01602090048101928262000327576000855562000373565b82601f106200034257805160ff191683800117855562000373565b8280016001018555821562000373579182015b828111156200037257825182559160200191906001019062000355565b5b509050620003829190620004d5565b5090565b8280546200039490620005ce565b90600052602060002090601f016020900481019282620003b8576000855562000404565b82601f10620003d357805160ff191683800117855562000404565b8280016001018555821562000404579182015b8281111562000403578251825591602001919060010190620003e6565b5b509050620004139190620004d5565b5090565b8280548282559060005260206000209081019282156200046b579160200282015b828111156200046a57825182908051906020019062000459929190620002f5565b509160200191906001019062000438565b5b5090506200047a9190620004f4565b5090565b828054828255906000526020600020908101928215620004c2579160200282015b82811115620004c1578251829060ff169055916020019190600101906200049f565b5b509050620004d19190620004d5565b5090565b5b80821115620004f0576000816000905550600101620004d6565b5090565b5b808211156200051857600081816200050e91906200051c565b50600101620004f5565b5090565b5080546200052a90620005ce565b6000825580601f106200053e57506200055f565b601f0160209004906000526020600020908101906200055e9190620004d5565b5b50565b6200057762000571826200059a565b62000604565b82525050565b60006200058b828462000562565b60148201915081905092915050565b6000620005a782620005ae565b9050919050565b600073ffffffffffffffffffffffffffffffffffffffff82169050919050565b60006002820490506001821680620005e757607f821691505b60208210811415620005fe57620005fd6200062c565b5b50919050565b6000620006118262000618565b9050919050565b600062000625826200065b565b9050919050565b7f4e487b7100000000000000000000000000000000000000000000000000000000600052602260045260246000fd5b60008160601b9050919050565b6104be80620006786000396000f3fe608060405234801561001057600080fd5b50600436106100415760003560e01c806367e404ce14610046578063a3277eb114610064578063dcf6359114610082575b600080fd5b61004e6100a0565b60405161005b919061035c565b60405180910390f35b61006c61012e565b604051610079919061035c565b60405180910390f35b61008a610193565b604051610097919061035c565b60405180910390f35b601580546100ad906103ed565b80601f01602080910402602001604051908101604052809291908181526020018280546100d9906103ed565b80156101265780601f106100fb57610100808354040283529160200191610126565b820191906000526020600020905b81548152906001019060200180831161010957829003601f168201915b505050505081565b606060006040518060400160405280600781526020017f20436f75727365000000000000000000000000000000000000000000000000008152509050600a8160405160200161017e92919061032d565b60405160208183030381529060405291505090565b600a80546101a0906103ed565b80601f01602080910402602001604051908101604052809291908181526020018280546101cc906103ed565b80156102195780601f106101ee57610100808354040283529160200191610219565b820191906000526020600020905b8154815290600101906020018083116101fc57829003601f168201915b505050505081565b600061022c82610393565b610236818561039e565b93506102468185602086016103ba565b61024f8161044e565b840191505092915050565b600061026582610393565b61026f81856103af565b935061027f8185602086016103ba565b80840191505092915050565b60008154610298816103ed565b6102a281866103af565b945060018216600081146102bd57600181146102ce57610301565b60ff19831686528186019350610301565b6102d78561037e565b60005b838110156102f9578154818901526001820191506020810190506102da565b838801955050505b50505092915050565b60006103176008836103af565b91506103228261045f565b600882019050919050565b6000610339828561028b565b9150610345828461025a565b91506103508261030a565b91508190509392505050565b600060208201905081810360008301526103768184610221565b905092915050565b60008190508160005260206000209050919050565b600081519050919050565b600082825260208201905092915050565b600081905092915050565b60005b838110156103d85780820151818401526020810190506103bd565b838111156103e7576000848401525b50505050565b6000600282049050600182168061040557607f821691505b602082108114156104195761041861041f565b5b50919050565b7f4e487b7100000000000000000000000000000000000000000000000000000000600052602260045260246000fd5b6000601f19601f8301169050919050565b7f2053656374696f6e00000000000000000000000000000000000000000000000060008201525056fea2646970667358221220b549dfc00f1d819c9682f6bbba8669745eee98789bfb77435012074c60877d9f64736f6c63430008070033",
					"opcodes": "PUSH1 0x80 PUSH1 0x40 MSTORE PUSH32 0x596176757A20696C68616E000000000000000000000000000000000000000000 PUSH1 0x4 SSTORE PUSH1 0x40 MLOAD DUP1 PUSH1 0x40 ADD PUSH1 0x40 MSTORE DUP1 PUSH1 0xB DUP2 MSTORE PUSH1 0x20 ADD PUSH32 0x596176757A20696C68616E000000000000000000000000000000000000000000 DUP2 MSTORE POP PUSH1 0x5 SWAP1 DUP1 MLOAD SWAP1 PUSH1 0x20 ADD SWAP1 PUSH3 0x75 SWAP3 SWAP2 SWAP1 PUSH3 0x2F5 JUMP JUMPDEST POP PUSH1 0x40 MLOAD DUP1 PUSH1 0x40 ADD PUSH1 0x40 MSTORE DUP1 PUSH1 0xB DUP2 MSTORE PUSH1 0x20 ADD PUSH32 0x596176757A20696C68616E000000000000000000000000000000000000000000 DUP2 MSTORE POP PUSH1 0x6 SWAP1 DUP1 MLOAD SWAP1 PUSH1 0x20 ADD SWAP1 PUSH3 0xC3 SWAP3 SWAP2 SWAP1 PUSH3 0x386 JUMP JUMPDEST POP PUSH1 0x40 MLOAD DUP1 PUSH1 0x80 ADD PUSH1 0x40 MSTORE DUP1 PUSH1 0x40 MLOAD DUP1 PUSH1 0x40 ADD PUSH1 0x40 MSTORE DUP1 PUSH1 0x5 DUP2 MSTORE PUSH1 0x20 ADD PUSH32 0x596176757A000000000000000000000000000000000000000000000000000000 DUP2 MSTORE POP DUP2 MSTORE PUSH1 0x20 ADD PUSH1 0x40 MLOAD DUP1 PUSH1 0x40 ADD PUSH1 0x40 MSTORE DUP1 PUSH1 0x5 DUP2 MSTORE PUSH1 0x20 ADD PUSH32 0x696C68616E000000000000000000000000000000000000000000000000000000 DUP2 MSTORE POP DUP2 MSTORE PUSH1 0x20 ADD PUSH1 0x40 MLOAD DUP1 PUSH1 0x40 ADD PUSH1 0x40 MSTORE DUP1 PUSH1 0x5 DUP2 MSTORE PUSH1 0x20 ADD PUSH32 0x41686D6574000000000000000000000000000000000000000000000000000000 DUP2 MSTORE POP DUP2 MSTORE PUSH1 0x20 ADD PUSH1 0x40 MLOAD DUP1 PUSH1 0x40 ADD PUSH1 0x40 MSTORE DUP1 PUSH1 0x4 DUP2 MSTORE PUSH1 0x20 ADD PUSH32 0x56656C6900000000000000000000000000000000000000000000000000000000 DUP2 MSTORE POP DUP2 MSTORE POP PUSH1 0x7 SWAP1 PUSH1 0x4 PUSH3 0x1CB SWAP3 SWAP2 SWAP1 PUSH3 0x417 JUMP JUMPDEST POP PUSH1 0x40 MLOAD DUP1 PUSH1 0xA0 ADD PUSH1 0x40 MSTORE DUP1 PUSH1 0x1 PUSH1 0xFF AND DUP2 MSTORE PUSH1 0x20 ADD PUSH1 0x2 PUSH1 0xFF AND DUP2 MSTORE PUSH1 0x20 ADD PUSH1 0x3 PUSH1 0xFF AND DUP2 MSTORE PUSH1 0x20 ADD PUSH1 0x4 PUSH1 0xFF AND DUP2 MSTORE PUSH1 0x20 ADD PUSH1 0x5 PUSH1 0xFF AND DUP2 MSTORE POP PUSH1 0x8 SWAP1 PUSH1 0x5 PUSH3 0x219 SWAP3 SWAP2 SWAP1 PUSH3 0x47E JUMP JUMPDEST POP PUSH1 0x40 MLOAD DUP1 PUSH1 0x40 ADD PUSH1 0x40 MSTORE DUP1 PUSH1 0xE DUP2 MSTORE PUSH1 0x20 ADD PUSH32 0x426C6F636B636861696E20446576000000000000000000000000000000000000 DUP2 MSTORE POP PUSH1 0xA SWAP1 DUP1 MLOAD SWAP1 PUSH1 0x20 ADD SWAP1 PUSH3 0x267 SWAP3 SWAP2 SWAP1 PUSH3 0x2F5 JUMP JUMPDEST POP PUSH1 0x1 PUSH1 0xB SSTORE PUSH4 0x3B9ACA00 PUSH1 0xC SSTORE PUSH8 0xDE0B6B3A7640000 PUSH1 0xD SSTORE PUSH1 0x1 PUSH1 0xE SSTORE PUSH1 0x3C PUSH1 0xF SSTORE PUSH2 0xE10 PUSH1 0x10 SSTORE PUSH3 0x15180 PUSH1 0x11 SSTORE PUSH3 0x93A80 PUSH1 0x12 SSTORE NUMBER PUSH1 0x13 SSTORE GASLIMIT PUSH1 0x14 SSTORE CALLER PUSH1 0x40 MLOAD PUSH1 0x20 ADD PUSH3 0x2BA SWAP2 SWAP1 PUSH3 0x57D JUMP JUMPDEST PUSH1 0x40 MLOAD PUSH1 0x20 DUP2 DUP4 SUB SUB DUP2 MSTORE SWAP1 PUSH1 0x40 MSTORE PUSH1 0x15 SWAP1 DUP1 MLOAD SWAP1 PUSH1 0x20 ADD SWAP1 PUSH3 0x2E0 SWAP3 SWAP2 SWAP1 PUSH3 0x2F5 JUMP JUMPDEST POP CALLVALUE DUP1 ISZERO PUSH3 0x2EE JUMPI PUSH1 0x0 DUP1 REVERT JUMPDEST POP PUSH3 0x668 JUMP JUMPDEST DUP3 DUP1 SLOAD PUSH3 0x303 SWAP1 PUSH3 0x5CE JUMP JUMPDEST SWAP1 PUSH1 0x0 MSTORE PUSH1 0x20 PUSH1 0x0 KECCAK256 SWAP1 PUSH1 0x1F ADD PUSH1 0x20 SWAP1 DIV DUP2 ADD SWAP3 DUP3 PUSH3 0x327 JUMPI PUSH1 0x0 DUP6 SSTORE PUSH3 0x373 JUMP JUMPDEST DUP3 PUSH1 0x1F LT PUSH3 0x342 JUMPI DUP1 MLOAD PUSH1 0xFF NOT AND DUP4 DUP1 ADD OR DUP6 SSTORE PUSH3 0x373 JUMP JUMPDEST DUP3 DUP1 ADD PUSH1 0x1 ADD DUP6 SSTORE DUP3 ISZERO PUSH3 0x373 JUMPI SWAP2 DUP3 ADD JUMPDEST DUP3 DUP2 GT ISZERO PUSH3 0x372 JUMPI DUP3 MLOAD DUP3 SSTORE SWAP2 PUSH1 0x20 ADD SWAP2 SWAP1 PUSH1 0x1 ADD SWAP1 PUSH3 0x355 JUMP JUMPDEST JUMPDEST POP SWAP1 POP PUSH3 0x382 SWAP2 SWAP1 PUSH3 0x4D5 JUMP JUMPDEST POP SWAP1 JUMP JUMPDEST DUP3 DUP1 SLOAD PUSH3 0x394 SWAP1 PUSH3 0x5CE JUMP JUMPDEST SWAP1 PUSH1 0x0 MSTORE PUSH1 0x20 PUSH1 0x0 KECCAK256 SWAP1 PUSH1 0x1F ADD PUSH1 0x20 SWAP1 DIV DUP2 ADD SWAP3 DUP3 PUSH3 0x3B8 JUMPI PUSH1 0x0 DUP6 SSTORE PUSH3 0x404 JUMP JUMPDEST DUP3 PUSH1 0x1F LT PUSH3 0x3D3 JUMPI DUP1 MLOAD PUSH1 0xFF NOT AND DUP4 DUP1 ADD OR DUP6 SSTORE PUSH3 0x404 JUMP JUMPDEST DUP3 DUP1 ADD PUSH1 0x1 ADD DUP6 SSTORE DUP3 ISZERO PUSH3 0x404 JUMPI SWAP2 DUP3 ADD JUMPDEST DUP3 DUP2 GT ISZERO PUSH3 0x403 JUMPI DUP3 MLOAD DUP3 SSTORE SWAP2 PUSH1 0x20 ADD SWAP2 SWAP1 PUSH1 0x1 ADD SWAP1 PUSH3 0x3E6 JUMP JUMPDEST JUMPDEST POP SWAP1 POP PUSH3 0x413 SWAP2 SWAP1 PUSH3 0x4D5 JUMP JUMPDEST POP SWAP1 JUMP JUMPDEST DUP3 DUP1 SLOAD DUP3 DUP3 SSTORE SWAP1 PUSH1 0x0 MSTORE PUSH1 0x20 PUSH1 0x0 KECCAK256 SWAP1 DUP2 ADD SWAP3 DUP3 ISZERO PUSH3 0x46B JUMPI SWAP2 PUSH1 0x20 MUL DUP3 ADD JUMPDEST DUP3 DUP2 GT ISZERO PUSH3 0x46A JUMPI DUP3 MLOAD DUP3 SWAP1 DUP1 MLOAD SWAP1 PUSH1 0x20 ADD SWAP1 PUSH3 0x459 SWAP3 SWAP2 SWAP1 PUSH3 0x2F5 JUMP JUMPDEST POP SWAP2 PUSH1 0x20 ADD SWAP2 SWAP1 PUSH1 0x1 ADD SWAP1 PUSH3 0x438 JUMP JUMPDEST JUMPDEST POP SWAP1 POP PUSH3 0x47A SWAP2 SWAP1 PUSH3 0x4F4 JUMP JUMPDEST POP SWAP1 JUMP JUMPDEST DUP3 DUP1 SLOAD DUP3 DUP3 SSTORE SWAP1 PUSH1 0x0 MSTORE PUSH1 0x20 PUSH1 0x0 KECCAK256 SWAP1 DUP2 ADD SWAP3 DUP3 ISZERO PUSH3 0x4C2 JUMPI SWAP2 PUSH1 0x20 MUL DUP3 ADD JUMPDEST DUP3 DUP2 GT ISZERO PUSH3 0x4C1 JUMPI DUP3 MLOAD DUP3 SWAP1 PUSH1 0xFF AND SWAP1 SSTORE SWAP2 PUSH1 0x20 ADD SWAP2 SWAP1 PUSH1 0x1 ADD SWAP1 PUSH3 0x49F JUMP JUMPDEST JUMPDEST POP SWAP1 POP PUSH3 0x4D1 SWAP2 SWAP1 PUSH3 0x4D5 JUMP JUMPDEST POP SWAP1 JUMP JUMPDEST JUMPDEST DUP1 DUP3 GT ISZERO PUSH3 0x4F0 JUMPI PUSH1 0x0 DUP2 PUSH1 0x0 SWAP1 SSTORE POP PUSH1 0x1 ADD PUSH3 0x4D6 JUMP JUMPDEST POP SWAP1 JUMP JUMPDEST JUMPDEST DUP1 DUP3 GT ISZERO PUSH3 0x518 JUMPI PUSH1 0x0 DUP2 DUP2 PUSH3 0x50E SWAP2 SWAP1 PUSH3 0x51C JUMP JUMPDEST POP PUSH1 0x1 ADD PUSH3 0x4F5 JUMP JUMPDEST POP SWAP1 JUMP JUMPDEST POP DUP1 SLOAD PUSH3 0x52A SWAP1 PUSH3 0x5CE JUMP JUMPDEST PUSH1 0x0 DUP3 SSTORE DUP1 PUSH1 0x1F LT PUSH3 0x53E JUMPI POP PUSH3 0x55F JUMP JUMPDEST PUSH1 0x1F ADD PUSH1 0x20 SWAP1 DIV SWAP1 PUSH1 0x0 MSTORE PUSH1 0x20 PUSH1 0x0 KECCAK256 SWAP1 DUP2 ADD SWAP1 PUSH3 0x55E SWAP2 SWAP1 PUSH3 0x4D5 JUMP JUMPDEST JUMPDEST POP JUMP JUMPDEST PUSH3 0x577 PUSH3 0x571 DUP3 PUSH3 0x59A JUMP JUMPDEST PUSH3 0x604 JUMP JUMPDEST DUP3 MSTORE POP POP JUMP JUMPDEST PUSH1 0x0 PUSH3 0x58B DUP3 DUP5 PUSH3 0x562 JUMP JUMPDEST PUSH1 0x14 DUP3 ADD SWAP2 POP DUP2 SWAP1 POP SWAP3 SWAP2 POP POP JUMP JUMPDEST PUSH1 0x0 PUSH3 0x5A7 DUP3 PUSH3 0x5AE JUMP JUMPDEST SWAP1 POP SWAP2 SWAP1 POP JUMP JUMPDEST PUSH1 0x0 PUSH20 0xFFFFFFFFFFFFFFFFFFFFFFFFFFFFFFFFFFFFFFFF DUP3 AND SWAP1 POP SWAP2 SWAP1 POP JUMP JUMPDEST PUSH1 0x0 PUSH1 0x2 DUP3 DIV SWAP1 POP PUSH1 0x1 DUP3 AND DUP1 PUSH3 0x5E7 JUMPI PUSH1 0x7F DUP3 AND SWAP2 POP JUMPDEST PUSH1 0x20 DUP3 LT DUP2 EQ ISZERO PUSH3 0x5FE JUMPI PUSH3 0x5FD PUSH3 0x62C JUMP JUMPDEST JUMPDEST POP SWAP2 SWAP1 POP JUMP JUMPDEST PUSH1 0x0 PUSH3 0x611 DUP3 PUSH3 0x618 JUMP JUMPDEST SWAP1 POP SWAP2 SWAP1 POP JUMP JUMPDEST PUSH1 0x0 PUSH3 0x625 DUP3 PUSH3 0x65B JUMP JUMPDEST SWAP1 POP SWAP2 SWAP1 POP JUMP JUMPDEST PUSH32 0x4E487B7100000000000000000000000000000000000000000000000000000000 PUSH1 0x0 MSTORE PUSH1 0x22 PUSH1 0x4 MSTORE PUSH1 0x24 PUSH1 0x0 REVERT JUMPDEST PUSH1 0x0 DUP2 PUSH1 0x60 SHL SWAP1 POP SWAP2 SWAP1 POP JUMP JUMPDEST PUSH2 0x4BE DUP1 PUSH3 0x678 PUSH1 0x0 CODECOPY PUSH1 0x0 RETURN INVALID PUSH1 0x80 PUSH1 0x40 MSTORE CALLVALUE DUP1 ISZERO PUSH2 0x10 JUMPI PUSH1 0x0 DUP1 REVERT JUMPDEST POP PUSH1 0x4 CALLDATASIZE LT PUSH2 0x41 JUMPI PUSH1 0x0 CALLDATALOAD PUSH1 0xE0 SHR DUP1 PUSH4 0x67E404CE EQ PUSH2 0x46 JUMPI DUP1 PUSH4 0xA3277EB1 EQ PUSH2 0x64 JUMPI DUP1 PUSH4 0xDCF63591 EQ PUSH2 0x82 JUMPI JUMPDEST PUSH1 0x0 DUP1 REVERT JUMPDEST PUSH2 0x4E PUSH2 0xA0 JUMP JUMPDEST PUSH1 0x40 MLOAD PUSH2 0x5B SWAP2 SWAP1 PUSH2 0x35C JUMP JUMPDEST PUSH1 0x40 MLOAD DUP1 SWAP2 SUB SWAP1 RETURN JUMPDEST PUSH2 0x6C PUSH2 0x12E JUMP JUMPDEST PUSH1 0x40 MLOAD PUSH2 0x79 SWAP2 SWAP1 PUSH2 0x35C JUMP JUMPDEST PUSH1 0x40 MLOAD DUP1 SWAP2 SUB SWAP1 RETURN JUMPDEST PUSH2 0x8A PUSH2 0x193 JUMP JUMPDEST PUSH1 0x40 MLOAD PUSH2 0x97 SWAP2 SWAP1 PUSH2 0x35C JUMP JUMPDEST PUSH1 0x40 MLOAD DUP1 SWAP2 SUB SWAP1 RETURN JUMPDEST PUSH1 0x15 DUP1 SLOAD PUSH2 0xAD SWAP1 PUSH2 0x3ED JUMP JUMPDEST DUP1 PUSH1 0x1F ADD PUSH1 0x20 DUP1 SWAP2 DIV MUL PUSH1 0x20 ADD PUSH1 0x40 MLOAD SWAP1 DUP2 ADD PUSH1 0x40 MSTORE DUP1 SWAP3 SWAP2 SWAP1 DUP2 DUP2 MSTORE PUSH1 0x20 ADD DUP3 DUP1 SLOAD PUSH2 0xD9 SWAP1 PUSH2 0x3ED JUMP JUMPDEST DUP1 ISZERO PUSH2 0x126 JUMPI DUP1 PUSH1 0x1F LT PUSH2 0xFB JUMPI PUSH2 0x100 DUP1 DUP4 SLOAD DIV MUL DUP4 MSTORE SWAP2 PUSH1 0x20 ADD SWAP2 PUSH2 0x126 JUMP JUMPDEST DUP3 ADD SWAP2 SWAP1 PUSH1 0x0 MSTORE PUSH1 0x20 PUSH1 0x0 KECCAK256 SWAP1 JUMPDEST DUP2 SLOAD DUP2 MSTORE SWAP1 PUSH1 0x1 ADD SWAP1 PUSH1 0x20 ADD DUP1 DUP4 GT PUSH2 0x109 JUMPI DUP3 SWAP1 SUB PUSH1 0x1F AND DUP3 ADD SWAP2 JUMPDEST POP POP POP POP POP DUP2 JUMP JUMPDEST PUSH1 0x60 PUSH1 0x0 PUSH1 0x40 MLOAD DUP1 PUSH1 0x40 ADD PUSH1 0x40 MSTORE DUP1 PUSH1 0x7 DUP2 MSTORE PUSH1 0x20 ADD PUSH32 0x20436F7572736500000000000000000000000000000000000000000000000000 DUP2 MSTORE POP SWAP1 POP PUSH1 0xA DUP2 PUSH1 0x40 MLOAD PUSH1 0x20 ADD PUSH2 0x17E SWAP3 SWAP2 SWAP1 PUSH2 0x32D JUMP JUMPDEST PUSH1 0x40 MLOAD PUSH1 0x20 DUP2 DUP4 SUB SUB DUP2 MSTORE SWAP1 PUSH1 0x40 MSTORE SWAP2 POP POP SWAP1 JUMP JUMPDEST PUSH1 0xA DUP1 SLOAD PUSH2 0x1A0 SWAP1 PUSH2 0x3ED JUMP JUMPDEST DUP1 PUSH1 0x1F ADD PUSH1 0x20 DUP1 SWAP2 DIV MUL PUSH1 0x20 ADD PUSH1 0x40 MLOAD SWAP1 DUP2 ADD PUSH1 0x40 MSTORE DUP1 SWAP3 SWAP2 SWAP1 DUP2 DUP2 MSTORE PUSH1 0x20 ADD DUP3 DUP1 SLOAD PUSH2 0x1CC SWAP1 PUSH2 0x3ED JUMP JUMPDEST DUP1 ISZERO PUSH2 0x219 JUMPI DUP1 PUSH1 0x1F LT PUSH2 0x1EE JUMPI PUSH2 0x100 DUP1 DUP4 SLOAD DIV MUL DUP4 MSTORE SWAP2 PUSH1 0x20 ADD SWAP2 PUSH2 0x219 JUMP JUMPDEST DUP3 ADD SWAP2 SWAP1 PUSH1 0x0 MSTORE PUSH1 0x20 PUSH1 0x0 KECCAK256 SWAP1 JUMPDEST DUP2 SLOAD DUP2 MSTORE SWAP1 PUSH1 0x1 ADD SWAP1 PUSH1 0x20 ADD DUP1 DUP4 GT PUSH2 0x1FC JUMPI DUP3 SWAP1 SUB PUSH1 0x1F AND DUP3 ADD SWAP2 JUMPDEST POP POP POP POP POP DUP2 JUMP JUMPDEST PUSH1 0x0 PUSH2 0x22C DUP3 PUSH2 0x393 JUMP JUMPDEST PUSH2 0x236 DUP2 DUP6 PUSH2 0x39E JUMP JUMPDEST SWAP4 POP PUSH2 0x246 DUP2 DUP6 PUSH1 0x20 DUP7 ADD PUSH2 0x3BA JUMP JUMPDEST PUSH2 0x24F DUP2 PUSH2 0x44E JUMP JUMPDEST DUP5 ADD SWAP2 POP POP SWAP3 SWAP2 POP POP JUMP JUMPDEST PUSH1 0x0 PUSH2 0x265 DUP3 PUSH2 0x393 JUMP JUMPDEST PUSH2 0x26F DUP2 DUP6 PUSH2 0x3AF JUMP JUMPDEST SWAP4 POP PUSH2 0x27F DUP2 DUP6 PUSH1 0x20 DUP7 ADD PUSH2 0x3BA JUMP JUMPDEST DUP1 DUP5 ADD SWAP2 POP POP SWAP3 SWAP2 POP POP JUMP JUMPDEST PUSH1 0x0 DUP2 SLOAD PUSH2 0x298 DUP2 PUSH2 0x3ED JUMP JUMPDEST PUSH2 0x2A2 DUP2 DUP7 PUSH2 0x3AF JUMP JUMPDEST SWAP5 POP PUSH1 0x1 DUP3 AND PUSH1 0x0 DUP2 EQ PUSH2 0x2BD JUMPI PUSH1 0x1 DUP2 EQ PUSH2 0x2CE JUMPI PUSH2 0x301 JUMP JUMPDEST PUSH1 0xFF NOT DUP4 AND DUP7 MSTORE DUP2 DUP7 ADD SWAP4 POP PUSH2 0x301 JUMP JUMPDEST PUSH2 0x2D7 DUP6 PUSH2 0x37E JUMP JUMPDEST PUSH1 0x0 JUMPDEST DUP4 DUP2 LT ISZERO PUSH2 0x2F9 JUMPI DUP2 SLOAD DUP2 DUP10 ADD MSTORE PUSH1 0x1 DUP3 ADD SWAP2 POP PUSH1 0x20 DUP2 ADD SWAP1 POP PUSH2 0x2DA JUMP JUMPDEST DUP4 DUP9 ADD SWAP6 POP POP POP JUMPDEST POP POP POP SWAP3 SWAP2 POP POP JUMP JUMPDEST PUSH1 0x0 PUSH2 0x317 PUSH1 0x8 DUP4 PUSH2 0x3AF JUMP JUMPDEST SWAP2 POP PUSH2 0x322 DUP3 PUSH2 0x45F JUMP JUMPDEST PUSH1 0x8 DUP3 ADD SWAP1 POP SWAP2 SWAP1 POP JUMP JUMPDEST PUSH1 0x0 PUSH2 0x339 DUP3 DUP6 PUSH2 0x28B JUMP JUMPDEST SWAP2 POP PUSH2 0x345 DUP3 DUP5 PUSH2 0x25A JUMP JUMPDEST SWAP2 POP PUSH2 0x350 DUP3 PUSH2 0x30A JUMP JUMPDEST SWAP2 POP DUP2 SWAP1 POP SWAP4 SWAP3 POP POP POP JUMP JUMPDEST PUSH1 0x0 PUSH1 0x20 DUP3 ADD SWAP1 POP DUP2 DUP2 SUB PUSH1 0x0 DUP4 ADD MSTORE PUSH2 0x376 DUP2 DUP5 PUSH2 0x221 JUMP JUMPDEST SWAP1 POP SWAP3 SWAP2 POP POP JUMP JUMPDEST PUSH1 0x0 DUP2 SWAP1 POP DUP2 PUSH1 0x0 MSTORE PUSH1 0x20 PUSH1 0x0 KECCAK256 SWAP1 POP SWAP2 SWAP1 POP JUMP JUMPDEST PUSH1 0x0 DUP2 MLOAD SWAP1 POP SWAP2 SWAP1 POP JUMP JUMPDEST PUSH1 0x0 DUP3 DUP3 MSTORE PUSH1 0x20 DUP3 ADD SWAP1 POP SWAP3 SWAP2 POP POP JUMP JUMPDEST PUSH1 0x0 DUP2 SWAP1 POP SWAP3 SWAP2 POP POP JUMP JUMPDEST PUSH1 0x0 JUMPDEST DUP4 DUP2 LT ISZERO PUSH2 0x3D8 JUMPI DUP1 DUP3 ADD MLOAD DUP2 DUP5 ADD MSTORE PUSH1 0x20 DUP2 ADD SWAP1 POP PUSH2 0x3BD JUMP JUMPDEST DUP4 DUP2 GT ISZERO PUSH2 0x3E7 JUMPI PUSH1 0x0 DUP5 DUP5 ADD MSTORE JUMPDEST POP POP POP POP JUMP JUMPDEST PUSH1 0x0 PUSH1 0x2 DUP3 DIV SWAP1 POP PUSH1 0x1 DUP3 AND DUP1 PUSH2 0x405 JUMPI PUSH1 0x7F DUP3 AND SWAP2 POP JUMPDEST PUSH1 0x20 DUP3 LT DUP2 EQ ISZERO PUSH2 0x419 JUMPI PUSH2 0x418 PUSH2 0x41F JUMP JUMPDEST JUMPDEST POP SWAP2 SWAP1 POP JUMP JUMPDEST PUSH32 0x4E487B7100000000000000000000000000000000000000000000000000000000 PUSH1 0x0 MSTORE PUSH1 0x22 PUSH1 0x4 MSTORE PUSH1 0x24 PUSH1 0x0 REVERT JUMPDEST PUSH1 0x0 PUSH1 0x1F NOT PUSH1 0x1F DUP4 ADD AND SWAP1 POP SWAP2 SWAP1 POP JUMP JUMPDEST PUSH32 0x2053656374696F6E000000000000000000000000000000000000000000000000 PUSH1 0x0 DUP3 ADD MSTORE POP JUMP INVALID LOG2 PUSH5 0x6970667358 0x22 SLT KECCAK256 0xB5 0x49 0xDF 0xC0 0xF SAR DUP2 SWAP13 SWAP7 DUP3 0xF6 0xBB 0xBA DUP7 PUSH10 0x745EEE98789BFB774350 SLT SMOD 0x4C PUSH1 0x87 PUSH30 0x9F64736F6C63430008070033000000000000000000000000000000000000 "
				},
				"gasEstimates": {
					"creation": {
						"codeDepositCost": "242800",
						"executionCost": "infinite",
						"totalCost": "infinite"
					},
					"external": {
						"course()": "infinite",
						"sender()": "infinite",
						"showInfo()": "infinite"
					}
				},
				"methodIdentifiers": {
					"course()": "dcf63591",
					"sender()": "67e404ce",
					"showInfo()": "a3277eb1"
				}
			},
			"userdoc": {
				"kind": "user",
				"methods": {},
				"version": 1
			}
		}
	}
}