{
	"01 - Variables.sol": {
		"Variables": {
			"abi": [
				{
					"inputs": [],
					"name": "course",
					"outputs": [
						{
							"internalType": "string",
							"name": "",
							"type": "string"
						}
					],
					"stateMutability": "view",
					"type": "function"
				},
				{
					"inputs": [],
					"name": "gasPrice",
					"outputs": [
						{
							"internalType": "uint256",
							"name": "",
							"type": "uint256"
						}
					],
					"stateMutability": "view",
					"type": "function"
				},
				{
					"inputs": [],
					"name": "showInfo",
					"outputs": [
						{
							"internalType": "string",
							"name": "",
							"type": "string"
						}
					],
					"stateMutability": "view",
					"type": "function"
				}
			],
			"devdoc": {
				"kind": "dev",
				"methods": {},
				"version": 1
			},
			"evm": {
				"assembly": "    /* \"01 - Variables.sol\":66:1895  contract Variables{\r... */\n  mstore(0x40, 0x80)\n    /* \"01 - Variables.sol\":278:315  bytes32 nameByteFixed = \"Yavuz ilhan\" */\n  sstore(0x04, 0x596176757a20696c68616e000000000000000000000000000000000000000000)\n    /* \"01 - Variables.sol\":384:417  string nameString = \"Yavuz ilhan\" */\n  mload(0x40)\n  dup1\n  0x40\n  add\n  0x40\n  mstore\n  dup1\n  0x0b\n  dup2\n  mstore\n  0x20\n  add\n  0x596176757a20696c68616e000000000000000000000000000000000000000000\n  dup2\n  mstore\n  pop\n  0x05\n  swap1\n  dup1\n  mload\n  swap1\n  0x20\n  add\n  swap1\n  tag_1\n  swap3\n  swap2\n  swap1\n  tag_2\n  jump\t// in\ntag_1:\n  pop\n    /* \"01 - Variables.sol\":424:461  bytes nameByteDynamic = \"Yavuz ilhan\" */\n  mload(0x40)\n  dup1\n  0x40\n  add\n  0x40\n  mstore\n  dup1\n  0x0b\n  dup2\n  mstore\n  0x20\n  add\n  0x596176757a20696c68616e000000000000000000000000000000000000000000\n  dup2\n  mstore\n  pop\n  0x06\n  swap1\n  dup1\n  mload\n  swap1\n  0x20\n  add\n  swap1\n  tag_3\n  swap3\n  swap2\n  swap1\n  tag_4\n  jump\t// in\ntag_3:\n  pop\n    /* \"01 - Variables.sol\":468:517  string[] names = [\"Yavuz\",\"ilhan\",\"Ahmet\",\"Veli\"] */\n  mload(0x40)\n  dup1\n  0x80\n  add\n  0x40\n  mstore\n  dup1\n  mload(0x40)\n  dup1\n  0x40\n  add\n  0x40\n  mstore\n  dup1\n  0x05\n  dup2\n  mstore\n  0x20\n  add\n  0x596176757a000000000000000000000000000000000000000000000000000000\n  dup2\n  mstore\n  pop\n  dup2\n  mstore\n  0x20\n  add\n  mload(0x40)\n  dup1\n  0x40\n  add\n  0x40\n  mstore\n  dup1\n  0x05\n  dup2\n  mstore\n  0x20\n  add\n  0x696c68616e000000000000000000000000000000000000000000000000000000\n  dup2\n  mstore\n  pop\n  dup2\n  mstore\n  0x20\n  add\n  mload(0x40)\n  dup1\n  0x40\n  add\n  0x40\n  mstore\n  dup1\n  0x05\n  dup2\n  mstore\n  0x20\n  add\n  0x41686d6574000000000000000000000000000000000000000000000000000000\n  dup2\n  mstore\n  pop\n  dup2\n  mstore\n  0x20\n  add\n  mload(0x40)\n  dup1\n  0x40\n  add\n  0x40\n  mstore\n  dup1\n  0x04\n  dup2\n  mstore\n  0x20\n  add\n  0x56656c6900000000000000000000000000000000000000000000000000000000\n  dup2\n  mstore\n  pop\n  dup2\n  mstore\n  pop\n  0x07\n  swap1\n  0x04\n  tag_5\n  swap3\n  swap2\n  swap1\n  tag_6\n  jump\t// in\ntag_5:\n  pop\n    /* \"01 - Variables.sol\":539:567  uint[] numbers = [1,2,3,4,5] */\n  mload(0x40)\n  dup1\n  0xa0\n  add\n  0x40\n  mstore\n  dup1\n    /* \"01 - Variables.sol\":557:558  1 */\n  0x01\n    /* \"01 - Variables.sol\":539:567  uint[] numbers = [1,2,3,4,5] */\n  0xff\n  and\n  dup2\n  mstore\n  0x20\n  add\n    /* \"01 - Variables.sol\":559:560  2 */\n  0x02\n    /* \"01 - Variables.sol\":539:567  uint[] numbers = [1,2,3,4,5] */\n  0xff\n  and\n  dup2\n  mstore\n  0x20\n  add\n    /* \"01 - Variables.sol\":561:562  3 */\n  0x03\n    /* \"01 - Variables.sol\":539:567  uint[] numbers = [1,2,3,4,5] */\n  0xff\n  and\n  dup2\n  mstore\n  0x20\n  add\n    /* \"01 - Variables.sol\":563:564  4 */\n  0x04\n    /* \"01 - Variables.sol\":539:567  uint[] numbers = [1,2,3,4,5] */\n  0xff\n  and\n  dup2\n  mstore\n  0x20\n  add\n    /* \"01 - Variables.sol\":565:566  5 */\n  0x05\n    /* \"01 - Variables.sol\":539:567  uint[] numbers = [1,2,3,4,5] */\n  0xff\n  and\n  dup2\n  mstore\n  pop\n  0x08\n  swap1\n  0x05\n  tag_7\n  swap3\n  swap2\n  swap1\n  tag_8\n  jump\t// in\ntag_7:\n  pop\n    /* \"01 - Variables.sol\":1158:1196  string public course =\"Blockchain Dev\" */\n  mload(0x40)\n  dup1\n  0x40\n  add\n  0x40\n  mstore\n  dup1\n  0x0e\n  dup2\n  mstore\n  0x20\n  add\n  0x426c6f636b636861696e20446576000000000000000000000000000000000000\n  dup2\n  mstore\n  pop\n  0x0a\n  swap1\n  dup1\n  mload\n  swap1\n  0x20\n  add\n  swap1\n  tag_9\n  swap3\n  swap2\n  swap1\n  tag_2\n  jump\t// in\ntag_9:\n  pop\n    /* \"01 - Variables.sol\":1460:1465  1 wei */\n  0x01\n    /* \"01 - Variables.sol\":1448:1465  uint _Wei = 1 wei */\n  0x0b\n  sstore\n    /* \"01 - Variables.sol\":1485:1491  1 gwei */\n  0x3b9aca00\n    /* \"01 - Variables.sol\":1472:1491  uint _Gwei = 1 gwei */\n  0x0c\n  sstore\n    /* \"01 - Variables.sol\":1524:1531  1 ether */\n  0x0de0b6b3a7640000\n    /* \"01 - Variables.sol\":1510:1531  uint _Ether = 1 ether */\n  0x0d\n  sstore\n    /* \"01 - Variables.sol\":1577:1586  1 seconds */\n  0x01\n    /* \"01 - Variables.sol\":1563:1586  uint second = 1 seconds */\n  0x0e\n  sstore\n    /* \"01 - Variables.sol\":1607:1617  60 seconds */\n  0x3c\n    /* \"01 - Variables.sol\":1593:1617  uint minute = 60 seconds */\n  0x0f\n  sstore\n    /* \"01 - Variables.sol\":1636:1646  60 minutes */\n  0x0e10\n    /* \"01 - Variables.sol\":1624:1646  uint hour = 60 minutes */\n  0x10\n  sstore\n    /* \"01 - Variables.sol\":1680:1686  1 days */\n  0x015180\n    /* \"01 - Variables.sol\":1669:1686  uint day = 1 days */\n  0x11\n  sstore\n    /* \"01 - Variables.sol\":1705:1712  1 weeks */\n  0x093a80\n    /* \"01 - Variables.sol\":1693:1712  uint week = 1 weeks */\n  0x12\n  sstore\n    /* \"01 - Variables.sol\":1767:1779  block.number */\n  number\n    /* \"01 - Variables.sol\":1748:1779  uint blockNumber = block.number */\n  0x13\n  sstore\n    /* \"01 - Variables.sol\":1802:1816  block.gaslimit */\n  gaslimit\n    /* \"01 - Variables.sol\":1786:1816  uint gasLimit = block.gaslimit */\n  0x14\n  sstore\n    /* \"01 - Variables.sol\":1840:1850  msg.sender */\n  caller\n    /* \"01 - Variables.sol\":1823:1850  address sender = msg.sender */\n  0x15\n  exp(0x0100, 0x00)\n  dup2\n  sload\n  dup2\n  0xffffffffffffffffffffffffffffffffffffffff\n  mul\n  not\n  and\n  swap1\n  dup4\n  0xffffffffffffffffffffffffffffffffffffffff\n  and\n  mul\n  or\n  swap1\n  sstore\n  pop\n    /* \"01 - Variables.sol\":1880:1891  tx.gasprice */\n  gasprice\n    /* \"01 - Variables.sol\":1857:1891  uint public gasPrice = tx.gasprice */\n  0x16\n  sstore\n    /* \"01 - Variables.sol\":66:1895  contract Variables{\r... */\n  callvalue\n  dup1\n  iszero\n  tag_10\n  jumpi\n  0x00\n  dup1\n  revert\ntag_10:\n  pop\n  jump(tag_11)\ntag_2:\n  dup3\n  dup1\n  sload\n  tag_12\n  swap1\n  tag_13\n  jump\t// in\ntag_12:\n  swap1\n  0x00\n  mstore\n  keccak256(0x00, 0x20)\n  swap1\n  0x1f\n  add\n  0x20\n  swap1\n  div\n  dup2\n  add\n  swap3\n  dup3\n  tag_15\n  jumpi\n  0x00\n  dup6\n  sstore\n  jump(tag_14)\ntag_15:\n  dup3\n  0x1f\n  lt\n  tag_16\n  jumpi\n  dup1\n  mload\n  not(0xff)\n  and\n  dup4\n  dup1\n  add\n  or\n  dup6\n  sstore\n  jump(tag_14)\ntag_16:\n  dup3\n  dup1\n  add\n  0x01\n  add\n  dup6\n  sstore\n  dup3\n  iszero\n  tag_14\n  jumpi\n  swap2\n  dup3\n  add\ntag_17:\n  dup3\n  dup2\n  gt\n  iszero\n  tag_18\n  jumpi\n  dup3\n  mload\n  dup3\n  sstore\n  swap2\n  0x20\n  add\n  swap2\n  swap1\n  0x01\n  add\n  swap1\n  jump(tag_17)\ntag_18:\ntag_14:\n  pop\n  swap1\n  pop\n  tag_19\n  swap2\n  swap1\n  tag_20\n  jump\t// in\ntag_19:\n  pop\n  swap1\n  jump\t// out\ntag_4:\n  dup3\n  dup1\n  sload\n  tag_21\n  swap1\n  tag_13\n  jump\t// in\ntag_21:\n  swap1\n  0x00\n  mstore\n  keccak256(0x00, 0x20)\n  swap1\n  0x1f\n  add\n  0x20\n  swap1\n  div\n  dup2\n  add\n  swap3\n  dup3\n  tag_23\n  jumpi\n  0x00\n  dup6\n  sstore\n  jump(tag_22)\ntag_23:\n  dup3\n  0x1f\n  lt\n  tag_24\n  jumpi\n  dup1\n  mload\n  not(0xff)\n  and\n  dup4\n  dup1\n  add\n  or\n  dup6\n  sstore\n  jump(tag_22)\ntag_24:\n  dup3\n  dup1\n  add\n  0x01\n  add\n  dup6\n  sstore\n  dup3\n  iszero\n  tag_22\n  jumpi\n  swap2\n  dup3\n  add\ntag_25:\n  dup3\n  dup2\n  gt\n  iszero\n  tag_26\n  jumpi\n  dup3\n  mload\n  dup3\n  sstore\n  swap2\n  0x20\n  add\n  swap2\n  swap1\n  0x01\n  add\n  swap1\n  jump(tag_25)\ntag_26:\ntag_22:\n  pop\n  swap1\n  pop\n  tag_27\n  swap2\n  swap1\n  tag_20\n  jump\t// in\ntag_27:\n  pop\n  swap1\n  jump\t// out\ntag_6:\n  dup3\n  dup1\n  sload\n  dup3\n  dup3\n  sstore\n  swap1\n  0x00\n  mstore\n  keccak256(0x00, 0x20)\n  swap1\n  dup2\n  add\n  swap3\n  dup3\n  iszero\n  tag_28\n  jumpi\n  swap2\n  0x20\n  mul\n  dup3\n  add\ntag_29:\n  dup3\n  dup2\n  gt\n  iszero\n  tag_30\n  jumpi\n  dup3\n  mload\n  dup3\n  swap1\n  dup1\n  mload\n  swap1\n  0x20\n  add\n  swap1\n  tag_31\n  swap3\n  swap2\n  swap1\n  tag_2\n  jump\t// in\ntag_31:\n  pop\n  swap2\n  0x20\n  add\n  swap2\n  swap1\n  0x01\n  add\n  swap1\n  jump(tag_29)\ntag_30:\ntag_28:\n  pop\n  swap1\n  pop\n  tag_32\n  swap2\n  swap1\n  tag_33\n  jump\t// in\ntag_32:\n  pop\n  swap1\n  jump\t// out\ntag_8:\n  dup3\n  dup1\n  sload\n  dup3\n  dup3\n  sstore\n  swap1\n  0x00\n  mstore\n  keccak256(0x00, 0x20)\n  swap1\n  dup2\n  add\n  swap3\n  dup3\n  iszero\n  tag_34\n  jumpi\n  swap2\n  0x20\n  mul\n  dup3\n  add\ntag_35:\n  dup3\n  dup2\n  gt\n  iszero\n  tag_36\n  jumpi\n  dup3\n  mload\n  dup3\n  swap1\n  0xff\n  and\n  swap1\n  sstore\n  swap2\n  0x20\n  add\n  swap2\n  swap1\n  0x01\n  add\n  swap1\n  jump(tag_35)\ntag_36:\ntag_34:\n  pop\n  swap1\n  pop\n  tag_37\n  swap2\n  swap1\n  tag_20\n  jump\t// in\ntag_37:\n  pop\n  swap1\n  jump\t// out\ntag_20:\ntag_38:\n  dup1\n  dup3\n  gt\n  iszero\n  tag_39\n  jumpi\n  0x00\n  dup2\n  0x00\n  swap1\n  sstore\n  pop\n  0x01\n  add\n  jump(tag_38)\ntag_39:\n  pop\n  swap1\n  jump\t// out\ntag_33:\ntag_40:\n  dup1\n  dup3\n  gt\n  iszero\n  tag_41\n  jumpi\n  0x00\n  dup2\n  dup2\n  tag_42\n  swap2\n  swap1\n  tag_43\n  jump\t// in\ntag_42:\n  pop\n  0x01\n  add\n  jump(tag_40)\ntag_41:\n  pop\n  swap1\n  jump\t// out\ntag_43:\n  pop\n  dup1\n  sload\n  tag_44\n  swap1\n  tag_13\n  jump\t// in\ntag_44:\n  0x00\n  dup3\n  sstore\n  dup1\n  0x1f\n  lt\n  tag_46\n  jumpi\n  pop\n  jump(tag_45)\ntag_46:\n  0x1f\n  add\n  0x20\n  swap1\n  div\n  swap1\n  0x00\n  mstore\n  keccak256(0x00, 0x20)\n  swap1\n  dup2\n  add\n  swap1\n  tag_47\n  swap2\n  swap1\n  tag_20\n  jump\t// in\ntag_47:\ntag_45:\n  pop\n  jump\t// out\n    /* \"#utility.yul\":7:327   */\ntag_13:\n    /* \"#utility.yul\":51:57   */\n  0x00\n    /* \"#utility.yul\":88:89   */\n  0x02\n    /* \"#utility.yul\":82:86   */\n  dup3\n    /* \"#utility.yul\":78:90   */\n  div\n    /* \"#utility.yul\":68:90   */\n  swap1\n  pop\n    /* \"#utility.yul\":135:136   */\n  0x01\n    /* \"#utility.yul\":129:133   */\n  dup3\n    /* \"#utility.yul\":125:137   */\n  and\n    /* \"#utility.yul\":156:174   */\n  dup1\n    /* \"#utility.yul\":146:227   */\n  tag_50\n  jumpi\n    /* \"#utility.yul\":212:216   */\n  0x7f\n    /* \"#utility.yul\":204:210   */\n  dup3\n    /* \"#utility.yul\":200:217   */\n  and\n    /* \"#utility.yul\":190:217   */\n  swap2\n  pop\n    /* \"#utility.yul\":146:227   */\ntag_50:\n    /* \"#utility.yul\":274:276   */\n  0x20\n    /* \"#utility.yul\":266:272   */\n  dup3\n    /* \"#utility.yul\":263:277   */\n  lt\n    /* \"#utility.yul\":243:261   */\n  dup2\n    /* \"#utility.yul\":240:278   */\n  eq\n    /* \"#utility.yul\":237:321   */\n  iszero\n  tag_51\n  jumpi\n    /* \"#utility.yul\":293:311   */\n  tag_52\n  tag_53\n  jump\t// in\ntag_52:\n    /* \"#utility.yul\":237:321   */\ntag_51:\n    /* \"#utility.yul\":58:327   */\n  pop\n    /* \"#utility.yul\":7:327   */\n  swap2\n  swap1\n  pop\n  jump\t// out\n    /* \"#utility.yul\":333:513   */\ntag_53:\n    /* \"#utility.yul\":381:458   */\n  0x4e487b7100000000000000000000000000000000000000000000000000000000\n    /* \"#utility.yul\":378:379   */\n  0x00\n    /* \"#utility.yul\":371:459   */\n  mstore\n    /* \"#utility.yul\":478:482   */\n  0x22\n    /* \"#utility.yul\":475:476   */\n  0x04\n    /* \"#utility.yul\":468:483   */\n  mstore\n    /* \"#utility.yul\":502:506   */\n  0x24\n    /* \"#utility.yul\":499:500   */\n  0x00\n    /* \"#utility.yul\":492:507   */\n  revert\n    /* \"01 - Variables.sol\":66:1895  contract Variables{\r... */\ntag_11:\n  dataSize(sub_0)\n  dup1\n  dataOffset(sub_0)\n  0x00\n  codecopy\n  0x00\n  return\nstop\n\nsub_0: assembly {\n        /* \"01 - Variables.sol\":66:1895  contract Variables{\r... */\n      mstore(0x40, 0x80)\n      callvalue\n      dup1\n      iszero\n      tag_1\n      jumpi\n      0x00\n      dup1\n      revert\n    tag_1:\n      pop\n      jumpi(tag_2, lt(calldatasize, 0x04))\n      shr(0xe0, calldataload(0x00))\n      dup1\n      0xa3277eb1\n      eq\n      tag_3\n      jumpi\n      dup1\n      0xdcf63591\n      eq\n      tag_4\n      jumpi\n      dup1\n      0xfe173b97\n      eq\n      tag_5\n      jumpi\n    tag_2:\n      0x00\n      dup1\n      revert\n        /* \"01 - Variables.sol\":1205:1403  function showInfo() public view returns(string memory){\r... */\n    tag_3:\n      tag_6\n      tag_7\n      jump\t// in\n    tag_6:\n      mload(0x40)\n      tag_8\n      swap2\n      swap1\n      tag_9\n      jump\t// in\n    tag_8:\n      mload(0x40)\n      dup1\n      swap2\n      sub\n      swap1\n      return\n        /* \"01 - Variables.sol\":1158:1196  string public course =\"Blockchain Dev\" */\n    tag_4:\n      tag_10\n      tag_11\n      jump\t// in\n    tag_10:\n      mload(0x40)\n      tag_12\n      swap2\n      swap1\n      tag_9\n      jump\t// in\n    tag_12:\n      mload(0x40)\n      dup1\n      swap2\n      sub\n      swap1\n      return\n        /* \"01 - Variables.sol\":1857:1891  uint public gasPrice = tx.gasprice */\n    tag_5:\n      tag_13\n      tag_14\n      jump\t// in\n    tag_13:\n      mload(0x40)\n      tag_15\n      swap2\n      swap1\n      tag_16\n      jump\t// in\n    tag_15:\n      mload(0x40)\n      dup1\n      swap2\n      sub\n      swap1\n      return\n        /* \"01 - Variables.sol\":1205:1403  function showInfo() public view returns(string memory){\r... */\n    tag_7:\n        /* \"01 - Variables.sol\":1245:1258  string memory */\n      0x60\n        /* \"01 - Variables.sol\":1297:1315  string memory info */\n      0x00\n        /* \"01 - Variables.sol\":1297:1327  string memory info = \" Course\" */\n      mload(0x40)\n      dup1\n      0x40\n      add\n      0x40\n      mstore\n      dup1\n      0x07\n      dup2\n      mstore\n      0x20\n      add\n      0x20436f7572736500000000000000000000000000000000000000000000000000\n      dup2\n      mstore\n      pop\n      swap1\n      pop\n        /* \"01 - Variables.sol\":1369:1375  course */\n      0x0a\n        /* \"01 - Variables.sol\":1377:1381  info */\n      dup2\n        /* \"01 - Variables.sol\":1352:1394  abi.encodePacked(course, info, \" Section\") */\n      add(0x20, mload(0x40))\n      tag_18\n      swap3\n      swap2\n      swap1\n      tag_19\n      jump\t// in\n    tag_18:\n      mload(0x40)\n      0x20\n      dup2\n      dup4\n      sub\n      sub\n      dup2\n      mstore\n      swap1\n      0x40\n      mstore\n        /* \"01 - Variables.sol\":1338:1395  return string(abi.encodePacked(course, info, \" Section\")) */\n      swap2\n      pop\n      pop\n        /* \"01 - Variables.sol\":1205:1403  function showInfo() public view returns(string memory){\r... */\n      swap1\n      jump\t// out\n        /* \"01 - Variables.sol\":1158:1196  string public course =\"Blockchain Dev\" */\n    tag_11:\n      0x0a\n      dup1\n      sload\n      tag_20\n      swap1\n      tag_21\n      jump\t// in\n    tag_20:\n      dup1\n      0x1f\n      add\n      0x20\n      dup1\n      swap2\n      div\n      mul\n      0x20\n      add\n      mload(0x40)\n      swap1\n      dup2\n      add\n      0x40\n      mstore\n      dup1\n      swap3\n      swap2\n      swap1\n      dup2\n      dup2\n      mstore\n      0x20\n      add\n      dup3\n      dup1\n      sload\n      tag_22\n      swap1\n      tag_21\n      jump\t// in\n    tag_22:\n      dup1\n      iszero\n      tag_23\n      jumpi\n      dup1\n      0x1f\n      lt\n      tag_24\n      jumpi\n      0x0100\n      dup1\n      dup4\n      sload\n      div\n      mul\n      dup4\n      mstore\n      swap2\n      0x20\n      add\n      swap2\n      jump(tag_23)\n    tag_24:\n      dup3\n      add\n      swap2\n      swap1\n      0x00\n      mstore\n      keccak256(0x00, 0x20)\n      swap1\n    tag_25:\n      dup2\n      sload\n      dup2\n      mstore\n      swap1\n      0x01\n      add\n      swap1\n      0x20\n      add\n      dup1\n      dup4\n      gt\n      tag_25\n      jumpi\n      dup3\n      swap1\n      sub\n      0x1f\n      and\n      dup3\n      add\n      swap2\n    tag_23:\n      pop\n      pop\n      pop\n      pop\n      pop\n      dup2\n      jump\t// out\n        /* \"01 - Variables.sol\":1857:1891  uint public gasPrice = tx.gasprice */\n    tag_14:\n      sload(0x16)\n      dup2\n      jump\t// out\n        /* \"#utility.yul\":7:371   */\n    tag_27:\n        /* \"#utility.yul\":95:98   */\n      0x00\n        /* \"#utility.yul\":123:162   */\n      tag_29\n        /* \"#utility.yul\":156:161   */\n      dup3\n        /* \"#utility.yul\":123:162   */\n      tag_30\n      jump\t// in\n    tag_29:\n        /* \"#utility.yul\":178:249   */\n      tag_31\n        /* \"#utility.yul\":242:248   */\n      dup2\n        /* \"#utility.yul\":237:240   */\n      dup6\n        /* \"#utility.yul\":178:249   */\n      tag_32\n      jump\t// in\n    tag_31:\n        /* \"#utility.yul\":171:249   */\n      swap4\n      pop\n        /* \"#utility.yul\":258:310   */\n      tag_33\n        /* \"#utility.yul\":303:309   */\n      dup2\n        /* \"#utility.yul\":298:301   */\n      dup6\n        /* \"#utility.yul\":291:295   */\n      0x20\n        /* \"#utility.yul\":284:289   */\n      dup7\n        /* \"#utility.yul\":280:296   */\n      add\n        /* \"#utility.yul\":258:310   */\n      tag_34\n      jump\t// in\n    tag_33:\n        /* \"#utility.yul\":335:364   */\n      tag_35\n        /* \"#utility.yul\":357:363   */\n      dup2\n        /* \"#utility.yul\":335:364   */\n      tag_36\n      jump\t// in\n    tag_35:\n        /* \"#utility.yul\":330:333   */\n      dup5\n        /* \"#utility.yul\":326:365   */\n      add\n        /* \"#utility.yul\":319:365   */\n      swap2\n      pop\n        /* \"#utility.yul\":99:371   */\n      pop\n        /* \"#utility.yul\":7:371   */\n      swap3\n      swap2\n      pop\n      pop\n      jump\t// out\n        /* \"#utility.yul\":377:754   */\n    tag_37:\n        /* \"#utility.yul\":483:486   */\n      0x00\n        /* \"#utility.yul\":511:550   */\n      tag_39\n        /* \"#utility.yul\":544:549   */\n      dup3\n        /* \"#utility.yul\":511:550   */\n      tag_30\n      jump\t// in\n    tag_39:\n        /* \"#utility.yul\":566:655   */\n      tag_40\n        /* \"#utility.yul\":648:654   */\n      dup2\n        /* \"#utility.yul\":643:646   */\n      dup6\n        /* \"#utility.yul\":566:655   */\n      tag_41\n      jump\t// in\n    tag_40:\n        /* \"#utility.yul\":559:655   */\n      swap4\n      pop\n        /* \"#utility.yul\":664:716   */\n      tag_42\n        /* \"#utility.yul\":709:715   */\n      dup2\n        /* \"#utility.yul\":704:707   */\n      dup6\n        /* \"#utility.yul\":697:701   */\n      0x20\n        /* \"#utility.yul\":690:695   */\n      dup7\n        /* \"#utility.yul\":686:702   */\n      add\n        /* \"#utility.yul\":664:716   */\n      tag_34\n      jump\t// in\n    tag_42:\n        /* \"#utility.yul\":741:747   */\n      dup1\n        /* \"#utility.yul\":736:739   */\n      dup5\n        /* \"#utility.yul\":732:748   */\n      add\n        /* \"#utility.yul\":725:748   */\n      swap2\n      pop\n        /* \"#utility.yul\":487:754   */\n      pop\n        /* \"#utility.yul\":377:754   */\n      swap3\n      swap2\n      pop\n      pop\n      jump\t// out\n        /* \"#utility.yul\":784:1629   */\n    tag_43:\n        /* \"#utility.yul\":887:890   */\n      0x00\n        /* \"#utility.yul\":924:929   */\n      dup2\n        /* \"#utility.yul\":918:930   */\n      sload\n        /* \"#utility.yul\":953:989   */\n      tag_45\n        /* \"#utility.yul\":979:988   */\n      dup2\n        /* \"#utility.yul\":953:989   */\n      tag_21\n      jump\t// in\n    tag_45:\n        /* \"#utility.yul\":1005:1094   */\n      tag_46\n        /* \"#utility.yul\":1087:1093   */\n      dup2\n        /* \"#utility.yul\":1082:1085   */\n      dup7\n        /* \"#utility.yul\":1005:1094   */\n      tag_41\n      jump\t// in\n    tag_46:\n        /* \"#utility.yul\":998:1094   */\n      swap5\n      pop\n        /* \"#utility.yul\":1125:1126   */\n      0x01\n        /* \"#utility.yul\":1114:1123   */\n      dup3\n        /* \"#utility.yul\":1110:1127   */\n      and\n        /* \"#utility.yul\":1141:1142   */\n      0x00\n        /* \"#utility.yul\":1136:1273   */\n      dup2\n      eq\n      tag_48\n      jumpi\n        /* \"#utility.yul\":1287:1288   */\n      0x01\n        /* \"#utility.yul\":1282:1623   */\n      dup2\n      eq\n      tag_49\n      jumpi\n        /* \"#utility.yul\":1103:1623   */\n      jump(tag_47)\n        /* \"#utility.yul\":1136:1273   */\n    tag_48:\n        /* \"#utility.yul\":1220:1224   */\n      0xff\n        /* \"#utility.yul\":1216:1225   */\n      not\n        /* \"#utility.yul\":1205:1214   */\n      dup4\n        /* \"#utility.yul\":1201:1226   */\n      and\n        /* \"#utility.yul\":1196:1199   */\n      dup7\n        /* \"#utility.yul\":1189:1227   */\n      mstore\n        /* \"#utility.yul\":1256:1262   */\n      dup2\n        /* \"#utility.yul\":1251:1254   */\n      dup7\n        /* \"#utility.yul\":1247:1263   */\n      add\n        /* \"#utility.yul\":1240:1263   */\n      swap4\n      pop\n        /* \"#utility.yul\":1136:1273   */\n      jump(tag_47)\n        /* \"#utility.yul\":1282:1623   */\n    tag_49:\n        /* \"#utility.yul\":1349:1387   */\n      tag_50\n        /* \"#utility.yul\":1381:1386   */\n      dup6\n        /* \"#utility.yul\":1349:1387   */\n      tag_51\n      jump\t// in\n    tag_50:\n        /* \"#utility.yul\":1409:1410   */\n      0x00\n        /* \"#utility.yul\":1423:1577   */\n    tag_52:\n        /* \"#utility.yul\":1437:1443   */\n      dup4\n        /* \"#utility.yul\":1434:1435   */\n      dup2\n        /* \"#utility.yul\":1431:1444   */\n      lt\n        /* \"#utility.yul\":1423:1577   */\n      iszero\n      tag_54\n      jumpi\n        /* \"#utility.yul\":1511:1518   */\n      dup2\n        /* \"#utility.yul\":1505:1519   */\n      sload\n        /* \"#utility.yul\":1501:1502   */\n      dup2\n        /* \"#utility.yul\":1496:1499   */\n      dup10\n        /* \"#utility.yul\":1492:1503   */\n      add\n        /* \"#utility.yul\":1485:1520   */\n      mstore\n        /* \"#utility.yul\":1561:1562   */\n      0x01\n        /* \"#utility.yul\":1552:1559   */\n      dup3\n        /* \"#utility.yul\":1548:1563   */\n      add\n        /* \"#utility.yul\":1537:1563   */\n      swap2\n      pop\n        /* \"#utility.yul\":1459:1463   */\n      0x20\n        /* \"#utility.yul\":1456:1457   */\n      dup2\n        /* \"#utility.yul\":1452:1464   */\n      add\n        /* \"#utility.yul\":1447:1464   */\n      swap1\n      pop\n        /* \"#utility.yul\":1423:1577   */\n      jump(tag_52)\n    tag_54:\n        /* \"#utility.yul\":1606:1612   */\n      dup4\n        /* \"#utility.yul\":1601:1604   */\n      dup9\n        /* \"#utility.yul\":1597:1613   */\n      add\n        /* \"#utility.yul\":1590:1613   */\n      swap6\n      pop\n        /* \"#utility.yul\":1289:1623   */\n      pop\n      pop\n        /* \"#utility.yul\":1103:1623   */\n    tag_47:\n      pop\n        /* \"#utility.yul\":891:1629   */\n      pop\n      pop\n        /* \"#utility.yul\":784:1629   */\n      swap3\n      swap2\n      pop\n      pop\n      jump\t// out\n        /* \"#utility.yul\":1635:2035   */\n    tag_55:\n        /* \"#utility.yul\":1795:1798   */\n      0x00\n        /* \"#utility.yul\":1816:1900   */\n      tag_57\n        /* \"#utility.yul\":1898:1899   */\n      0x08\n        /* \"#utility.yul\":1893:1896   */\n      dup4\n        /* \"#utility.yul\":1816:1900   */\n      tag_41\n      jump\t// in\n    tag_57:\n        /* \"#utility.yul\":1809:1900   */\n      swap2\n      pop\n        /* \"#utility.yul\":1909:2002   */\n      tag_58\n        /* \"#utility.yul\":1998:2001   */\n      dup3\n        /* \"#utility.yul\":1909:2002   */\n      tag_59\n      jump\t// in\n    tag_58:\n        /* \"#utility.yul\":2027:2028   */\n      0x08\n        /* \"#utility.yul\":2022:2025   */\n      dup3\n        /* \"#utility.yul\":2018:2029   */\n      add\n        /* \"#utility.yul\":2011:2029   */\n      swap1\n      pop\n        /* \"#utility.yul\":1635:2035   */\n      swap2\n      swap1\n      pop\n      jump\t// out\n        /* \"#utility.yul\":2041:2159   */\n    tag_60:\n        /* \"#utility.yul\":2128:2152   */\n      tag_62\n        /* \"#utility.yul\":2146:2151   */\n      dup2\n        /* \"#utility.yul\":2128:2152   */\n      tag_63\n      jump\t// in\n    tag_62:\n        /* \"#utility.yul\":2123:2126   */\n      dup3\n        /* \"#utility.yul\":2116:2153   */\n      mstore\n        /* \"#utility.yul\":2041:2159   */\n      pop\n      pop\n      jump\t// out\n        /* \"#utility.yul\":2165:2860   */\n    tag_19:\n        /* \"#utility.yul\":2443:2446   */\n      0x00\n        /* \"#utility.yul\":2465:2557   */\n      tag_65\n        /* \"#utility.yul\":2553:2556   */\n      dup3\n        /* \"#utility.yul\":2544:2550   */\n      dup6\n        /* \"#utility.yul\":2465:2557   */\n      tag_43\n      jump\t// in\n    tag_65:\n        /* \"#utility.yul\":2458:2557   */\n      swap2\n      pop\n        /* \"#utility.yul\":2574:2669   */\n      tag_66\n        /* \"#utility.yul\":2665:2668   */\n      dup3\n        /* \"#utility.yul\":2656:2662   */\n      dup5\n        /* \"#utility.yul\":2574:2669   */\n      tag_37\n      jump\t// in\n    tag_66:\n        /* \"#utility.yul\":2567:2669   */\n      swap2\n      pop\n        /* \"#utility.yul\":2686:2834   */\n      tag_67\n        /* \"#utility.yul\":2830:2833   */\n      dup3\n        /* \"#utility.yul\":2686:2834   */\n      tag_55\n      jump\t// in\n    tag_67:\n        /* \"#utility.yul\":2679:2834   */\n      swap2\n      pop\n        /* \"#utility.yul\":2851:2854   */\n      dup2\n        /* \"#utility.yul\":2844:2854   */\n      swap1\n      pop\n        /* \"#utility.yul\":2165:2860   */\n      swap4\n      swap3\n      pop\n      pop\n      pop\n      jump\t// out\n        /* \"#utility.yul\":2866:3179   */\n    tag_9:\n        /* \"#utility.yul\":2979:2983   */\n      0x00\n        /* \"#utility.yul\":3017:3019   */\n      0x20\n        /* \"#utility.yul\":3006:3015   */\n      dup3\n        /* \"#utility.yul\":3002:3020   */\n      add\n        /* \"#utility.yul\":2994:3020   */\n      swap1\n      pop\n        /* \"#utility.yul\":3066:3075   */\n      dup2\n        /* \"#utility.yul\":3060:3064   */\n      dup2\n        /* \"#utility.yul\":3056:3076   */\n      sub\n        /* \"#utility.yul\":3052:3053   */\n      0x00\n        /* \"#utility.yul\":3041:3050   */\n      dup4\n        /* \"#utility.yul\":3037:3054   */\n      add\n        /* \"#utility.yul\":3030:3077   */\n      mstore\n        /* \"#utility.yul\":3094:3172   */\n      tag_69\n        /* \"#utility.yul\":3167:3171   */\n      dup2\n        /* \"#utility.yul\":3158:3164   */\n      dup5\n        /* \"#utility.yul\":3094:3172   */\n      tag_27\n      jump\t// in\n    tag_69:\n        /* \"#utility.yul\":3086:3172   */\n      swap1\n      pop\n        /* \"#utility.yul\":2866:3179   */\n      swap3\n      swap2\n      pop\n      pop\n      jump\t// out\n        /* \"#utility.yul\":3185:3407   */\n    tag_16:\n        /* \"#utility.yul\":3278:3282   */\n      0x00\n        /* \"#utility.yul\":3316:3318   */\n      0x20\n        /* \"#utility.yul\":3305:3314   */\n      dup3\n        /* \"#utility.yul\":3301:3319   */\n      add\n        /* \"#utility.yul\":3293:3319   */\n      swap1\n      pop\n        /* \"#utility.yul\":3329:3400   */\n      tag_71\n        /* \"#utility.yul\":3397:3398   */\n      0x00\n        /* \"#utility.yul\":3386:3395   */\n      dup4\n        /* \"#utility.yul\":3382:3399   */\n      add\n        /* \"#utility.yul\":3373:3379   */\n      dup5\n        /* \"#utility.yul\":3329:3400   */\n      tag_60\n      jump\t// in\n    tag_71:\n        /* \"#utility.yul\":3185:3407   */\n      swap3\n      swap2\n      pop\n      pop\n      jump\t// out\n        /* \"#utility.yul\":3413:3554   */\n    tag_51:\n        /* \"#utility.yul\":3462:3466   */\n      0x00\n        /* \"#utility.yul\":3485:3488   */\n      dup2\n        /* \"#utility.yul\":3477:3488   */\n      swap1\n      pop\n        /* \"#utility.yul\":3508:3511   */\n      dup2\n        /* \"#utility.yul\":3505:3506   */\n      0x00\n        /* \"#utility.yul\":3498:3512   */\n      mstore\n        /* \"#utility.yul\":3542:3546   */\n      0x20\n        /* \"#utility.yul\":3539:3540   */\n      0x00\n        /* \"#utility.yul\":3529:3547   */\n      keccak256\n        /* \"#utility.yul\":3521:3547   */\n      swap1\n      pop\n        /* \"#utility.yul\":3413:3554   */\n      swap2\n      swap1\n      pop\n      jump\t// out\n        /* \"#utility.yul\":3560:3659   */\n    tag_30:\n        /* \"#utility.yul\":3612:3618   */\n      0x00\n        /* \"#utility.yul\":3646:3651   */\n      dup2\n        /* \"#utility.yul\":3640:3652   */\n      mload\n        /* \"#utility.yul\":3630:3652   */\n      swap1\n      pop\n        /* \"#utility.yul\":3560:3659   */\n      swap2\n      swap1\n      pop\n      jump\t// out\n        /* \"#utility.yul\":3665:3834   */\n    tag_32:\n        /* \"#utility.yul\":3749:3760   */\n      0x00\n        /* \"#utility.yul\":3783:3789   */\n      dup3\n        /* \"#utility.yul\":3778:3781   */\n      dup3\n        /* \"#utility.yul\":3771:3790   */\n      mstore\n        /* \"#utility.yul\":3823:3827   */\n      0x20\n        /* \"#utility.yul\":3818:3821   */\n      dup3\n        /* \"#utility.yul\":3814:3828   */\n      add\n        /* \"#utility.yul\":3799:3828   */\n      swap1\n      pop\n        /* \"#utility.yul\":3665:3834   */\n      swap3\n      swap2\n      pop\n      pop\n      jump\t// out\n        /* \"#utility.yul\":3840:3988   */\n    tag_41:\n        /* \"#utility.yul\":3942:3953   */\n      0x00\n        /* \"#utility.yul\":3979:3982   */\n      dup2\n        /* \"#utility.yul\":3964:3982   */\n      swap1\n      pop\n        /* \"#utility.yul\":3840:3988   */\n      swap3\n      swap2\n      pop\n      pop\n      jump\t// out\n        /* \"#utility.yul\":3994:4071   */\n    tag_63:\n        /* \"#utility.yul\":4031:4038   */\n      0x00\n        /* \"#utility.yul\":4060:4065   */\n      dup2\n        /* \"#utility.yul\":4049:4065   */\n      swap1\n      pop\n        /* \"#utility.yul\":3994:4071   */\n      swap2\n      swap1\n      pop\n      jump\t// out\n        /* \"#utility.yul\":4077:4384   */\n    tag_34:\n        /* \"#utility.yul\":4145:4146   */\n      0x00\n        /* \"#utility.yul\":4155:4268   */\n    tag_78:\n        /* \"#utility.yul\":4169:4175   */\n      dup4\n        /* \"#utility.yul\":4166:4167   */\n      dup2\n        /* \"#utility.yul\":4163:4176   */\n      lt\n        /* \"#utility.yul\":4155:4268   */\n      iszero\n      tag_80\n      jumpi\n        /* \"#utility.yul\":4254:4255   */\n      dup1\n        /* \"#utility.yul\":4249:4252   */\n      dup3\n        /* \"#utility.yul\":4245:4256   */\n      add\n        /* \"#utility.yul\":4239:4257   */\n      mload\n        /* \"#utility.yul\":4235:4236   */\n      dup2\n        /* \"#utility.yul\":4230:4233   */\n      dup5\n        /* \"#utility.yul\":4226:4237   */\n      add\n        /* \"#utility.yul\":4219:4258   */\n      mstore\n        /* \"#utility.yul\":4191:4193   */\n      0x20\n        /* \"#utility.yul\":4188:4189   */\n      dup2\n        /* \"#utility.yul\":4184:4194   */\n      add\n        /* \"#utility.yul\":4179:4194   */\n      swap1\n      pop\n        /* \"#utility.yul\":4155:4268   */\n      jump(tag_78)\n    tag_80:\n        /* \"#utility.yul\":4286:4292   */\n      dup4\n        /* \"#utility.yul\":4283:4284   */\n      dup2\n        /* \"#utility.yul\":4280:4293   */\n      gt\n        /* \"#utility.yul\":4277:4378   */\n      iszero\n      tag_81\n      jumpi\n        /* \"#utility.yul\":4366:4367   */\n      0x00\n        /* \"#utility.yul\":4357:4363   */\n      dup5\n        /* \"#utility.yul\":4352:4355   */\n      dup5\n        /* \"#utility.yul\":4348:4364   */\n      add\n        /* \"#utility.yul\":4341:4368   */\n      mstore\n        /* \"#utility.yul\":4277:4378   */\n    tag_81:\n        /* \"#utility.yul\":4126:4384   */\n      pop\n        /* \"#utility.yul\":4077:4384   */\n      pop\n      pop\n      pop\n      jump\t// out\n        /* \"#utility.yul\":4390:4710   */\n    tag_21:\n        /* \"#utility.yul\":4434:4440   */\n      0x00\n        /* \"#utility.yul\":4471:4472   */\n      0x02\n        /* \"#utility.yul\":4465:4469   */\n      dup3\n        /* \"#utility.yul\":4461:4473   */\n      div\n        /* \"#utility.yul\":4451:4473   */\n      swap1\n      pop\n        /* \"#utility.yul\":4518:4519   */\n      0x01\n        /* \"#utility.yul\":4512:4516   */\n      dup3\n        /* \"#utility.yul\":4508:4520   */\n      and\n        /* \"#utility.yul\":4539:4557   */\n      dup1\n        /* \"#utility.yul\":4529:4610   */\n      tag_83\n      jumpi\n        /* \"#utility.yul\":4595:4599   */\n      0x7f\n        /* \"#utility.yul\":4587:4593   */\n      dup3\n        /* \"#utility.yul\":4583:4600   */\n      and\n        /* \"#utility.yul\":4573:4600   */\n      swap2\n      pop\n        /* \"#utility.yul\":4529:4610   */\n    tag_83:\n        /* \"#utility.yul\":4657:4659   */\n      0x20\n        /* \"#utility.yul\":4649:4655   */\n      dup3\n        /* \"#utility.yul\":4646:4660   */\n      lt\n        /* \"#utility.yul\":4626:4644   */\n      dup2\n        /* \"#utility.yul\":4623:4661   */\n      eq\n        /* \"#utility.yul\":4620:4704   */\n      iszero\n      tag_84\n      jumpi\n        /* \"#utility.yul\":4676:4694   */\n      tag_85\n      tag_86\n      jump\t// in\n    tag_85:\n        /* \"#utility.yul\":4620:4704   */\n    tag_84:\n        /* \"#utility.yul\":4441:4710   */\n      pop\n        /* \"#utility.yul\":4390:4710   */\n      swap2\n      swap1\n      pop\n      jump\t// out\n        /* \"#utility.yul\":4716:4896   */\n    tag_86:\n        /* \"#utility.yul\":4764:4841   */\n      0x4e487b7100000000000000000000000000000000000000000000000000000000\n        /* \"#utility.yul\":4761:4762   */\n      0x00\n        /* \"#utility.yul\":4754:4842   */\n      mstore\n        /* \"#utility.yul\":4861:4865   */\n      0x22\n        /* \"#utility.yul\":4858:4859   */\n      0x04\n        /* \"#utility.yul\":4851:4866   */\n      mstore\n        /* \"#utility.yul\":4885:4889   */\n      0x24\n        /* \"#utility.yul\":4882:4883   */\n      0x00\n        /* \"#utility.yul\":4875:4890   */\n      revert\n        /* \"#utility.yul\":4902:5004   */\n    tag_36:\n        /* \"#utility.yul\":4943:4949   */\n      0x00\n        /* \"#utility.yul\":4994:4996   */\n      0x1f\n        /* \"#utility.yul\":4990:4997   */\n      not\n        /* \"#utility.yul\":4985:4987   */\n      0x1f\n        /* \"#utility.yul\":4978:4983   */\n      dup4\n        /* \"#utility.yul\":4974:4988   */\n      add\n        /* \"#utility.yul\":4970:4998   */\n      and\n        /* \"#utility.yul\":4960:4998   */\n      swap1\n      pop\n        /* \"#utility.yul\":4902:5004   */\n      swap2\n      swap1\n      pop\n      jump\t// out\n        /* \"#utility.yul\":5010:5168   */\n    tag_59:\n        /* \"#utility.yul\":5150:5160   */\n      0x2053656374696f6e000000000000000000000000000000000000000000000000\n        /* \"#utility.yul\":5146:5147   */\n      0x00\n        /* \"#utility.yul\":5138:5144   */\n      dup3\n        /* \"#utility.yul\":5134:5148   */\n      add\n        /* \"#utility.yul\":5127:5161   */\n      mstore\n        /* \"#utility.yul\":5010:5168   */\n      pop\n      jump\t// out\n\n    auxdata: 0xa26469706673582212207b0c2a47520461177aabddc90f23a2af0a9a11ba2b476d173db1f579b971b35464736f6c63430008070033\n}\n",
				"bytecode": {
					"linkReferences": {},
					"object": "60806040527f596176757a20696c68616e0000000000000000000000000000000000000000006004556040518060400160405280600b81526020017f596176757a20696c68616e000000000000000000000000000000000000000000815250600590805190602001906200007592919062000300565b506040518060400160405280600b81526020017f596176757a20696c68616e00000000000000000000000000000000000000000081525060069080519060200190620000c392919062000391565b5060405180608001604052806040518060400160405280600581526020017f596176757a00000000000000000000000000000000000000000000000000000081525081526020016040518060400160405280600581526020017f696c68616e00000000000000000000000000000000000000000000000000000081525081526020016040518060400160405280600581526020017f41686d657400000000000000000000000000000000000000000000000000000081525081526020016040518060400160405280600481526020017f56656c69000000000000000000000000000000000000000000000000000000008152508152506007906004620001cb92919062000422565b506040518060a00160405280600160ff168152602001600260ff168152602001600360ff168152602001600460ff168152602001600560ff1681525060089060056200021992919062000489565b506040518060400160405280600e81526020017f426c6f636b636861696e20446576000000000000000000000000000000000000815250600a90805190602001906200026792919062000300565b506001600b55633b9aca00600c55670de0b6b3a7640000600d556001600e55603c600f55610e106010556201518060115562093a80601255436013554560145533601560006101000a81548173ffffffffffffffffffffffffffffffffffffffff021916908373ffffffffffffffffffffffffffffffffffffffff1602179055503a601655348015620002f957600080fd5b50620005d2565b8280546200030e906200056d565b90600052602060002090601f0160209004810192826200033257600085556200037e565b82601f106200034d57805160ff19168380011785556200037e565b828001600101855582156200037e579182015b828111156200037d57825182559160200191906001019062000360565b5b5090506200038d9190620004e0565b5090565b8280546200039f906200056d565b90600052602060002090601f016020900481019282620003c357600085556200040f565b82601f10620003de57805160ff19168380011785556200040f565b828001600101855582156200040f579182015b828111156200040e578251825591602001919060010190620003f1565b5b5090506200041e9190620004e0565b5090565b82805482825590600052602060002090810192821562000476579160200282015b82811115620004755782518290805190602001906200046492919062000300565b509160200191906001019062000443565b5b509050620004859190620004ff565b5090565b828054828255906000526020600020908101928215620004cd579160200282015b82811115620004cc578251829060ff16905591602001919060010190620004aa565b5b509050620004dc9190620004e0565b5090565b5b80821115620004fb576000816000905550600101620004e1565b5090565b5b8082111562000523576000818162000519919062000527565b5060010162000500565b5090565b50805462000535906200056d565b6000825580601f106200054957506200056a565b601f016020900490600052602060002090810190620005699190620004e0565b5b50565b600060028204905060018216806200058657607f821691505b602082108114156200059d576200059c620005a3565b5b50919050565b7f4e487b7100000000000000000000000000000000000000000000000000000000600052602260045260246000fd5b61046a80620005e26000396000f3fe608060405234801561001057600080fd5b50600436106100415760003560e01c8063a3277eb114610046578063dcf6359114610064578063fe173b9714610082575b600080fd5b61004e6100a0565b60405161005b91906102e3565b60405180910390f35b61006c610105565b60405161007991906102e3565b60405180910390f35b61008a610193565b6040516100979190610305565b60405180910390f35b606060006040518060400160405280600781526020017f20436f75727365000000000000000000000000000000000000000000000000008152509050600a816040516020016100f09291906102b4565b60405160208183030381529060405291505090565b600a805461011290610399565b80601f016020809104026020016040519081016040528092919081815260200182805461013e90610399565b801561018b5780601f106101605761010080835404028352916020019161018b565b820191906000526020600020905b81548152906001019060200180831161016e57829003601f168201915b505050505081565b60165481565b60006101a482610335565b6101ae8185610340565b93506101be818560208601610366565b6101c7816103fa565b840191505092915050565b60006101dd82610335565b6101e78185610351565b93506101f7818560208601610366565b80840191505092915050565b6000815461021081610399565b61021a8186610351565b94506001821660008114610235576001811461024657610279565b60ff19831686528186019350610279565b61024f85610320565b60005b8381101561027157815481890152600182019150602081019050610252565b838801955050505b50505092915050565b600061028f600883610351565b915061029a8261040b565b600882019050919050565b6102ae8161035c565b82525050565b60006102c08285610203565b91506102cc82846101d2565b91506102d782610282565b91508190509392505050565b600060208201905081810360008301526102fd8184610199565b905092915050565b600060208201905061031a60008301846102a5565b92915050565b60008190508160005260206000209050919050565b600081519050919050565b600082825260208201905092915050565b600081905092915050565b6000819050919050565b60005b83811015610384578082015181840152602081019050610369565b83811115610393576000848401525b50505050565b600060028204905060018216806103b157607f821691505b602082108114156103c5576103c46103cb565b5b50919050565b7f4e487b7100000000000000000000000000000000000000000000000000000000600052602260045260246000fd5b6000601f19601f8301169050919050565b7f2053656374696f6e00000000000000000000000000000000000000000000000060008201525056fea26469706673582212207b0c2a47520461177aabddc90f23a2af0a9a11ba2b476d173db1f579b971b35464736f6c63430008070033",
					"opcodes": "PUSH1 0x80 PUSH1 0x40 MSTORE PUSH32 0x596176757A20696C68616E000000000000000000000000000000000000000000 PUSH1 0x4 SSTORE PUSH1 0x40 MLOAD DUP1 PUSH1 0x40 ADD PUSH1 0x40 MSTORE DUP1 PUSH1 0xB DUP2 MSTORE PUSH1 0x20 ADD PUSH32 0x596176757A20696C68616E000000000000000000000000000000000000000000 DUP2 MSTORE POP PUSH1 0x5 SWAP1 DUP1 MLOAD SWAP1 PUSH1 0x20 ADD SWAP1 PUSH3 0x75 SWAP3 SWAP2 SWAP1 PUSH3 0x300 JUMP JUMPDEST POP PUSH1 0x40 MLOAD DUP1 PUSH1 0x40 ADD PUSH1 0x40 MSTORE DUP1 PUSH1 0xB DUP2 MSTORE PUSH1 0x20 ADD PUSH32 0x596176757A20696C68616E000000000000000000000000000000000000000000 DUP2 MSTORE POP PUSH1 0x6 SWAP1 DUP1 MLOAD SWAP1 PUSH1 0x20 ADD SWAP1 PUSH3 0xC3 SWAP3 SWAP2 SWAP1 PUSH3 0x391 JUMP JUMPDEST POP PUSH1 0x40 MLOAD DUP1 PUSH1 0x80 ADD PUSH1 0x40 MSTORE DUP1 PUSH1 0x40 MLOAD DUP1 PUSH1 0x40 ADD PUSH1 0x40 MSTORE DUP1 PUSH1 0x5 DUP2 MSTORE PUSH1 0x20 ADD PUSH32 0x596176757A000000000000000000000000000000000000000000000000000000 DUP2 MSTORE POP DUP2 MSTORE PUSH1 0x20 ADD PUSH1 0x40 MLOAD DUP1 PUSH1 0x40 ADD PUSH1 0x40 MSTORE DUP1 PUSH1 0x5 DUP2 MSTORE PUSH1 0x20 ADD PUSH32 0x696C68616E000000000000000000000000000000000000000000000000000000 DUP2 MSTORE POP DUP2 MSTORE PUSH1 0x20 ADD PUSH1 0x40 MLOAD DUP1 PUSH1 0x40 ADD PUSH1 0x40 MSTORE DUP1 PUSH1 0x5 DUP2 MSTORE PUSH1 0x20 ADD PUSH32 0x41686D6574000000000000000000000000000000000000000000000000000000 DUP2 MSTORE POP DUP2 MSTORE PUSH1 0x20 ADD PUSH1 0x40 MLOAD DUP1 PUSH1 0x40 ADD PUSH1 0x40 MSTORE DUP1 PUSH1 0x4 DUP2 MSTORE PUSH1 0x20 ADD PUSH32 0x56656C6900000000000000000000000000000000000000000000000000000000 DUP2 MSTORE POP DUP2 MSTORE POP PUSH1 0x7 SWAP1 PUSH1 0x4 PUSH3 0x1CB SWAP3 SWAP2 SWAP1 PUSH3 0x422 JUMP JUMPDEST POP PUSH1 0x40 MLOAD DUP1 PUSH1 0xA0 ADD PUSH1 0x40 MSTORE DUP1 PUSH1 0x1 PUSH1 0xFF AND DUP2 MSTORE PUSH1 0x20 ADD PUSH1 0x2 PUSH1 0xFF AND DUP2 MSTORE PUSH1 0x20 ADD PUSH1 0x3 PUSH1 0xFF AND DUP2 MSTORE PUSH1 0x20 ADD PUSH1 0x4 PUSH1 0xFF AND DUP2 MSTORE PUSH1 0x20 ADD PUSH1 0x5 PUSH1 0xFF AND DUP2 MSTORE POP PUSH1 0x8 SWAP1 PUSH1 0x5 PUSH3 0x219 SWAP3 SWAP2 SWAP1 PUSH3 0x489 JUMP JUMPDEST POP PUSH1 0x40 MLOAD DUP1 PUSH1 0x40 ADD PUSH1 0x40 MSTORE DUP1 PUSH1 0xE DUP2 MSTORE PUSH1 0x20 ADD PUSH32 0x426C6F636B636861696E20446576000000000000000000000000000000000000 DUP2 MSTORE POP PUSH1 0xA SWAP1 DUP1 MLOAD SWAP1 PUSH1 0x20 ADD SWAP1 PUSH3 0x267 SWAP3 SWAP2 SWAP1 PUSH3 0x300 JUMP JUMPDEST POP PUSH1 0x1 PUSH1 0xB SSTORE PUSH4 0x3B9ACA00 PUSH1 0xC SSTORE PUSH8 0xDE0B6B3A7640000 PUSH1 0xD SSTORE PUSH1 0x1 PUSH1 0xE SSTORE PUSH1 0x3C PUSH1 0xF SSTORE PUSH2 0xE10 PUSH1 0x10 SSTORE PUSH3 0x15180 PUSH1 0x11 SSTORE PUSH3 0x93A80 PUSH1 0x12 SSTORE NUMBER PUSH1 0x13 SSTORE GASLIMIT PUSH1 0x14 SSTORE CALLER PUSH1 0x15 PUSH1 0x0 PUSH2 0x100 EXP DUP2 SLOAD DUP2 PUSH20 0xFFFFFFFFFFFFFFFFFFFFFFFFFFFFFFFFFFFFFFFF MUL NOT AND SWAP1 DUP4 PUSH20 0xFFFFFFFFFFFFFFFFFFFFFFFFFFFFFFFFFFFFFFFF AND MUL OR SWAP1 SSTORE POP GASPRICE PUSH1 0x16 SSTORE CALLVALUE DUP1 ISZERO PUSH3 0x2F9 JUMPI PUSH1 0x0 DUP1 REVERT JUMPDEST POP PUSH3 0x5D2 JUMP JUMPDEST DUP3 DUP1 SLOAD PUSH3 0x30E SWAP1 PUSH3 0x56D JUMP JUMPDEST SWAP1 PUSH1 0x0 MSTORE PUSH1 0x20 PUSH1 0x0 KECCAK256 SWAP1 PUSH1 0x1F ADD PUSH1 0x20 SWAP1 DIV DUP2 ADD SWAP3 DUP3 PUSH3 0x332 JUMPI PUSH1 0x0 DUP6 SSTORE PUSH3 0x37E JUMP JUMPDEST DUP3 PUSH1 0x1F LT PUSH3 0x34D JUMPI DUP1 MLOAD PUSH1 0xFF NOT AND DUP4 DUP1 ADD OR DUP6 SSTORE PUSH3 0x37E JUMP JUMPDEST DUP3 DUP1 ADD PUSH1 0x1 ADD DUP6 SSTORE DUP3 ISZERO PUSH3 0x37E JUMPI SWAP2 DUP3 ADD JUMPDEST DUP3 DUP2 GT ISZERO PUSH3 0x37D JUMPI DUP3 MLOAD DUP3 SSTORE SWAP2 PUSH1 0x20 ADD SWAP2 SWAP1 PUSH1 0x1 ADD SWAP1 PUSH3 0x360 JUMP JUMPDEST JUMPDEST POP SWAP1 POP PUSH3 0x38D SWAP2 SWAP1 PUSH3 0x4E0 JUMP JUMPDEST POP SWAP1 JUMP JUMPDEST DUP3 DUP1 SLOAD PUSH3 0x39F SWAP1 PUSH3 0x56D JUMP JUMPDEST SWAP1 PUSH1 0x0 MSTORE PUSH1 0x20 PUSH1 0x0 KECCAK256 SWAP1 PUSH1 0x1F ADD PUSH1 0x20 SWAP1 DIV DUP2 ADD SWAP3 DUP3 PUSH3 0x3C3 JUMPI PUSH1 0x0 DUP6 SSTORE PUSH3 0x40F JUMP JUMPDEST DUP3 PUSH1 0x1F LT PUSH3 0x3DE JUMPI DUP1 MLOAD PUSH1 0xFF NOT AND DUP4 DUP1 ADD OR DUP6 SSTORE PUSH3 0x40F JUMP JUMPDEST DUP3 DUP1 ADD PUSH1 0x1 ADD DUP6 SSTORE DUP3 ISZERO PUSH3 0x40F JUMPI SWAP2 DUP3 ADD JUMPDEST DUP3 DUP2 GT ISZERO PUSH3 0x40E JUMPI DUP3 MLOAD DUP3 SSTORE SWAP2 PUSH1 0x20 ADD SWAP2 SWAP1 PUSH1 0x1 ADD SWAP1 PUSH3 0x3F1 JUMP JUMPDEST JUMPDEST POP SWAP1 POP PUSH3 0x41E SWAP2 SWAP1 PUSH3 0x4E0 JUMP JUMPDEST POP SWAP1 JUMP JUMPDEST DUP3 DUP1 SLOAD DUP3 DUP3 SSTORE SWAP1 PUSH1 0x0 MSTORE PUSH1 0x20 PUSH1 0x0 KECCAK256 SWAP1 DUP2 ADD SWAP3 DUP3 ISZERO PUSH3 0x476 JUMPI SWAP2 PUSH1 0x20 MUL DUP3 ADD JUMPDEST DUP3 DUP2 GT ISZERO PUSH3 0x475 JUMPI DUP3 MLOAD DUP3 SWAP1 DUP1 MLOAD SWAP1 PUSH1 0x20 ADD SWAP1 PUSH3 0x464 SWAP3 SWAP2 SWAP1 PUSH3 0x300 JUMP JUMPDEST POP SWAP2 PUSH1 0x20 ADD SWAP2 SWAP1 PUSH1 0x1 ADD SWAP1 PUSH3 0x443 JUMP JUMPDEST JUMPDEST POP SWAP1 POP PUSH3 0x485 SWAP2 SWAP1 PUSH3 0x4FF JUMP JUMPDEST POP SWAP1 JUMP JUMPDEST DUP3 DUP1 SLOAD DUP3 DUP3 SSTORE SWAP1 PUSH1 0x0 MSTORE PUSH1 0x20 PUSH1 0x0 KECCAK256 SWAP1 DUP2 ADD SWAP3 DUP3 ISZERO PUSH3 0x4CD JUMPI SWAP2 PUSH1 0x20 MUL DUP3 ADD JUMPDEST DUP3 DUP2 GT ISZERO PUSH3 0x4CC JUMPI DUP3 MLOAD DUP3 SWAP1 PUSH1 0xFF AND SWAP1 SSTORE SWAP2 PUSH1 0x20 ADD SWAP2 SWAP1 PUSH1 0x1 ADD SWAP1 PUSH3 0x4AA JUMP JUMPDEST JUMPDEST POP SWAP1 POP PUSH3 0x4DC SWAP2 SWAP1 PUSH3 0x4E0 JUMP JUMPDEST POP SWAP1 JUMP JUMPDEST JUMPDEST DUP1 DUP3 GT ISZERO PUSH3 0x4FB JUMPI PUSH1 0x0 DUP2 PUSH1 0x0 SWAP1 SSTORE POP PUSH1 0x1 ADD PUSH3 0x4E1 JUMP JUMPDEST POP SWAP1 JUMP JUMPDEST JUMPDEST DUP1 DUP3 GT ISZERO PUSH3 0x523 JUMPI PUSH1 0x0 DUP2 DUP2 PUSH3 0x519 SWAP2 SWAP1 PUSH3 0x527 JUMP JUMPDEST POP PUSH1 0x1 ADD PUSH3 0x500 JUMP JUMPDEST POP SWAP1 JUMP JUMPDEST POP DUP1 SLOAD PUSH3 0x535 SWAP1 PUSH3 0x56D JUMP JUMPDEST PUSH1 0x0 DUP3 SSTORE DUP1 PUSH1 0x1F LT PUSH3 0x549 JUMPI POP PUSH3 0x56A JUMP JUMPDEST PUSH1 0x1F ADD PUSH1 0x20 SWAP1 DIV SWAP1 PUSH1 0x0 MSTORE PUSH1 0x20 PUSH1 0x0 KECCAK256 SWAP1 DUP2 ADD SWAP1 PUSH3 0x569 SWAP2 SWAP1 PUSH3 0x4E0 JUMP JUMPDEST JUMPDEST POP JUMP JUMPDEST PUSH1 0x0 PUSH1 0x2 DUP3 DIV SWAP1 POP PUSH1 0x1 DUP3 AND DUP1 PUSH3 0x586 JUMPI PUSH1 0x7F DUP3 AND SWAP2 POP JUMPDEST PUSH1 0x20 DUP3 LT DUP2 EQ ISZERO PUSH3 0x59D JUMPI PUSH3 0x59C PUSH3 0x5A3 JUMP JUMPDEST JUMPDEST POP SWAP2 SWAP1 POP JUMP JUMPDEST PUSH32 0x4E487B7100000000000000000000000000000000000000000000000000000000 PUSH1 0x0 MSTORE PUSH1 0x22 PUSH1 0x4 MSTORE PUSH1 0x24 PUSH1 0x0 REVERT JUMPDEST PUSH2 0x46A DUP1 PUSH3 0x5E2 PUSH1 0x0 CODECOPY PUSH1 0x0 RETURN INVALID PUSH1 0x80 PUSH1 0x40 MSTORE CALLVALUE DUP1 ISZERO PUSH2 0x10 JUMPI PUSH1 0x0 DUP1 REVERT JUMPDEST POP PUSH1 0x4 CALLDATASIZE LT PUSH2 0x41 JUMPI PUSH1 0x0 CALLDATALOAD PUSH1 0xE0 SHR DUP1 PUSH4 0xA3277EB1 EQ PUSH2 0x46 JUMPI DUP1 PUSH4 0xDCF63591 EQ PUSH2 0x64 JUMPI DUP1 PUSH4 0xFE173B97 EQ PUSH2 0x82 JUMPI JUMPDEST PUSH1 0x0 DUP1 REVERT JUMPDEST PUSH2 0x4E PUSH2 0xA0 JUMP JUMPDEST PUSH1 0x40 MLOAD PUSH2 0x5B SWAP2 SWAP1 PUSH2 0x2E3 JUMP JUMPDEST PUSH1 0x40 MLOAD DUP1 SWAP2 SUB SWAP1 RETURN JUMPDEST PUSH2 0x6C PUSH2 0x105 JUMP JUMPDEST PUSH1 0x40 MLOAD PUSH2 0x79 SWAP2 SWAP1 PUSH2 0x2E3 JUMP JUMPDEST PUSH1 0x40 MLOAD DUP1 SWAP2 SUB SWAP1 RETURN JUMPDEST PUSH2 0x8A PUSH2 0x193 JUMP JUMPDEST PUSH1 0x40 MLOAD PUSH2 0x97 SWAP2 SWAP1 PUSH2 0x305 JUMP JUMPDEST PUSH1 0x40 MLOAD DUP1 SWAP2 SUB SWAP1 RETURN JUMPDEST PUSH1 0x60 PUSH1 0x0 PUSH1 0x40 MLOAD DUP1 PUSH1 0x40 ADD PUSH1 0x40 MSTORE DUP1 PUSH1 0x7 DUP2 MSTORE PUSH1 0x20 ADD PUSH32 0x20436F7572736500000000000000000000000000000000000000000000000000 DUP2 MSTORE POP SWAP1 POP PUSH1 0xA DUP2 PUSH1 0x40 MLOAD PUSH1 0x20 ADD PUSH2 0xF0 SWAP3 SWAP2 SWAP1 PUSH2 0x2B4 JUMP JUMPDEST PUSH1 0x40 MLOAD PUSH1 0x20 DUP2 DUP4 SUB SUB DUP2 MSTORE SWAP1 PUSH1 0x40 MSTORE SWAP2 POP POP SWAP1 JUMP JUMPDEST PUSH1 0xA DUP1 SLOAD PUSH2 0x112 SWAP1 PUSH2 0x399 JUMP JUMPDEST DUP1 PUSH1 0x1F ADD PUSH1 0x20 DUP1 SWAP2 DIV MUL PUSH1 0x20 ADD PUSH1 0x40 MLOAD SWAP1 DUP2 ADD PUSH1 0x40 MSTORE DUP1 SWAP3 SWAP2 SWAP1 DUP2 DUP2 MSTORE PUSH1 0x20 ADD DUP3 DUP1 SLOAD PUSH2 0x13E SWAP1 PUSH2 0x399 JUMP JUMPDEST DUP1 ISZERO PUSH2 0x18B JUMPI DUP1 PUSH1 0x1F LT PUSH2 0x160 JUMPI PUSH2 0x100 DUP1 DUP4 SLOAD DIV MUL DUP4 MSTORE SWAP2 PUSH1 0x20 ADD SWAP2 PUSH2 0x18B JUMP JUMPDEST DUP3 ADD SWAP2 SWAP1 PUSH1 0x0 MSTORE PUSH1 0x20 PUSH1 0x0 KECCAK256 SWAP1 JUMPDEST DUP2 SLOAD DUP2 MSTORE SWAP1 PUSH1 0x1 ADD SWAP1 PUSH1 0x20 ADD DUP1 DUP4 GT PUSH2 0x16E JUMPI DUP3 SWAP1 SUB PUSH1 0x1F AND DUP3 ADD SWAP2 JUMPDEST POP POP POP POP POP DUP2 JUMP JUMPDEST PUSH1 0x16 SLOAD DUP2 JUMP JUMPDEST PUSH1 0x0 PUSH2 0x1A4 DUP3 PUSH2 0x335 JUMP JUMPDEST PUSH2 0x1AE DUP2 DUP6 PUSH2 0x340 JUMP JUMPDEST SWAP4 POP PUSH2 0x1BE DUP2 DUP6 PUSH1 0x20 DUP7 ADD PUSH2 0x366 JUMP JUMPDEST PUSH2 0x1C7 DUP2 PUSH2 0x3FA JUMP JUMPDEST DUP5 ADD SWAP2 POP POP SWAP3 SWAP2 POP POP JUMP JUMPDEST PUSH1 0x0 PUSH2 0x1DD DUP3 PUSH2 0x335 JUMP JUMPDEST PUSH2 0x1E7 DUP2 DUP6 PUSH2 0x351 JUMP JUMPDEST SWAP4 POP PUSH2 0x1F7 DUP2 DUP6 PUSH1 0x20 DUP7 ADD PUSH2 0x366 JUMP JUMPDEST DUP1 DUP5 ADD SWAP2 POP POP SWAP3 SWAP2 POP POP JUMP JUMPDEST PUSH1 0x0 DUP2 SLOAD PUSH2 0x210 DUP2 PUSH2 0x399 JUMP JUMPDEST PUSH2 0x21A DUP2 DUP7 PUSH2 0x351 JUMP JUMPDEST SWAP5 POP PUSH1 0x1 DUP3 AND PUSH1 0x0 DUP2 EQ PUSH2 0x235 JUMPI PUSH1 0x1 DUP2 EQ PUSH2 0x246 JUMPI PUSH2 0x279 JUMP JUMPDEST PUSH1 0xFF NOT DUP4 AND DUP7 MSTORE DUP2 DUP7 ADD SWAP4 POP PUSH2 0x279 JUMP JUMPDEST PUSH2 0x24F DUP6 PUSH2 0x320 JUMP JUMPDEST PUSH1 0x0 JUMPDEST DUP4 DUP2 LT ISZERO PUSH2 0x271 JUMPI DUP2 SLOAD DUP2 DUP10 ADD MSTORE PUSH1 0x1 DUP3 ADD SWAP2 POP PUSH1 0x20 DUP2 ADD SWAP1 POP PUSH2 0x252 JUMP JUMPDEST DUP4 DUP9 ADD SWAP6 POP POP POP JUMPDEST POP POP POP SWAP3 SWAP2 POP POP JUMP JUMPDEST PUSH1 0x0 PUSH2 0x28F PUSH1 0x8 DUP4 PUSH2 0x351 JUMP JUMPDEST SWAP2 POP PUSH2 0x29A DUP3 PUSH2 0x40B JUMP JUMPDEST PUSH1 0x8 DUP3 ADD SWAP1 POP SWAP2 SWAP1 POP JUMP JUMPDEST PUSH2 0x2AE DUP2 PUSH2 0x35C JUMP JUMPDEST DUP3 MSTORE POP POP JUMP JUMPDEST PUSH1 0x0 PUSH2 0x2C0 DUP3 DUP6 PUSH2 0x203 JUMP JUMPDEST SWAP2 POP PUSH2 0x2CC DUP3 DUP5 PUSH2 0x1D2 JUMP JUMPDEST SWAP2 POP PUSH2 0x2D7 DUP3 PUSH2 0x282 JUMP JUMPDEST SWAP2 POP DUP2 SWAP1 POP SWAP4 SWAP3 POP POP POP JUMP JUMPDEST PUSH1 0x0 PUSH1 0x20 DUP3 ADD SWAP1 POP DUP2 DUP2 SUB PUSH1 0x0 DUP4 ADD MSTORE PUSH2 0x2FD DUP2 DUP5 PUSH2 0x199 JUMP JUMPDEST SWAP1 POP SWAP3 SWAP2 POP POP JUMP JUMPDEST PUSH1 0x0 PUSH1 0x20 DUP3 ADD SWAP1 POP PUSH2 0x31A PUSH1 0x0 DUP4 ADD DUP5 PUSH2 0x2A5 JUMP JUMPDEST SWAP3 SWAP2 POP POP JUMP JUMPDEST PUSH1 0x0 DUP2 SWAP1 POP DUP2 PUSH1 0x0 MSTORE PUSH1 0x20 PUSH1 0x0 KECCAK256 SWAP1 POP SWAP2 SWAP1 POP JUMP JUMPDEST PUSH1 0x0 DUP2 MLOAD SWAP1 POP SWAP2 SWAP1 POP JUMP JUMPDEST PUSH1 0x0 DUP3 DUP3 MSTORE PUSH1 0x20 DUP3 ADD SWAP1 POP SWAP3 SWAP2 POP POP JUMP JUMPDEST PUSH1 0x0 DUP2 SWAP1 POP SWAP3 SWAP2 POP POP JUMP JUMPDEST PUSH1 0x0 DUP2 SWAP1 POP SWAP2 SWAP1 POP JUMP JUMPDEST PUSH1 0x0 JUMPDEST DUP4 DUP2 LT ISZERO PUSH2 0x384 JUMPI DUP1 DUP3 ADD MLOAD DUP2 DUP5 ADD MSTORE PUSH1 0x20 DUP2 ADD SWAP1 POP PUSH2 0x369 JUMP JUMPDEST DUP4 DUP2 GT ISZERO PUSH2 0x393 JUMPI PUSH1 0x0 DUP5 DUP5 ADD MSTORE JUMPDEST POP POP POP POP JUMP JUMPDEST PUSH1 0x0 PUSH1 0x2 DUP3 DIV SWAP1 POP PUSH1 0x1 DUP3 AND DUP1 PUSH2 0x3B1 JUMPI PUSH1 0x7F DUP3 AND SWAP2 POP JUMPDEST PUSH1 0x20 DUP3 LT DUP2 EQ ISZERO PUSH2 0x3C5 JUMPI PUSH2 0x3C4 PUSH2 0x3CB JUMP JUMPDEST JUMPDEST POP SWAP2 SWAP1 POP JUMP JUMPDEST PUSH32 0x4E487B7100000000000000000000000000000000000000000000000000000000 PUSH1 0x0 MSTORE PUSH1 0x22 PUSH1 0x4 MSTORE PUSH1 0x24 PUSH1 0x0 REVERT JUMPDEST PUSH1 0x0 PUSH1 0x1F NOT PUSH1 0x1F DUP4 ADD AND SWAP1 POP SWAP2 SWAP1 POP JUMP JUMPDEST PUSH32 0x2053656374696F6E000000000000000000000000000000000000000000000000 PUSH1 0x0 DUP3 ADD MSTORE POP JUMP INVALID LOG2 PUSH5 0x6970667358 0x22 SLT KECCAK256 PUSH28 0xC2A47520461177AABDDC90F23A2AF0A9A11BA2B476D173DB1F579B9 PUSH18 0xB35464736F6C634300080700330000000000 "
				},
				"gasEstimates": {
					"creation": {
						"codeDepositCost": "226000",
						"executionCost": "infinite",
						"totalCost": "infinite"
					},
					"external": {
						"course()": "infinite",
						"gasPrice()": "2451",
						"showInfo()": "infinite"
					}
				},
				"methodIdentifiers": {
					"course()": "dcf63591",
					"gasPrice()": "fe173b97",
					"showInfo()": "a3277eb1"
				}
			},
			"userdoc": {
				"kind": "user",
				"methods": {},
				"version": 1
			}
		}
	}
}