{
	"02 - Functions.sol": {
		"Functions": {
			"abi": [
				{
					"inputs": [],
					"name": "multipleReturn",
					"outputs": [
						{
							"internalType": "uint256",
							"name": "",
							"type": "uint256"
						},
						{
							"internalType": "string",
							"name": "",
							"type": "string"
						}
					],
					"stateMutability": "pure",
					"type": "function"
				},
				{
					"inputs": [
						{
							"internalType": "uint256",
							"name": "_number",
							"type": "uint256"
						}
					],
					"name": "setNumber",
					"outputs": [],
					"stateMutability": "nonpayable",
					"type": "function"
				},
				{
					"inputs": [],
					"name": "showNumber",
					"outputs": [
						{
							"internalType": "uint256",
							"name": "",
							"type": "uint256"
						}
					],
					"stateMutability": "view",
					"type": "function"
				}
			],
			"devdoc": {
				"kind": "dev",
				"methods": {},
				"version": 1
			},
			"evm": {
				"assembly": "    /* \"02 - Functions.sol\":66:504  contract Functions {\r... */\n  mstore(0x40, 0x80)\n    /* \"02 - Functions.sol\":111:113  15 */\n  0x0f\n    /* \"02 - Functions.sol\":92:113  uint luckyNumber = 15 */\n  0x00\n  sstore\n    /* \"02 - Functions.sol\":66:504  contract Functions {\r... */\n  callvalue\n  dup1\n  iszero\n  tag_1\n  jumpi\n  0x00\n  dup1\n  revert\ntag_1:\n  pop\n  dataSize(sub_0)\n  dup1\n  dataOffset(sub_0)\n  0x00\n  codecopy\n  0x00\n  return\nstop\n\nsub_0: assembly {\n        /* \"02 - Functions.sol\":66:504  contract Functions {\r... */\n      mstore(0x40, 0x80)\n      callvalue\n      dup1\n      iszero\n      tag_1\n      jumpi\n      0x00\n      dup1\n      revert\n    tag_1:\n      pop\n      jumpi(tag_2, lt(calldatasize, 0x04))\n      shr(0xe0, calldataload(0x00))\n      dup1\n      0x3fb5c1cb\n      eq\n      tag_3\n      jumpi\n      dup1\n      0x76dad223\n      eq\n      tag_4\n      jumpi\n      dup1\n      0xebbaedfb\n      eq\n      tag_5\n      jumpi\n    tag_2:\n      0x00\n      dup1\n      revert\n        /* \"02 - Functions.sol\":311:391  function setNumber(uint _number) public {\r... */\n    tag_3:\n      tag_6\n      0x04\n      dup1\n      calldatasize\n      sub\n      dup2\n      add\n      swap1\n      tag_7\n      swap2\n      swap1\n      tag_8\n      jump\t// in\n    tag_7:\n      tag_9\n      jump\t// in\n    tag_6:\n      stop\n        /* \"02 - Functions.sol\":218:303  function showNumber() public view returns(uint) {\r... */\n    tag_4:\n      tag_10\n      tag_11\n      jump\t// in\n    tag_10:\n      mload(0x40)\n      tag_12\n      swap2\n      swap1\n      tag_13\n      jump\t// in\n    tag_12:\n      mload(0x40)\n      dup1\n      swap2\n      sub\n      swap1\n      return\n        /* \"02 - Functions.sol\":399:501  function multipleReturn() public pure returns(uint, string memory){\r... */\n    tag_5:\n      tag_14\n      tag_15\n      jump\t// in\n    tag_14:\n      mload(0x40)\n      tag_16\n      swap3\n      swap2\n      swap1\n      tag_17\n      jump\t// in\n    tag_16:\n      mload(0x40)\n      dup1\n      swap2\n      sub\n      swap1\n      return\n        /* \"02 - Functions.sol\":311:391  function setNumber(uint _number) public {\r... */\n    tag_9:\n        /* \"02 - Functions.sol\":376:383  _number */\n      dup1\n        /* \"02 - Functions.sol\":362:373  luckyNumber */\n      0x00\n        /* \"02 - Functions.sol\":362:383  luckyNumber = _number */\n      dup2\n      swap1\n      sstore\n      pop\n        /* \"02 - Functions.sol\":311:391  function setNumber(uint _number) public {\r... */\n      pop\n      jump\t// out\n        /* \"02 - Functions.sol\":218:303  function showNumber() public view returns(uint) {\r... */\n    tag_11:\n        /* \"02 - Functions.sol\":260:264  uint */\n      0x00\n        /* \"02 - Functions.sol\":284:295  luckyNumber */\n      dup1\n      sload\n        /* \"02 - Functions.sol\":277:295  return luckyNumber */\n      swap1\n      pop\n        /* \"02 - Functions.sol\":218:303  function showNumber() public view returns(uint) {\r... */\n      swap1\n      jump\t// out\n        /* \"02 - Functions.sol\":399:501  function multipleReturn() public pure returns(uint, string memory){\r... */\n    tag_15:\n        /* \"02 - Functions.sol\":445:449  uint */\n      0x00\n        /* \"02 - Functions.sol\":451:464  string memory */\n      0x60\n        /* \"02 - Functions.sol\":483:484  0 */\n      0x00\n        /* \"02 - Functions.sol\":476:493  return(0,\"Yavuz\") */\n      mload(0x40)\n      dup1\n      0x40\n      add\n      0x40\n      mstore\n      dup1\n      0x05\n      dup2\n      mstore\n      0x20\n      add\n      0x596176757a000000000000000000000000000000000000000000000000000000\n      dup2\n      mstore\n      pop\n      swap2\n      pop\n      swap2\n      pop\n        /* \"02 - Functions.sol\":399:501  function multipleReturn() public pure returns(uint, string memory){\r... */\n      swap1\n      swap2\n      jump\t// out\n        /* \"#utility.yul\":7:146   */\n    tag_22:\n        /* \"#utility.yul\":53:58   */\n      0x00\n        /* \"#utility.yul\":91:97   */\n      dup2\n        /* \"#utility.yul\":78:98   */\n      calldataload\n        /* \"#utility.yul\":69:98   */\n      swap1\n      pop\n        /* \"#utility.yul\":107:140   */\n      tag_24\n        /* \"#utility.yul\":134:139   */\n      dup2\n        /* \"#utility.yul\":107:140   */\n      tag_25\n      jump\t// in\n    tag_24:\n        /* \"#utility.yul\":7:146   */\n      swap3\n      swap2\n      pop\n      pop\n      jump\t// out\n        /* \"#utility.yul\":152:481   */\n    tag_8:\n        /* \"#utility.yul\":211:217   */\n      0x00\n        /* \"#utility.yul\":260:262   */\n      0x20\n        /* \"#utility.yul\":248:257   */\n      dup3\n        /* \"#utility.yul\":239:246   */\n      dup5\n        /* \"#utility.yul\":235:258   */\n      sub\n        /* \"#utility.yul\":231:263   */\n      slt\n        /* \"#utility.yul\":228:347   */\n      iszero\n      tag_27\n      jumpi\n        /* \"#utility.yul\":266:345   */\n      tag_28\n      tag_29\n      jump\t// in\n    tag_28:\n        /* \"#utility.yul\":228:347   */\n    tag_27:\n        /* \"#utility.yul\":386:387   */\n      0x00\n        /* \"#utility.yul\":411:464   */\n      tag_30\n        /* \"#utility.yul\":456:463   */\n      dup5\n        /* \"#utility.yul\":447:453   */\n      dup3\n        /* \"#utility.yul\":436:445   */\n      dup6\n        /* \"#utility.yul\":432:454   */\n      add\n        /* \"#utility.yul\":411:464   */\n      tag_22\n      jump\t// in\n    tag_30:\n        /* \"#utility.yul\":401:464   */\n      swap2\n      pop\n        /* \"#utility.yul\":357:474   */\n      pop\n        /* \"#utility.yul\":152:481   */\n      swap3\n      swap2\n      pop\n      pop\n      jump\t// out\n        /* \"#utility.yul\":487:851   */\n    tag_31:\n        /* \"#utility.yul\":575:578   */\n      0x00\n        /* \"#utility.yul\":603:642   */\n      tag_33\n        /* \"#utility.yul\":636:641   */\n      dup3\n        /* \"#utility.yul\":603:642   */\n      tag_34\n      jump\t// in\n    tag_33:\n        /* \"#utility.yul\":658:729   */\n      tag_35\n        /* \"#utility.yul\":722:728   */\n      dup2\n        /* \"#utility.yul\":717:720   */\n      dup6\n        /* \"#utility.yul\":658:729   */\n      tag_36\n      jump\t// in\n    tag_35:\n        /* \"#utility.yul\":651:729   */\n      swap4\n      pop\n        /* \"#utility.yul\":738:790   */\n      tag_37\n        /* \"#utility.yul\":783:789   */\n      dup2\n        /* \"#utility.yul\":778:781   */\n      dup6\n        /* \"#utility.yul\":771:775   */\n      0x20\n        /* \"#utility.yul\":764:769   */\n      dup7\n        /* \"#utility.yul\":760:776   */\n      add\n        /* \"#utility.yul\":738:790   */\n      tag_38\n      jump\t// in\n    tag_37:\n        /* \"#utility.yul\":815:844   */\n      tag_39\n        /* \"#utility.yul\":837:843   */\n      dup2\n        /* \"#utility.yul\":815:844   */\n      tag_40\n      jump\t// in\n    tag_39:\n        /* \"#utility.yul\":810:813   */\n      dup5\n        /* \"#utility.yul\":806:845   */\n      add\n        /* \"#utility.yul\":799:845   */\n      swap2\n      pop\n        /* \"#utility.yul\":579:851   */\n      pop\n        /* \"#utility.yul\":487:851   */\n      swap3\n      swap2\n      pop\n      pop\n      jump\t// out\n        /* \"#utility.yul\":857:975   */\n    tag_41:\n        /* \"#utility.yul\":944:968   */\n      tag_43\n        /* \"#utility.yul\":962:967   */\n      dup2\n        /* \"#utility.yul\":944:968   */\n      tag_44\n      jump\t// in\n    tag_43:\n        /* \"#utility.yul\":939:942   */\n      dup3\n        /* \"#utility.yul\":932:969   */\n      mstore\n        /* \"#utility.yul\":857:975   */\n      pop\n      pop\n      jump\t// out\n        /* \"#utility.yul\":981:1203   */\n    tag_13:\n        /* \"#utility.yul\":1074:1078   */\n      0x00\n        /* \"#utility.yul\":1112:1114   */\n      0x20\n        /* \"#utility.yul\":1101:1110   */\n      dup3\n        /* \"#utility.yul\":1097:1115   */\n      add\n        /* \"#utility.yul\":1089:1115   */\n      swap1\n      pop\n        /* \"#utility.yul\":1125:1196   */\n      tag_46\n        /* \"#utility.yul\":1193:1194   */\n      0x00\n        /* \"#utility.yul\":1182:1191   */\n      dup4\n        /* \"#utility.yul\":1178:1195   */\n      add\n        /* \"#utility.yul\":1169:1175   */\n      dup5\n        /* \"#utility.yul\":1125:1196   */\n      tag_41\n      jump\t// in\n    tag_46:\n        /* \"#utility.yul\":981:1203   */\n      swap3\n      swap2\n      pop\n      pop\n      jump\t// out\n        /* \"#utility.yul\":1209:1632   */\n    tag_17:\n        /* \"#utility.yul\":1350:1354   */\n      0x00\n        /* \"#utility.yul\":1388:1390   */\n      0x40\n        /* \"#utility.yul\":1377:1386   */\n      dup3\n        /* \"#utility.yul\":1373:1391   */\n      add\n        /* \"#utility.yul\":1365:1391   */\n      swap1\n      pop\n        /* \"#utility.yul\":1401:1472   */\n      tag_48\n        /* \"#utility.yul\":1469:1470   */\n      0x00\n        /* \"#utility.yul\":1458:1467   */\n      dup4\n        /* \"#utility.yul\":1454:1471   */\n      add\n        /* \"#utility.yul\":1445:1451   */\n      dup6\n        /* \"#utility.yul\":1401:1472   */\n      tag_41\n      jump\t// in\n    tag_48:\n        /* \"#utility.yul\":1519:1528   */\n      dup2\n        /* \"#utility.yul\":1513:1517   */\n      dup2\n        /* \"#utility.yul\":1509:1529   */\n      sub\n        /* \"#utility.yul\":1504:1506   */\n      0x20\n        /* \"#utility.yul\":1493:1502   */\n      dup4\n        /* \"#utility.yul\":1489:1507   */\n      add\n        /* \"#utility.yul\":1482:1530   */\n      mstore\n        /* \"#utility.yul\":1547:1625   */\n      tag_49\n        /* \"#utility.yul\":1620:1624   */\n      dup2\n        /* \"#utility.yul\":1611:1617   */\n      dup5\n        /* \"#utility.yul\":1547:1625   */\n      tag_31\n      jump\t// in\n    tag_49:\n        /* \"#utility.yul\":1539:1625   */\n      swap1\n      pop\n        /* \"#utility.yul\":1209:1632   */\n      swap4\n      swap3\n      pop\n      pop\n      pop\n      jump\t// out\n        /* \"#utility.yul\":1719:1818   */\n    tag_34:\n        /* \"#utility.yul\":1771:1777   */\n      0x00\n        /* \"#utility.yul\":1805:1810   */\n      dup2\n        /* \"#utility.yul\":1799:1811   */\n      mload\n        /* \"#utility.yul\":1789:1811   */\n      swap1\n      pop\n        /* \"#utility.yul\":1719:1818   */\n      swap2\n      swap1\n      pop\n      jump\t// out\n        /* \"#utility.yul\":1824:1993   */\n    tag_36:\n        /* \"#utility.yul\":1908:1919   */\n      0x00\n        /* \"#utility.yul\":1942:1948   */\n      dup3\n        /* \"#utility.yul\":1937:1940   */\n      dup3\n        /* \"#utility.yul\":1930:1949   */\n      mstore\n        /* \"#utility.yul\":1982:1986   */\n      0x20\n        /* \"#utility.yul\":1977:1980   */\n      dup3\n        /* \"#utility.yul\":1973:1987   */\n      add\n        /* \"#utility.yul\":1958:1987   */\n      swap1\n      pop\n        /* \"#utility.yul\":1824:1993   */\n      swap3\n      swap2\n      pop\n      pop\n      jump\t// out\n        /* \"#utility.yul\":1999:2076   */\n    tag_44:\n        /* \"#utility.yul\":2036:2043   */\n      0x00\n        /* \"#utility.yul\":2065:2070   */\n      dup2\n        /* \"#utility.yul\":2054:2070   */\n      swap1\n      pop\n        /* \"#utility.yul\":1999:2076   */\n      swap2\n      swap1\n      pop\n      jump\t// out\n        /* \"#utility.yul\":2082:2389   */\n    tag_38:\n        /* \"#utility.yul\":2150:2151   */\n      0x00\n        /* \"#utility.yul\":2160:2273   */\n    tag_56:\n        /* \"#utility.yul\":2174:2180   */\n      dup4\n        /* \"#utility.yul\":2171:2172   */\n      dup2\n        /* \"#utility.yul\":2168:2181   */\n      lt\n        /* \"#utility.yul\":2160:2273   */\n      iszero\n      tag_58\n      jumpi\n        /* \"#utility.yul\":2259:2260   */\n      dup1\n        /* \"#utility.yul\":2254:2257   */\n      dup3\n        /* \"#utility.yul\":2250:2261   */\n      add\n        /* \"#utility.yul\":2244:2262   */\n      mload\n        /* \"#utility.yul\":2240:2241   */\n      dup2\n        /* \"#utility.yul\":2235:2238   */\n      dup5\n        /* \"#utility.yul\":2231:2242   */\n      add\n        /* \"#utility.yul\":2224:2263   */\n      mstore\n        /* \"#utility.yul\":2196:2198   */\n      0x20\n        /* \"#utility.yul\":2193:2194   */\n      dup2\n        /* \"#utility.yul\":2189:2199   */\n      add\n        /* \"#utility.yul\":2184:2199   */\n      swap1\n      pop\n        /* \"#utility.yul\":2160:2273   */\n      jump(tag_56)\n    tag_58:\n        /* \"#utility.yul\":2291:2297   */\n      dup4\n        /* \"#utility.yul\":2288:2289   */\n      dup2\n        /* \"#utility.yul\":2285:2298   */\n      gt\n        /* \"#utility.yul\":2282:2383   */\n      iszero\n      tag_59\n      jumpi\n        /* \"#utility.yul\":2371:2372   */\n      0x00\n        /* \"#utility.yul\":2362:2368   */\n      dup5\n        /* \"#utility.yul\":2357:2360   */\n      dup5\n        /* \"#utility.yul\":2353:2369   */\n      add\n        /* \"#utility.yul\":2346:2373   */\n      mstore\n        /* \"#utility.yul\":2282:2383   */\n    tag_59:\n        /* \"#utility.yul\":2131:2389   */\n      pop\n        /* \"#utility.yul\":2082:2389   */\n      pop\n      pop\n      pop\n      jump\t// out\n        /* \"#utility.yul\":2518:2635   */\n    tag_29:\n        /* \"#utility.yul\":2627:2628   */\n      0x00\n        /* \"#utility.yul\":2624:2625   */\n      dup1\n        /* \"#utility.yul\":2617:2629   */\n      revert\n        /* \"#utility.yul\":2641:2743   */\n    tag_40:\n        /* \"#utility.yul\":2682:2688   */\n      0x00\n        /* \"#utility.yul\":2733:2735   */\n      0x1f\n        /* \"#utility.yul\":2729:2736   */\n      not\n        /* \"#utility.yul\":2724:2726   */\n      0x1f\n        /* \"#utility.yul\":2717:2722   */\n      dup4\n        /* \"#utility.yul\":2713:2727   */\n      add\n        /* \"#utility.yul\":2709:2737   */\n      and\n        /* \"#utility.yul\":2699:2737   */\n      swap1\n      pop\n        /* \"#utility.yul\":2641:2743   */\n      swap2\n      swap1\n      pop\n      jump\t// out\n        /* \"#utility.yul\":2749:2871   */\n    tag_25:\n        /* \"#utility.yul\":2822:2846   */\n      tag_65\n        /* \"#utility.yul\":2840:2845   */\n      dup2\n        /* \"#utility.yul\":2822:2846   */\n      tag_44\n      jump\t// in\n    tag_65:\n        /* \"#utility.yul\":2815:2820   */\n      dup2\n        /* \"#utility.yul\":2812:2847   */\n      eq\n        /* \"#utility.yul\":2802:2865   */\n      tag_66\n      jumpi\n        /* \"#utility.yul\":2861:2862   */\n      0x00\n        /* \"#utility.yul\":2858:2859   */\n      dup1\n        /* \"#utility.yul\":2851:2863   */\n      revert\n        /* \"#utility.yul\":2802:2865   */\n    tag_66:\n        /* \"#utility.yul\":2749:2871   */\n      pop\n      jump\t// out\n\n    auxdata: 0xa2646970667358221220a42c85297213be0580099f3c644ca03e0e9a53c00f75a1b24f7330f93865433d64736f6c63430008070033\n}\n",
				"bytecode": {
					"linkReferences": {},
					"object": "6080604052600f60005534801561001557600080fd5b50610287806100256000396000f3fe608060405234801561001057600080fd5b50600436106100415760003560e01c80633fb5c1cb1461004657806376dad22314610062578063ebbaedfb14610080575b600080fd5b610060600480360381019061005b919061010b565b61009f565b005b61006a6100a9565b6040516100779190610180565b60405180910390f35b6100886100b2565b60405161009692919061019b565b60405180910390f35b8060008190555050565b60008054905090565b6000606060006040518060400160405280600581526020017f596176757a000000000000000000000000000000000000000000000000000000815250915091509091565b6000813590506101058161023a565b92915050565b60006020828403121561012157610120610224565b5b600061012f848285016100f6565b91505092915050565b6000610143826101cb565b61014d81856101d6565b935061015d8185602086016101f1565b61016681610229565b840191505092915050565b61017a816101e7565b82525050565b60006020820190506101956000830184610171565b92915050565b60006040820190506101b06000830185610171565b81810360208301526101c28184610138565b90509392505050565b600081519050919050565b600082825260208201905092915050565b6000819050919050565b60005b8381101561020f5780820151818401526020810190506101f4565b8381111561021e576000848401525b50505050565b600080fd5b6000601f19601f8301169050919050565b610243816101e7565b811461024e57600080fd5b5056fea2646970667358221220a42c85297213be0580099f3c644ca03e0e9a53c00f75a1b24f7330f93865433d64736f6c63430008070033",
					"opcodes": "PUSH1 0x80 PUSH1 0x40 MSTORE PUSH1 0xF PUSH1 0x0 SSTORE CALLVALUE DUP1 ISZERO PUSH2 0x15 JUMPI PUSH1 0x0 DUP1 REVERT JUMPDEST POP PUSH2 0x287 DUP1 PUSH2 0x25 PUSH1 0x0 CODECOPY PUSH1 0x0 RETURN INVALID PUSH1 0x80 PUSH1 0x40 MSTORE CALLVALUE DUP1 ISZERO PUSH2 0x10 JUMPI PUSH1 0x0 DUP1 REVERT JUMPDEST POP PUSH1 0x4 CALLDATASIZE LT PUSH2 0x41 JUMPI PUSH1 0x0 CALLDATALOAD PUSH1 0xE0 SHR DUP1 PUSH4 0x3FB5C1CB EQ PUSH2 0x46 JUMPI DUP1 PUSH4 0x76DAD223 EQ PUSH2 0x62 JUMPI DUP1 PUSH4 0xEBBAEDFB EQ PUSH2 0x80 JUMPI JUMPDEST PUSH1 0x0 DUP1 REVERT JUMPDEST PUSH2 0x60 PUSH1 0x4 DUP1 CALLDATASIZE SUB DUP2 ADD SWAP1 PUSH2 0x5B SWAP2 SWAP1 PUSH2 0x10B JUMP JUMPDEST PUSH2 0x9F JUMP JUMPDEST STOP JUMPDEST PUSH2 0x6A PUSH2 0xA9 JUMP JUMPDEST PUSH1 0x40 MLOAD PUSH2 0x77 SWAP2 SWAP1 PUSH2 0x180 JUMP JUMPDEST PUSH1 0x40 MLOAD DUP1 SWAP2 SUB SWAP1 RETURN JUMPDEST PUSH2 0x88 PUSH2 0xB2 JUMP JUMPDEST PUSH1 0x40 MLOAD PUSH2 0x96 SWAP3 SWAP2 SWAP1 PUSH2 0x19B JUMP JUMPDEST PUSH1 0x40 MLOAD DUP1 SWAP2 SUB SWAP1 RETURN JUMPDEST DUP1 PUSH1 0x0 DUP2 SWAP1 SSTORE POP POP JUMP JUMPDEST PUSH1 0x0 DUP1 SLOAD SWAP1 POP SWAP1 JUMP JUMPDEST PUSH1 0x0 PUSH1 0x60 PUSH1 0x0 PUSH1 0x40 MLOAD DUP1 PUSH1 0x40 ADD PUSH1 0x40 MSTORE DUP1 PUSH1 0x5 DUP2 MSTORE PUSH1 0x20 ADD PUSH32 0x596176757A000000000000000000000000000000000000000000000000000000 DUP2 MSTORE POP SWAP2 POP SWAP2 POP SWAP1 SWAP2 JUMP JUMPDEST PUSH1 0x0 DUP2 CALLDATALOAD SWAP1 POP PUSH2 0x105 DUP2 PUSH2 0x23A JUMP JUMPDEST SWAP3 SWAP2 POP POP JUMP JUMPDEST PUSH1 0x0 PUSH1 0x20 DUP3 DUP5 SUB SLT ISZERO PUSH2 0x121 JUMPI PUSH2 0x120 PUSH2 0x224 JUMP JUMPDEST JUMPDEST PUSH1 0x0 PUSH2 0x12F DUP5 DUP3 DUP6 ADD PUSH2 0xF6 JUMP JUMPDEST SWAP2 POP POP SWAP3 SWAP2 POP POP JUMP JUMPDEST PUSH1 0x0 PUSH2 0x143 DUP3 PUSH2 0x1CB JUMP JUMPDEST PUSH2 0x14D DUP2 DUP6 PUSH2 0x1D6 JUMP JUMPDEST SWAP4 POP PUSH2 0x15D DUP2 DUP6 PUSH1 0x20 DUP7 ADD PUSH2 0x1F1 JUMP JUMPDEST PUSH2 0x166 DUP2 PUSH2 0x229 JUMP JUMPDEST DUP5 ADD SWAP2 POP POP SWAP3 SWAP2 POP POP JUMP JUMPDEST PUSH2 0x17A DUP2 PUSH2 0x1E7 JUMP JUMPDEST DUP3 MSTORE POP POP JUMP JUMPDEST PUSH1 0x0 PUSH1 0x20 DUP3 ADD SWAP1 POP PUSH2 0x195 PUSH1 0x0 DUP4 ADD DUP5 PUSH2 0x171 JUMP JUMPDEST SWAP3 SWAP2 POP POP JUMP JUMPDEST PUSH1 0x0 PUSH1 0x40 DUP3 ADD SWAP1 POP PUSH2 0x1B0 PUSH1 0x0 DUP4 ADD DUP6 PUSH2 0x171 JUMP JUMPDEST DUP2 DUP2 SUB PUSH1 0x20 DUP4 ADD MSTORE PUSH2 0x1C2 DUP2 DUP5 PUSH2 0x138 JUMP JUMPDEST SWAP1 POP SWAP4 SWAP3 POP POP POP JUMP JUMPDEST PUSH1 0x0 DUP2 MLOAD SWAP1 POP SWAP2 SWAP1 POP JUMP JUMPDEST PUSH1 0x0 DUP3 DUP3 MSTORE PUSH1 0x20 DUP3 ADD SWAP1 POP SWAP3 SWAP2 POP POP JUMP JUMPDEST PUSH1 0x0 DUP2 SWAP1 POP SWAP2 SWAP1 POP JUMP JUMPDEST PUSH1 0x0 JUMPDEST DUP4 DUP2 LT ISZERO PUSH2 0x20F JUMPI DUP1 DUP3 ADD MLOAD DUP2 DUP5 ADD MSTORE PUSH1 0x20 DUP2 ADD SWAP1 POP PUSH2 0x1F4 JUMP JUMPDEST DUP4 DUP2 GT ISZERO PUSH2 0x21E JUMPI PUSH1 0x0 DUP5 DUP5 ADD MSTORE JUMPDEST POP POP POP POP JUMP JUMPDEST PUSH1 0x0 DUP1 REVERT JUMPDEST PUSH1 0x0 PUSH1 0x1F NOT PUSH1 0x1F DUP4 ADD AND SWAP1 POP SWAP2 SWAP1 POP JUMP JUMPDEST PUSH2 0x243 DUP2 PUSH2 0x1E7 JUMP JUMPDEST DUP2 EQ PUSH2 0x24E JUMPI PUSH1 0x0 DUP1 REVERT JUMPDEST POP JUMP INVALID LOG2 PUSH5 0x6970667358 0x22 SLT KECCAK256 LOG4 0x2C DUP6 0x29 PUSH19 0x13BE0580099F3C644CA03E0E9A53C00F75A1B2 0x4F PUSH20 0x30F93865433D64736F6C63430008070033000000 "
				},
				"gasEstimates": {
					"creation": {
						"codeDepositCost": "129400",
						"executionCost": "22283",
						"totalCost": "151683"
					},
					"external": {
						"multipleReturn()": "infinite",
						"setNumber(uint256)": "22498",
						"showNumber()": "2437"
					}
				},
				"methodIdentifiers": {
					"multipleReturn()": "ebbaedfb",
					"setNumber(uint256)": "3fb5c1cb",
					"showNumber()": "76dad223"
				}
			},
			"userdoc": {
				"kind": "user",
				"methods": {},
				"version": 1
			}
		}
	}
}