{
	"01 - Variables.sol": {
		"Variables": {
			"abi": [
				{
					"inputs": [],
					"name": "course",
					"outputs": [
						{
							"internalType": "string",
							"name": "",
							"type": "string"
						}
					],
					"stateMutability": "view",
					"type": "function"
				},
				{
					"inputs": [],
					"name": "show",
					"outputs": [
						{
							"internalType": "string",
							"name": "",
							"type": "string"
						}
					],
					"stateMutability": "view",
					"type": "function"
				}
			],
			"devdoc": {
				"kind": "dev",
				"methods": {},
				"version": 1
			},
			"evm": {
				"assembly": "    /* \"01 - Variables.sol\":66:1678  contract Variables{\r... */\n  mstore(0x40, 0x80)\n    /* \"01 - Variables.sol\":278:315  bytes32 nameByteFixed = \"Yavuz ilhan\" */\n  sstore(0x04, 0x596176757a20696c68616e000000000000000000000000000000000000000000)\n    /* \"01 - Variables.sol\":384:417  string nameString = \"Yavuz ilhan\" */\n  mload(0x40)\n  dup1\n  0x40\n  add\n  0x40\n  mstore\n  dup1\n  0x0b\n  dup2\n  mstore\n  0x20\n  add\n  0x596176757a20696c68616e000000000000000000000000000000000000000000\n  dup2\n  mstore\n  pop\n  0x05\n  swap1\n  dup1\n  mload\n  swap1\n  0x20\n  add\n  swap1\n  tag_1\n  swap3\n  swap2\n  swap1\n  tag_2\n  jump\t// in\ntag_1:\n  pop\n    /* \"01 - Variables.sol\":424:461  bytes nameByteDynamic = \"Yavuz ilhan\" */\n  mload(0x40)\n  dup1\n  0x40\n  add\n  0x40\n  mstore\n  dup1\n  0x0b\n  dup2\n  mstore\n  0x20\n  add\n  0x596176757a20696c68616e000000000000000000000000000000000000000000\n  dup2\n  mstore\n  pop\n  0x06\n  swap1\n  dup1\n  mload\n  swap1\n  0x20\n  add\n  swap1\n  tag_3\n  swap3\n  swap2\n  swap1\n  tag_4\n  jump\t// in\ntag_3:\n  pop\n    /* \"01 - Variables.sol\":468:517  string[] names = [\"Yavuz\",\"ilhan\",\"Ahmet\",\"Veli\"] */\n  mload(0x40)\n  dup1\n  0x80\n  add\n  0x40\n  mstore\n  dup1\n  mload(0x40)\n  dup1\n  0x40\n  add\n  0x40\n  mstore\n  dup1\n  0x05\n  dup2\n  mstore\n  0x20\n  add\n  0x596176757a000000000000000000000000000000000000000000000000000000\n  dup2\n  mstore\n  pop\n  dup2\n  mstore\n  0x20\n  add\n  mload(0x40)\n  dup1\n  0x40\n  add\n  0x40\n  mstore\n  dup1\n  0x05\n  dup2\n  mstore\n  0x20\n  add\n  0x696c68616e000000000000000000000000000000000000000000000000000000\n  dup2\n  mstore\n  pop\n  dup2\n  mstore\n  0x20\n  add\n  mload(0x40)\n  dup1\n  0x40\n  add\n  0x40\n  mstore\n  dup1\n  0x05\n  dup2\n  mstore\n  0x20\n  add\n  0x41686d6574000000000000000000000000000000000000000000000000000000\n  dup2\n  mstore\n  pop\n  dup2\n  mstore\n  0x20\n  add\n  mload(0x40)\n  dup1\n  0x40\n  add\n  0x40\n  mstore\n  dup1\n  0x04\n  dup2\n  mstore\n  0x20\n  add\n  0x56656c6900000000000000000000000000000000000000000000000000000000\n  dup2\n  mstore\n  pop\n  dup2\n  mstore\n  pop\n  0x07\n  swap1\n  0x04\n  tag_5\n  swap3\n  swap2\n  swap1\n  tag_6\n  jump\t// in\ntag_5:\n  pop\n    /* \"01 - Variables.sol\":539:567  uint[] numbers = [1,2,3,4,5] */\n  mload(0x40)\n  dup1\n  0xa0\n  add\n  0x40\n  mstore\n  dup1\n    /* \"01 - Variables.sol\":557:558  1 */\n  0x01\n    /* \"01 - Variables.sol\":539:567  uint[] numbers = [1,2,3,4,5] */\n  0xff\n  and\n  dup2\n  mstore\n  0x20\n  add\n    /* \"01 - Variables.sol\":559:560  2 */\n  0x02\n    /* \"01 - Variables.sol\":539:567  uint[] numbers = [1,2,3,4,5] */\n  0xff\n  and\n  dup2\n  mstore\n  0x20\n  add\n    /* \"01 - Variables.sol\":561:562  3 */\n  0x03\n    /* \"01 - Variables.sol\":539:567  uint[] numbers = [1,2,3,4,5] */\n  0xff\n  and\n  dup2\n  mstore\n  0x20\n  add\n    /* \"01 - Variables.sol\":563:564  4 */\n  0x04\n    /* \"01 - Variables.sol\":539:567  uint[] numbers = [1,2,3,4,5] */\n  0xff\n  and\n  dup2\n  mstore\n  0x20\n  add\n    /* \"01 - Variables.sol\":565:566  5 */\n  0x05\n    /* \"01 - Variables.sol\":539:567  uint[] numbers = [1,2,3,4,5] */\n  0xff\n  and\n  dup2\n  mstore\n  pop\n  0x08\n  swap1\n  0x05\n  tag_7\n  swap3\n  swap2\n  swap1\n  tag_8\n  jump\t// in\ntag_7:\n  pop\n    /* \"01 - Variables.sol\":1160:1165  1 wei */\n  0x01\n    /* \"01 - Variables.sol\":1148:1165  uint eWei = 1 wei */\n  0x0a\n  sstore\n    /* \"01 - Variables.sol\":1185:1191  1 gwei */\n  0x3b9aca00\n    /* \"01 - Variables.sol\":1172:1191  uint eGwei = 1 gwei */\n  0x0b\n  sstore\n    /* \"01 - Variables.sol\":1224:1231  1 ether */\n  0x0de0b6b3a7640000\n    /* \"01 - Variables.sol\":1210:1231  uint eEther = 1 ether */\n  0x0c\n  sstore\n    /* \"01 - Variables.sol\":1279:1288  1 seconds */\n  0x01\n    /* \"01 - Variables.sol\":1265:1288  uint second = 1 seconds */\n  0x0d\n  sstore\n    /* \"01 - Variables.sol\":1309:1319  60 seconds */\n  0x3c\n    /* \"01 - Variables.sol\":1295:1319  uint minute = 60 seconds */\n  0x0e\n  sstore\n    /* \"01 - Variables.sol\":1338:1348  60 minutes */\n  0x0e10\n    /* \"01 - Variables.sol\":1326:1348  uint hour = 60 minutes */\n  0x0f\n  sstore\n    /* \"01 - Variables.sol\":1382:1388  1 days */\n  0x015180\n    /* \"01 - Variables.sol\":1371:1388  uint day = 1 days */\n  0x10\n  sstore\n    /* \"01 - Variables.sol\":1407:1414  1 weeks */\n  0x093a80\n    /* \"01 - Variables.sol\":1395:1414  uint week = 1 weeks */\n  0x11\n  sstore\n    /* \"01 - Variables.sol\":1446:1484  string public course =\"Blockchain Dev\" */\n  mload(0x40)\n  dup1\n  0x40\n  add\n  0x40\n  mstore\n  dup1\n  0x0e\n  dup2\n  mstore\n  0x20\n  add\n  0x426c6f636b636861696e20446576000000000000000000000000000000000000\n  dup2\n  mstore\n  pop\n  0x12\n  swap1\n  dup1\n  mload\n  swap1\n  0x20\n  add\n  swap1\n  tag_9\n  swap3\n  swap2\n  swap1\n  tag_2\n  jump\t// in\ntag_9:\n  pop\n    /* \"01 - Variables.sol\":66:1678  contract Variables{\r... */\n  callvalue\n  dup1\n  iszero\n  tag_10\n  jumpi\n  0x00\n  dup1\n  revert\ntag_10:\n  pop\n  jump(tag_11)\ntag_2:\n  dup3\n  dup1\n  sload\n  tag_12\n  swap1\n  tag_13\n  jump\t// in\ntag_12:\n  swap1\n  0x00\n  mstore\n  keccak256(0x00, 0x20)\n  swap1\n  0x1f\n  add\n  0x20\n  swap1\n  div\n  dup2\n  add\n  swap3\n  dup3\n  tag_15\n  jumpi\n  0x00\n  dup6\n  sstore\n  jump(tag_14)\ntag_15:\n  dup3\n  0x1f\n  lt\n  tag_16\n  jumpi\n  dup1\n  mload\n  not(0xff)\n  and\n  dup4\n  dup1\n  add\n  or\n  dup6\n  sstore\n  jump(tag_14)\ntag_16:\n  dup3\n  dup1\n  add\n  0x01\n  add\n  dup6\n  sstore\n  dup3\n  iszero\n  tag_14\n  jumpi\n  swap2\n  dup3\n  add\ntag_17:\n  dup3\n  dup2\n  gt\n  iszero\n  tag_18\n  jumpi\n  dup3\n  mload\n  dup3\n  sstore\n  swap2\n  0x20\n  add\n  swap2\n  swap1\n  0x01\n  add\n  swap1\n  jump(tag_17)\ntag_18:\ntag_14:\n  pop\n  swap1\n  pop\n  tag_19\n  swap2\n  swap1\n  tag_20\n  jump\t// in\ntag_19:\n  pop\n  swap1\n  jump\t// out\ntag_4:\n  dup3\n  dup1\n  sload\n  tag_21\n  swap1\n  tag_13\n  jump\t// in\ntag_21:\n  swap1\n  0x00\n  mstore\n  keccak256(0x00, 0x20)\n  swap1\n  0x1f\n  add\n  0x20\n  swap1\n  div\n  dup2\n  add\n  swap3\n  dup3\n  tag_23\n  jumpi\n  0x00\n  dup6\n  sstore\n  jump(tag_22)\ntag_23:\n  dup3\n  0x1f\n  lt\n  tag_24\n  jumpi\n  dup1\n  mload\n  not(0xff)\n  and\n  dup4\n  dup1\n  add\n  or\n  dup6\n  sstore\n  jump(tag_22)\ntag_24:\n  dup3\n  dup1\n  add\n  0x01\n  add\n  dup6\n  sstore\n  dup3\n  iszero\n  tag_22\n  jumpi\n  swap2\n  dup3\n  add\ntag_25:\n  dup3\n  dup2\n  gt\n  iszero\n  tag_26\n  jumpi\n  dup3\n  mload\n  dup3\n  sstore\n  swap2\n  0x20\n  add\n  swap2\n  swap1\n  0x01\n  add\n  swap1\n  jump(tag_25)\ntag_26:\ntag_22:\n  pop\n  swap1\n  pop\n  tag_27\n  swap2\n  swap1\n  tag_20\n  jump\t// in\ntag_27:\n  pop\n  swap1\n  jump\t// out\ntag_6:\n  dup3\n  dup1\n  sload\n  dup3\n  dup3\n  sstore\n  swap1\n  0x00\n  mstore\n  keccak256(0x00, 0x20)\n  swap1\n  dup2\n  add\n  swap3\n  dup3\n  iszero\n  tag_28\n  jumpi\n  swap2\n  0x20\n  mul\n  dup3\n  add\ntag_29:\n  dup3\n  dup2\n  gt\n  iszero\n  tag_30\n  jumpi\n  dup3\n  mload\n  dup3\n  swap1\n  dup1\n  mload\n  swap1\n  0x20\n  add\n  swap1\n  tag_31\n  swap3\n  swap2\n  swap1\n  tag_2\n  jump\t// in\ntag_31:\n  pop\n  swap2\n  0x20\n  add\n  swap2\n  swap1\n  0x01\n  add\n  swap1\n  jump(tag_29)\ntag_30:\ntag_28:\n  pop\n  swap1\n  pop\n  tag_32\n  swap2\n  swap1\n  tag_33\n  jump\t// in\ntag_32:\n  pop\n  swap1\n  jump\t// out\ntag_8:\n  dup3\n  dup1\n  sload\n  dup3\n  dup3\n  sstore\n  swap1\n  0x00\n  mstore\n  keccak256(0x00, 0x20)\n  swap1\n  dup2\n  add\n  swap3\n  dup3\n  iszero\n  tag_34\n  jumpi\n  swap2\n  0x20\n  mul\n  dup3\n  add\ntag_35:\n  dup3\n  dup2\n  gt\n  iszero\n  tag_36\n  jumpi\n  dup3\n  mload\n  dup3\n  swap1\n  0xff\n  and\n  swap1\n  sstore\n  swap2\n  0x20\n  add\n  swap2\n  swap1\n  0x01\n  add\n  swap1\n  jump(tag_35)\ntag_36:\ntag_34:\n  pop\n  swap1\n  pop\n  tag_37\n  swap2\n  swap1\n  tag_20\n  jump\t// in\ntag_37:\n  pop\n  swap1\n  jump\t// out\ntag_20:\ntag_38:\n  dup1\n  dup3\n  gt\n  iszero\n  tag_39\n  jumpi\n  0x00\n  dup2\n  0x00\n  swap1\n  sstore\n  pop\n  0x01\n  add\n  jump(tag_38)\ntag_39:\n  pop\n  swap1\n  jump\t// out\ntag_33:\ntag_40:\n  dup1\n  dup3\n  gt\n  iszero\n  tag_41\n  jumpi\n  0x00\n  dup2\n  dup2\n  tag_42\n  swap2\n  swap1\n  tag_43\n  jump\t// in\ntag_42:\n  pop\n  0x01\n  add\n  jump(tag_40)\ntag_41:\n  pop\n  swap1\n  jump\t// out\ntag_43:\n  pop\n  dup1\n  sload\n  tag_44\n  swap1\n  tag_13\n  jump\t// in\ntag_44:\n  0x00\n  dup3\n  sstore\n  dup1\n  0x1f\n  lt\n  tag_46\n  jumpi\n  pop\n  jump(tag_45)\ntag_46:\n  0x1f\n  add\n  0x20\n  swap1\n  div\n  swap1\n  0x00\n  mstore\n  keccak256(0x00, 0x20)\n  swap1\n  dup2\n  add\n  swap1\n  tag_47\n  swap2\n  swap1\n  tag_20\n  jump\t// in\ntag_47:\ntag_45:\n  pop\n  jump\t// out\n    /* \"#utility.yul\":7:327   */\ntag_13:\n    /* \"#utility.yul\":51:57   */\n  0x00\n    /* \"#utility.yul\":88:89   */\n  0x02\n    /* \"#utility.yul\":82:86   */\n  dup3\n    /* \"#utility.yul\":78:90   */\n  div\n    /* \"#utility.yul\":68:90   */\n  swap1\n  pop\n    /* \"#utility.yul\":135:136   */\n  0x01\n    /* \"#utility.yul\":129:133   */\n  dup3\n    /* \"#utility.yul\":125:137   */\n  and\n    /* \"#utility.yul\":156:174   */\n  dup1\n    /* \"#utility.yul\":146:227   */\n  tag_50\n  jumpi\n    /* \"#utility.yul\":212:216   */\n  0x7f\n    /* \"#utility.yul\":204:210   */\n  dup3\n    /* \"#utility.yul\":200:217   */\n  and\n    /* \"#utility.yul\":190:217   */\n  swap2\n  pop\n    /* \"#utility.yul\":146:227   */\ntag_50:\n    /* \"#utility.yul\":274:276   */\n  0x20\n    /* \"#utility.yul\":266:272   */\n  dup3\n    /* \"#utility.yul\":263:277   */\n  lt\n    /* \"#utility.yul\":243:261   */\n  dup2\n    /* \"#utility.yul\":240:278   */\n  eq\n    /* \"#utility.yul\":237:321   */\n  iszero\n  tag_51\n  jumpi\n    /* \"#utility.yul\":293:311   */\n  tag_52\n  tag_53\n  jump\t// in\ntag_52:\n    /* \"#utility.yul\":237:321   */\ntag_51:\n    /* \"#utility.yul\":58:327   */\n  pop\n    /* \"#utility.yul\":7:327   */\n  swap2\n  swap1\n  pop\n  jump\t// out\n    /* \"#utility.yul\":333:513   */\ntag_53:\n    /* \"#utility.yul\":381:458   */\n  0x4e487b7100000000000000000000000000000000000000000000000000000000\n    /* \"#utility.yul\":378:379   */\n  0x00\n    /* \"#utility.yul\":371:459   */\n  mstore\n    /* \"#utility.yul\":478:482   */\n  0x22\n    /* \"#utility.yul\":475:476   */\n  0x04\n    /* \"#utility.yul\":468:483   */\n  mstore\n    /* \"#utility.yul\":502:506   */\n  0x24\n    /* \"#utility.yul\":499:500   */\n  0x00\n    /* \"#utility.yul\":492:507   */\n  revert\n    /* \"01 - Variables.sol\":66:1678  contract Variables{\r... */\ntag_11:\n  dataSize(sub_0)\n  dup1\n  dataOffset(sub_0)\n  0x00\n  codecopy\n  0x00\n  return\nstop\n\nsub_0: assembly {\n        /* \"01 - Variables.sol\":66:1678  contract Variables{\r... */\n      mstore(0x40, 0x80)\n      callvalue\n      dup1\n      iszero\n      tag_1\n      jumpi\n      0x00\n      dup1\n      revert\n    tag_1:\n      pop\n      jumpi(tag_2, lt(calldatasize, 0x04))\n      shr(0xe0, calldataload(0x00))\n      dup1\n      0xcc80f6f3\n      eq\n      tag_3\n      jumpi\n      dup1\n      0xdcf63591\n      eq\n      tag_4\n      jumpi\n    tag_2:\n      0x00\n      dup1\n      revert\n        /* \"01 - Variables.sol\":1493:1675  function show() public view returns(string memory){\r... */\n    tag_3:\n      tag_5\n      tag_6\n      jump\t// in\n    tag_5:\n      mload(0x40)\n      tag_7\n      swap2\n      swap1\n      tag_8\n      jump\t// in\n    tag_7:\n      mload(0x40)\n      dup1\n      swap2\n      sub\n      swap1\n      return\n        /* \"01 - Variables.sol\":1446:1484  string public course =\"Blockchain Dev\" */\n    tag_4:\n      tag_9\n      tag_10\n      jump\t// in\n    tag_9:\n      mload(0x40)\n      tag_11\n      swap2\n      swap1\n      tag_8\n      jump\t// in\n    tag_11:\n      mload(0x40)\n      dup1\n      swap2\n      sub\n      swap1\n      return\n        /* \"01 - Variables.sol\":1493:1675  function show() public view returns(string memory){\r... */\n    tag_6:\n        /* \"01 - Variables.sol\":1529:1542  string memory */\n      0x60\n        /* \"01 - Variables.sol\":1581:1599  string memory info */\n      0x00\n        /* \"01 - Variables.sol\":1581:1611  string memory info = \" Course\" */\n      mload(0x40)\n      dup1\n      0x40\n      add\n      0x40\n      mstore\n      dup1\n      0x07\n      dup2\n      mstore\n      0x20\n      add\n      0x20436f7572736500000000000000000000000000000000000000000000000000\n      dup2\n      mstore\n      pop\n      swap1\n      pop\n        /* \"01 - Variables.sol\":1653:1659  course */\n      0x12\n        /* \"01 - Variables.sol\":1661:1665  info */\n      dup2\n        /* \"01 - Variables.sol\":1636:1666  abi.encodePacked(course, info) */\n      add(0x20, mload(0x40))\n      tag_13\n      swap3\n      swap2\n      swap1\n      tag_14\n      jump\t// in\n    tag_13:\n      mload(0x40)\n      0x20\n      dup2\n      dup4\n      sub\n      sub\n      dup2\n      mstore\n      swap1\n      0x40\n      mstore\n        /* \"01 - Variables.sol\":1622:1667  return string(abi.encodePacked(course, info)) */\n      swap2\n      pop\n      pop\n        /* \"01 - Variables.sol\":1493:1675  function show() public view returns(string memory){\r... */\n      swap1\n      jump\t// out\n        /* \"01 - Variables.sol\":1446:1484  string public course =\"Blockchain Dev\" */\n    tag_10:\n      0x12\n      dup1\n      sload\n      tag_15\n      swap1\n      tag_16\n      jump\t// in\n    tag_15:\n      dup1\n      0x1f\n      add\n      0x20\n      dup1\n      swap2\n      div\n      mul\n      0x20\n      add\n      mload(0x40)\n      swap1\n      dup2\n      add\n      0x40\n      mstore\n      dup1\n      swap3\n      swap2\n      swap1\n      dup2\n      dup2\n      mstore\n      0x20\n      add\n      dup3\n      dup1\n      sload\n      tag_17\n      swap1\n      tag_16\n      jump\t// in\n    tag_17:\n      dup1\n      iszero\n      tag_18\n      jumpi\n      dup1\n      0x1f\n      lt\n      tag_19\n      jumpi\n      0x0100\n      dup1\n      dup4\n      sload\n      div\n      mul\n      dup4\n      mstore\n      swap2\n      0x20\n      add\n      swap2\n      jump(tag_18)\n    tag_19:\n      dup3\n      add\n      swap2\n      swap1\n      0x00\n      mstore\n      keccak256(0x00, 0x20)\n      swap1\n    tag_20:\n      dup2\n      sload\n      dup2\n      mstore\n      swap1\n      0x01\n      add\n      swap1\n      0x20\n      add\n      dup1\n      dup4\n      gt\n      tag_20\n      jumpi\n      dup3\n      swap1\n      sub\n      0x1f\n      and\n      dup3\n      add\n      swap2\n    tag_18:\n      pop\n      pop\n      pop\n      pop\n      pop\n      dup2\n      jump\t// out\n        /* \"#utility.yul\":7:371   */\n    tag_22:\n        /* \"#utility.yul\":95:98   */\n      0x00\n        /* \"#utility.yul\":123:162   */\n      tag_24\n        /* \"#utility.yul\":156:161   */\n      dup3\n        /* \"#utility.yul\":123:162   */\n      tag_25\n      jump\t// in\n    tag_24:\n        /* \"#utility.yul\":178:249   */\n      tag_26\n        /* \"#utility.yul\":242:248   */\n      dup2\n        /* \"#utility.yul\":237:240   */\n      dup6\n        /* \"#utility.yul\":178:249   */\n      tag_27\n      jump\t// in\n    tag_26:\n        /* \"#utility.yul\":171:249   */\n      swap4\n      pop\n        /* \"#utility.yul\":258:310   */\n      tag_28\n        /* \"#utility.yul\":303:309   */\n      dup2\n        /* \"#utility.yul\":298:301   */\n      dup6\n        /* \"#utility.yul\":291:295   */\n      0x20\n        /* \"#utility.yul\":284:289   */\n      dup7\n        /* \"#utility.yul\":280:296   */\n      add\n        /* \"#utility.yul\":258:310   */\n      tag_29\n      jump\t// in\n    tag_28:\n        /* \"#utility.yul\":335:364   */\n      tag_30\n        /* \"#utility.yul\":357:363   */\n      dup2\n        /* \"#utility.yul\":335:364   */\n      tag_31\n      jump\t// in\n    tag_30:\n        /* \"#utility.yul\":330:333   */\n      dup5\n        /* \"#utility.yul\":326:365   */\n      add\n        /* \"#utility.yul\":319:365   */\n      swap2\n      pop\n        /* \"#utility.yul\":99:371   */\n      pop\n        /* \"#utility.yul\":7:371   */\n      swap3\n      swap2\n      pop\n      pop\n      jump\t// out\n        /* \"#utility.yul\":377:754   */\n    tag_32:\n        /* \"#utility.yul\":483:486   */\n      0x00\n        /* \"#utility.yul\":511:550   */\n      tag_34\n        /* \"#utility.yul\":544:549   */\n      dup3\n        /* \"#utility.yul\":511:550   */\n      tag_25\n      jump\t// in\n    tag_34:\n        /* \"#utility.yul\":566:655   */\n      tag_35\n        /* \"#utility.yul\":648:654   */\n      dup2\n        /* \"#utility.yul\":643:646   */\n      dup6\n        /* \"#utility.yul\":566:655   */\n      tag_36\n      jump\t// in\n    tag_35:\n        /* \"#utility.yul\":559:655   */\n      swap4\n      pop\n        /* \"#utility.yul\":664:716   */\n      tag_37\n        /* \"#utility.yul\":709:715   */\n      dup2\n        /* \"#utility.yul\":704:707   */\n      dup6\n        /* \"#utility.yul\":697:701   */\n      0x20\n        /* \"#utility.yul\":690:695   */\n      dup7\n        /* \"#utility.yul\":686:702   */\n      add\n        /* \"#utility.yul\":664:716   */\n      tag_29\n      jump\t// in\n    tag_37:\n        /* \"#utility.yul\":741:747   */\n      dup1\n        /* \"#utility.yul\":736:739   */\n      dup5\n        /* \"#utility.yul\":732:748   */\n      add\n        /* \"#utility.yul\":725:748   */\n      swap2\n      pop\n        /* \"#utility.yul\":487:754   */\n      pop\n        /* \"#utility.yul\":377:754   */\n      swap3\n      swap2\n      pop\n      pop\n      jump\t// out\n        /* \"#utility.yul\":784:1629   */\n    tag_38:\n        /* \"#utility.yul\":887:890   */\n      0x00\n        /* \"#utility.yul\":924:929   */\n      dup2\n        /* \"#utility.yul\":918:930   */\n      sload\n        /* \"#utility.yul\":953:989   */\n      tag_40\n        /* \"#utility.yul\":979:988   */\n      dup2\n        /* \"#utility.yul\":953:989   */\n      tag_16\n      jump\t// in\n    tag_40:\n        /* \"#utility.yul\":1005:1094   */\n      tag_41\n        /* \"#utility.yul\":1087:1093   */\n      dup2\n        /* \"#utility.yul\":1082:1085   */\n      dup7\n        /* \"#utility.yul\":1005:1094   */\n      tag_36\n      jump\t// in\n    tag_41:\n        /* \"#utility.yul\":998:1094   */\n      swap5\n      pop\n        /* \"#utility.yul\":1125:1126   */\n      0x01\n        /* \"#utility.yul\":1114:1123   */\n      dup3\n        /* \"#utility.yul\":1110:1127   */\n      and\n        /* \"#utility.yul\":1141:1142   */\n      0x00\n        /* \"#utility.yul\":1136:1273   */\n      dup2\n      eq\n      tag_43\n      jumpi\n        /* \"#utility.yul\":1287:1288   */\n      0x01\n        /* \"#utility.yul\":1282:1623   */\n      dup2\n      eq\n      tag_44\n      jumpi\n        /* \"#utility.yul\":1103:1623   */\n      jump(tag_42)\n        /* \"#utility.yul\":1136:1273   */\n    tag_43:\n        /* \"#utility.yul\":1220:1224   */\n      0xff\n        /* \"#utility.yul\":1216:1225   */\n      not\n        /* \"#utility.yul\":1205:1214   */\n      dup4\n        /* \"#utility.yul\":1201:1226   */\n      and\n        /* \"#utility.yul\":1196:1199   */\n      dup7\n        /* \"#utility.yul\":1189:1227   */\n      mstore\n        /* \"#utility.yul\":1256:1262   */\n      dup2\n        /* \"#utility.yul\":1251:1254   */\n      dup7\n        /* \"#utility.yul\":1247:1263   */\n      add\n        /* \"#utility.yul\":1240:1263   */\n      swap4\n      pop\n        /* \"#utility.yul\":1136:1273   */\n      jump(tag_42)\n        /* \"#utility.yul\":1282:1623   */\n    tag_44:\n        /* \"#utility.yul\":1349:1387   */\n      tag_45\n        /* \"#utility.yul\":1381:1386   */\n      dup6\n        /* \"#utility.yul\":1349:1387   */\n      tag_46\n      jump\t// in\n    tag_45:\n        /* \"#utility.yul\":1409:1410   */\n      0x00\n        /* \"#utility.yul\":1423:1577   */\n    tag_47:\n        /* \"#utility.yul\":1437:1443   */\n      dup4\n        /* \"#utility.yul\":1434:1435   */\n      dup2\n        /* \"#utility.yul\":1431:1444   */\n      lt\n        /* \"#utility.yul\":1423:1577   */\n      iszero\n      tag_49\n      jumpi\n        /* \"#utility.yul\":1511:1518   */\n      dup2\n        /* \"#utility.yul\":1505:1519   */\n      sload\n        /* \"#utility.yul\":1501:1502   */\n      dup2\n        /* \"#utility.yul\":1496:1499   */\n      dup10\n        /* \"#utility.yul\":1492:1503   */\n      add\n        /* \"#utility.yul\":1485:1520   */\n      mstore\n        /* \"#utility.yul\":1561:1562   */\n      0x01\n        /* \"#utility.yul\":1552:1559   */\n      dup3\n        /* \"#utility.yul\":1548:1563   */\n      add\n        /* \"#utility.yul\":1537:1563   */\n      swap2\n      pop\n        /* \"#utility.yul\":1459:1463   */\n      0x20\n        /* \"#utility.yul\":1456:1457   */\n      dup2\n        /* \"#utility.yul\":1452:1464   */\n      add\n        /* \"#utility.yul\":1447:1464   */\n      swap1\n      pop\n        /* \"#utility.yul\":1423:1577   */\n      jump(tag_47)\n    tag_49:\n        /* \"#utility.yul\":1606:1612   */\n      dup4\n        /* \"#utility.yul\":1601:1604   */\n      dup9\n        /* \"#utility.yul\":1597:1613   */\n      add\n        /* \"#utility.yul\":1590:1613   */\n      swap6\n      pop\n        /* \"#utility.yul\":1289:1623   */\n      pop\n      pop\n        /* \"#utility.yul\":1103:1623   */\n    tag_42:\n      pop\n        /* \"#utility.yul\":891:1629   */\n      pop\n      pop\n        /* \"#utility.yul\":784:1629   */\n      swap3\n      swap2\n      pop\n      pop\n      jump\t// out\n        /* \"#utility.yul\":1635:2064   */\n    tag_14:\n        /* \"#utility.yul\":1812:1815   */\n      0x00\n        /* \"#utility.yul\":1834:1926   */\n      tag_51\n        /* \"#utility.yul\":1922:1925   */\n      dup3\n        /* \"#utility.yul\":1913:1919   */\n      dup6\n        /* \"#utility.yul\":1834:1926   */\n      tag_38\n      jump\t// in\n    tag_51:\n        /* \"#utility.yul\":1827:1926   */\n      swap2\n      pop\n        /* \"#utility.yul\":1943:2038   */\n      tag_52\n        /* \"#utility.yul\":2034:2037   */\n      dup3\n        /* \"#utility.yul\":2025:2031   */\n      dup5\n        /* \"#utility.yul\":1943:2038   */\n      tag_32\n      jump\t// in\n    tag_52:\n        /* \"#utility.yul\":1936:2038   */\n      swap2\n      pop\n        /* \"#utility.yul\":2055:2058   */\n      dup2\n        /* \"#utility.yul\":2048:2058   */\n      swap1\n      pop\n        /* \"#utility.yul\":1635:2064   */\n      swap4\n      swap3\n      pop\n      pop\n      pop\n      jump\t// out\n        /* \"#utility.yul\":2070:2383   */\n    tag_8:\n        /* \"#utility.yul\":2183:2187   */\n      0x00\n        /* \"#utility.yul\":2221:2223   */\n      0x20\n        /* \"#utility.yul\":2210:2219   */\n      dup3\n        /* \"#utility.yul\":2206:2224   */\n      add\n        /* \"#utility.yul\":2198:2224   */\n      swap1\n      pop\n        /* \"#utility.yul\":2270:2279   */\n      dup2\n        /* \"#utility.yul\":2264:2268   */\n      dup2\n        /* \"#utility.yul\":2260:2280   */\n      sub\n        /* \"#utility.yul\":2256:2257   */\n      0x00\n        /* \"#utility.yul\":2245:2254   */\n      dup4\n        /* \"#utility.yul\":2241:2258   */\n      add\n        /* \"#utility.yul\":2234:2281   */\n      mstore\n        /* \"#utility.yul\":2298:2376   */\n      tag_54\n        /* \"#utility.yul\":2371:2375   */\n      dup2\n        /* \"#utility.yul\":2362:2368   */\n      dup5\n        /* \"#utility.yul\":2298:2376   */\n      tag_22\n      jump\t// in\n    tag_54:\n        /* \"#utility.yul\":2290:2376   */\n      swap1\n      pop\n        /* \"#utility.yul\":2070:2383   */\n      swap3\n      swap2\n      pop\n      pop\n      jump\t// out\n        /* \"#utility.yul\":2389:2530   */\n    tag_46:\n        /* \"#utility.yul\":2438:2442   */\n      0x00\n        /* \"#utility.yul\":2461:2464   */\n      dup2\n        /* \"#utility.yul\":2453:2464   */\n      swap1\n      pop\n        /* \"#utility.yul\":2484:2487   */\n      dup2\n        /* \"#utility.yul\":2481:2482   */\n      0x00\n        /* \"#utility.yul\":2474:2488   */\n      mstore\n        /* \"#utility.yul\":2518:2522   */\n      0x20\n        /* \"#utility.yul\":2515:2516   */\n      0x00\n        /* \"#utility.yul\":2505:2523   */\n      keccak256\n        /* \"#utility.yul\":2497:2523   */\n      swap1\n      pop\n        /* \"#utility.yul\":2389:2530   */\n      swap2\n      swap1\n      pop\n      jump\t// out\n        /* \"#utility.yul\":2536:2635   */\n    tag_25:\n        /* \"#utility.yul\":2588:2594   */\n      0x00\n        /* \"#utility.yul\":2622:2627   */\n      dup2\n        /* \"#utility.yul\":2616:2628   */\n      mload\n        /* \"#utility.yul\":2606:2628   */\n      swap1\n      pop\n        /* \"#utility.yul\":2536:2635   */\n      swap2\n      swap1\n      pop\n      jump\t// out\n        /* \"#utility.yul\":2641:2810   */\n    tag_27:\n        /* \"#utility.yul\":2725:2736   */\n      0x00\n        /* \"#utility.yul\":2759:2765   */\n      dup3\n        /* \"#utility.yul\":2754:2757   */\n      dup3\n        /* \"#utility.yul\":2747:2766   */\n      mstore\n        /* \"#utility.yul\":2799:2803   */\n      0x20\n        /* \"#utility.yul\":2794:2797   */\n      dup3\n        /* \"#utility.yul\":2790:2804   */\n      add\n        /* \"#utility.yul\":2775:2804   */\n      swap1\n      pop\n        /* \"#utility.yul\":2641:2810   */\n      swap3\n      swap2\n      pop\n      pop\n      jump\t// out\n        /* \"#utility.yul\":2816:2964   */\n    tag_36:\n        /* \"#utility.yul\":2918:2929   */\n      0x00\n        /* \"#utility.yul\":2955:2958   */\n      dup2\n        /* \"#utility.yul\":2940:2958   */\n      swap1\n      pop\n        /* \"#utility.yul\":2816:2964   */\n      swap3\n      swap2\n      pop\n      pop\n      jump\t// out\n        /* \"#utility.yul\":2970:3277   */\n    tag_29:\n        /* \"#utility.yul\":3038:3039   */\n      0x00\n        /* \"#utility.yul\":3048:3161   */\n    tag_60:\n        /* \"#utility.yul\":3062:3068   */\n      dup4\n        /* \"#utility.yul\":3059:3060   */\n      dup2\n        /* \"#utility.yul\":3056:3069   */\n      lt\n        /* \"#utility.yul\":3048:3161   */\n      iszero\n      tag_62\n      jumpi\n        /* \"#utility.yul\":3147:3148   */\n      dup1\n        /* \"#utility.yul\":3142:3145   */\n      dup3\n        /* \"#utility.yul\":3138:3149   */\n      add\n        /* \"#utility.yul\":3132:3150   */\n      mload\n        /* \"#utility.yul\":3128:3129   */\n      dup2\n        /* \"#utility.yul\":3123:3126   */\n      dup5\n        /* \"#utility.yul\":3119:3130   */\n      add\n        /* \"#utility.yul\":3112:3151   */\n      mstore\n        /* \"#utility.yul\":3084:3086   */\n      0x20\n        /* \"#utility.yul\":3081:3082   */\n      dup2\n        /* \"#utility.yul\":3077:3087   */\n      add\n        /* \"#utility.yul\":3072:3087   */\n      swap1\n      pop\n        /* \"#utility.yul\":3048:3161   */\n      jump(tag_60)\n    tag_62:\n        /* \"#utility.yul\":3179:3185   */\n      dup4\n        /* \"#utility.yul\":3176:3177   */\n      dup2\n        /* \"#utility.yul\":3173:3186   */\n      gt\n        /* \"#utility.yul\":3170:3271   */\n      iszero\n      tag_63\n      jumpi\n        /* \"#utility.yul\":3259:3260   */\n      0x00\n        /* \"#utility.yul\":3250:3256   */\n      dup5\n        /* \"#utility.yul\":3245:3248   */\n      dup5\n        /* \"#utility.yul\":3241:3257   */\n      add\n        /* \"#utility.yul\":3234:3261   */\n      mstore\n        /* \"#utility.yul\":3170:3271   */\n    tag_63:\n        /* \"#utility.yul\":3019:3277   */\n      pop\n        /* \"#utility.yul\":2970:3277   */\n      pop\n      pop\n      pop\n      jump\t// out\n        /* \"#utility.yul\":3283:3603   */\n    tag_16:\n        /* \"#utility.yul\":3327:3333   */\n      0x00\n        /* \"#utility.yul\":3364:3365   */\n      0x02\n        /* \"#utility.yul\":3358:3362   */\n      dup3\n        /* \"#utility.yul\":3354:3366   */\n      div\n        /* \"#utility.yul\":3344:3366   */\n      swap1\n      pop\n        /* \"#utility.yul\":3411:3412   */\n      0x01\n        /* \"#utility.yul\":3405:3409   */\n      dup3\n        /* \"#utility.yul\":3401:3413   */\n      and\n        /* \"#utility.yul\":3432:3450   */\n      dup1\n        /* \"#utility.yul\":3422:3503   */\n      tag_65\n      jumpi\n        /* \"#utility.yul\":3488:3492   */\n      0x7f\n        /* \"#utility.yul\":3480:3486   */\n      dup3\n        /* \"#utility.yul\":3476:3493   */\n      and\n        /* \"#utility.yul\":3466:3493   */\n      swap2\n      pop\n        /* \"#utility.yul\":3422:3503   */\n    tag_65:\n        /* \"#utility.yul\":3550:3552   */\n      0x20\n        /* \"#utility.yul\":3542:3548   */\n      dup3\n        /* \"#utility.yul\":3539:3553   */\n      lt\n        /* \"#utility.yul\":3519:3537   */\n      dup2\n        /* \"#utility.yul\":3516:3554   */\n      eq\n        /* \"#utility.yul\":3513:3597   */\n      iszero\n      tag_66\n      jumpi\n        /* \"#utility.yul\":3569:3587   */\n      tag_67\n      tag_68\n      jump\t// in\n    tag_67:\n        /* \"#utility.yul\":3513:3597   */\n    tag_66:\n        /* \"#utility.yul\":3334:3603   */\n      pop\n        /* \"#utility.yul\":3283:3603   */\n      swap2\n      swap1\n      pop\n      jump\t// out\n        /* \"#utility.yul\":3609:3789   */\n    tag_68:\n        /* \"#utility.yul\":3657:3734   */\n      0x4e487b7100000000000000000000000000000000000000000000000000000000\n        /* \"#utility.yul\":3654:3655   */\n      0x00\n        /* \"#utility.yul\":3647:3735   */\n      mstore\n        /* \"#utility.yul\":3754:3758   */\n      0x22\n        /* \"#utility.yul\":3751:3752   */\n      0x04\n        /* \"#utility.yul\":3744:3759   */\n      mstore\n        /* \"#utility.yul\":3778:3782   */\n      0x24\n        /* \"#utility.yul\":3775:3776   */\n      0x00\n        /* \"#utility.yul\":3768:3783   */\n      revert\n        /* \"#utility.yul\":3795:3897   */\n    tag_31:\n        /* \"#utility.yul\":3836:3842   */\n      0x00\n        /* \"#utility.yul\":3887:3889   */\n      0x1f\n        /* \"#utility.yul\":3883:3890   */\n      not\n        /* \"#utility.yul\":3878:3880   */\n      0x1f\n        /* \"#utility.yul\":3871:3876   */\n      dup4\n        /* \"#utility.yul\":3867:3881   */\n      add\n        /* \"#utility.yul\":3863:3891   */\n      and\n        /* \"#utility.yul\":3853:3891   */\n      swap1\n      pop\n        /* \"#utility.yul\":3795:3897   */\n      swap2\n      swap1\n      pop\n      jump\t// out\n\n    auxdata: 0xa2646970667358221220f8b1609ded04ac2724c51ba42f6609052df085f82286bab11782b38e4747630a64736f6c63430008070033\n}\n",
				"bytecode": {
					"linkReferences": {},
					"object": "60806040527f596176757a20696c68616e0000000000000000000000000000000000000000006004556040518060400160405280600b81526020017f596176757a20696c68616e000000000000000000000000000000000000000000815250600590805190602001906100739291906102a7565b506040518060400160405280600b81526020017f596176757a20696c68616e000000000000000000000000000000000000000000815250600690805190602001906100bf92919061032d565b5060405180608001604052806040518060400160405280600581526020017f596176757a00000000000000000000000000000000000000000000000000000081525081526020016040518060400160405280600581526020017f696c68616e00000000000000000000000000000000000000000000000000000081525081526020016040518060400160405280600581526020017f41686d657400000000000000000000000000000000000000000000000000000081525081526020016040518060400160405280600481526020017f56656c690000000000000000000000000000000000000000000000000000000081525081525060079060046101c59291906103b3565b506040518060a00160405280600160ff168152602001600260ff168152602001600360ff168152602001600460ff168152602001600560ff168152506008906005610211929190610413565b506001600a55633b9aca00600b55670de0b6b3a7640000600c556001600d55603c600e55610e10600f556201518060105562093a806011556040518060400160405280600e81526020017f426c6f636b636861696e20446576000000000000000000000000000000000000815250601290805190602001906102949291906102a7565b503480156102a157600080fd5b50610547565b8280546102b3906104e6565b90600052602060002090601f0160209004810192826102d5576000855561031c565b82601f106102ee57805160ff191683800117855561031c565b8280016001018555821561031c579182015b8281111561031b578251825591602001919060010190610300565b5b5090506103299190610465565b5090565b828054610339906104e6565b90600052602060002090601f01602090048101928261035b57600085556103a2565b82601f1061037457805160ff19168380011785556103a2565b828001600101855582156103a2579182015b828111156103a1578251825591602001919060010190610386565b5b5090506103af9190610465565b5090565b828054828255906000526020600020908101928215610402579160200282015b828111156104015782518290805190602001906103f19291906102a7565b50916020019190600101906103d3565b5b50905061040f9190610482565b5090565b828054828255906000526020600020908101928215610454579160200282015b82811115610453578251829060ff16905591602001919060010190610433565b5b5090506104619190610465565b5090565b5b8082111561047e576000816000905550600101610466565b5090565b5b808211156104a2576000818161049991906104a6565b50600101610483565b5090565b5080546104b2906104e6565b6000825580601f106104c457506104e3565b601f0160209004906000526020600020908101906104e29190610465565b5b50565b600060028204905060018216806104fe57607f821691505b6020821081141561051257610511610518565b5b50919050565b7f4e487b7100000000000000000000000000000000000000000000000000000000600052602260045260246000fd5b6103b0806105566000396000f3fe608060405234801561001057600080fd5b50600436106100365760003560e01c8063cc80f6f31461003b578063dcf6359114610059575b600080fd5b610043610077565b6040516100509190610277565b60405180910390f35b6100616100dc565b60405161006e9190610277565b60405180910390f35b606060006040518060400160405280600781526020017f20436f757273650000000000000000000000000000000000000000000000000081525090506012816040516020016100c7929190610253565b60405160208183030381529060405291505090565b601280546100e990610308565b80601f016020809104026020016040519081016040528092919081815260200182805461011590610308565b80156101625780601f1061013757610100808354040283529160200191610162565b820191906000526020600020905b81548152906001019060200180831161014557829003601f168201915b505050505081565b6000610175826102ae565b61017f81856102b9565b935061018f8185602086016102d5565b61019881610369565b840191505092915050565b60006101ae826102ae565b6101b881856102ca565b93506101c88185602086016102d5565b80840191505092915050565b600081546101e181610308565b6101eb81866102ca565b9450600182166000811461020657600181146102175761024a565b60ff1983168652818601935061024a565b61022085610299565b60005b8381101561024257815481890152600182019150602081019050610223565b838801955050505b50505092915050565b600061025f82856101d4565b915061026b82846101a3565b91508190509392505050565b60006020820190508181036000830152610291818461016a565b905092915050565b60008190508160005260206000209050919050565b600081519050919050565b600082825260208201905092915050565b600081905092915050565b60005b838110156102f35780820151818401526020810190506102d8565b83811115610302576000848401525b50505050565b6000600282049050600182168061032057607f821691505b602082108114156103345761033361033a565b5b50919050565b7f4e487b7100000000000000000000000000000000000000000000000000000000600052602260045260246000fd5b6000601f19601f830116905091905056fea2646970667358221220f8b1609ded04ac2724c51ba42f6609052df085f82286bab11782b38e4747630a64736f6c63430008070033",
					"opcodes": "PUSH1 0x80 PUSH1 0x40 MSTORE PUSH32 0x596176757A20696C68616E000000000000000000000000000000000000000000 PUSH1 0x4 SSTORE PUSH1 0x40 MLOAD DUP1 PUSH1 0x40 ADD PUSH1 0x40 MSTORE DUP1 PUSH1 0xB DUP2 MSTORE PUSH1 0x20 ADD PUSH32 0x596176757A20696C68616E000000000000000000000000000000000000000000 DUP2 MSTORE POP PUSH1 0x5 SWAP1 DUP1 MLOAD SWAP1 PUSH1 0x20 ADD SWAP1 PUSH2 0x73 SWAP3 SWAP2 SWAP1 PUSH2 0x2A7 JUMP JUMPDEST POP PUSH1 0x40 MLOAD DUP1 PUSH1 0x40 ADD PUSH1 0x40 MSTORE DUP1 PUSH1 0xB DUP2 MSTORE PUSH1 0x20 ADD PUSH32 0x596176757A20696C68616E000000000000000000000000000000000000000000 DUP2 MSTORE POP PUSH1 0x6 SWAP1 DUP1 MLOAD SWAP1 PUSH1 0x20 ADD SWAP1 PUSH2 0xBF SWAP3 SWAP2 SWAP1 PUSH2 0x32D JUMP JUMPDEST POP PUSH1 0x40 MLOAD DUP1 PUSH1 0x80 ADD PUSH1 0x40 MSTORE DUP1 PUSH1 0x40 MLOAD DUP1 PUSH1 0x40 ADD PUSH1 0x40 MSTORE DUP1 PUSH1 0x5 DUP2 MSTORE PUSH1 0x20 ADD PUSH32 0x596176757A000000000000000000000000000000000000000000000000000000 DUP2 MSTORE POP DUP2 MSTORE PUSH1 0x20 ADD PUSH1 0x40 MLOAD DUP1 PUSH1 0x40 ADD PUSH1 0x40 MSTORE DUP1 PUSH1 0x5 DUP2 MSTORE PUSH1 0x20 ADD PUSH32 0x696C68616E000000000000000000000000000000000000000000000000000000 DUP2 MSTORE POP DUP2 MSTORE PUSH1 0x20 ADD PUSH1 0x40 MLOAD DUP1 PUSH1 0x40 ADD PUSH1 0x40 MSTORE DUP1 PUSH1 0x5 DUP2 MSTORE PUSH1 0x20 ADD PUSH32 0x41686D6574000000000000000000000000000000000000000000000000000000 DUP2 MSTORE POP DUP2 MSTORE PUSH1 0x20 ADD PUSH1 0x40 MLOAD DUP1 PUSH1 0x40 ADD PUSH1 0x40 MSTORE DUP1 PUSH1 0x4 DUP2 MSTORE PUSH1 0x20 ADD PUSH32 0x56656C6900000000000000000000000000000000000000000000000000000000 DUP2 MSTORE POP DUP2 MSTORE POP PUSH1 0x7 SWAP1 PUSH1 0x4 PUSH2 0x1C5 SWAP3 SWAP2 SWAP1 PUSH2 0x3B3 JUMP JUMPDEST POP PUSH1 0x40 MLOAD DUP1 PUSH1 0xA0 ADD PUSH1 0x40 MSTORE DUP1 PUSH1 0x1 PUSH1 0xFF AND DUP2 MSTORE PUSH1 0x20 ADD PUSH1 0x2 PUSH1 0xFF AND DUP2 MSTORE PUSH1 0x20 ADD PUSH1 0x3 PUSH1 0xFF AND DUP2 MSTORE PUSH1 0x20 ADD PUSH1 0x4 PUSH1 0xFF AND DUP2 MSTORE PUSH1 0x20 ADD PUSH1 0x5 PUSH1 0xFF AND DUP2 MSTORE POP PUSH1 0x8 SWAP1 PUSH1 0x5 PUSH2 0x211 SWAP3 SWAP2 SWAP1 PUSH2 0x413 JUMP JUMPDEST POP PUSH1 0x1 PUSH1 0xA SSTORE PUSH4 0x3B9ACA00 PUSH1 0xB SSTORE PUSH8 0xDE0B6B3A7640000 PUSH1 0xC SSTORE PUSH1 0x1 PUSH1 0xD SSTORE PUSH1 0x3C PUSH1 0xE SSTORE PUSH2 0xE10 PUSH1 0xF SSTORE PUSH3 0x15180 PUSH1 0x10 SSTORE PUSH3 0x93A80 PUSH1 0x11 SSTORE PUSH1 0x40 MLOAD DUP1 PUSH1 0x40 ADD PUSH1 0x40 MSTORE DUP1 PUSH1 0xE DUP2 MSTORE PUSH1 0x20 ADD PUSH32 0x426C6F636B636861696E20446576000000000000000000000000000000000000 DUP2 MSTORE POP PUSH1 0x12 SWAP1 DUP1 MLOAD SWAP1 PUSH1 0x20 ADD SWAP1 PUSH2 0x294 SWAP3 SWAP2 SWAP1 PUSH2 0x2A7 JUMP JUMPDEST POP CALLVALUE DUP1 ISZERO PUSH2 0x2A1 JUMPI PUSH1 0x0 DUP1 REVERT JUMPDEST POP PUSH2 0x547 JUMP JUMPDEST DUP3 DUP1 SLOAD PUSH2 0x2B3 SWAP1 PUSH2 0x4E6 JUMP JUMPDEST SWAP1 PUSH1 0x0 MSTORE PUSH1 0x20 PUSH1 0x0 KECCAK256 SWAP1 PUSH1 0x1F ADD PUSH1 0x20 SWAP1 DIV DUP2 ADD SWAP3 DUP3 PUSH2 0x2D5 JUMPI PUSH1 0x0 DUP6 SSTORE PUSH2 0x31C JUMP JUMPDEST DUP3 PUSH1 0x1F LT PUSH2 0x2EE JUMPI DUP1 MLOAD PUSH1 0xFF NOT AND DUP4 DUP1 ADD OR DUP6 SSTORE PUSH2 0x31C JUMP JUMPDEST DUP3 DUP1 ADD PUSH1 0x1 ADD DUP6 SSTORE DUP3 ISZERO PUSH2 0x31C JUMPI SWAP2 DUP3 ADD JUMPDEST DUP3 DUP2 GT ISZERO PUSH2 0x31B JUMPI DUP3 MLOAD DUP3 SSTORE SWAP2 PUSH1 0x20 ADD SWAP2 SWAP1 PUSH1 0x1 ADD SWAP1 PUSH2 0x300 JUMP JUMPDEST JUMPDEST POP SWAP1 POP PUSH2 0x329 SWAP2 SWAP1 PUSH2 0x465 JUMP JUMPDEST POP SWAP1 JUMP JUMPDEST DUP3 DUP1 SLOAD PUSH2 0x339 SWAP1 PUSH2 0x4E6 JUMP JUMPDEST SWAP1 PUSH1 0x0 MSTORE PUSH1 0x20 PUSH1 0x0 KECCAK256 SWAP1 PUSH1 0x1F ADD PUSH1 0x20 SWAP1 DIV DUP2 ADD SWAP3 DUP3 PUSH2 0x35B JUMPI PUSH1 0x0 DUP6 SSTORE PUSH2 0x3A2 JUMP JUMPDEST DUP3 PUSH1 0x1F LT PUSH2 0x374 JUMPI DUP1 MLOAD PUSH1 0xFF NOT AND DUP4 DUP1 ADD OR DUP6 SSTORE PUSH2 0x3A2 JUMP JUMPDEST DUP3 DUP1 ADD PUSH1 0x1 ADD DUP6 SSTORE DUP3 ISZERO PUSH2 0x3A2 JUMPI SWAP2 DUP3 ADD JUMPDEST DUP3 DUP2 GT ISZERO PUSH2 0x3A1 JUMPI DUP3 MLOAD DUP3 SSTORE SWAP2 PUSH1 0x20 ADD SWAP2 SWAP1 PUSH1 0x1 ADD SWAP1 PUSH2 0x386 JUMP JUMPDEST JUMPDEST POP SWAP1 POP PUSH2 0x3AF SWAP2 SWAP1 PUSH2 0x465 JUMP JUMPDEST POP SWAP1 JUMP JUMPDEST DUP3 DUP1 SLOAD DUP3 DUP3 SSTORE SWAP1 PUSH1 0x0 MSTORE PUSH1 0x20 PUSH1 0x0 KECCAK256 SWAP1 DUP2 ADD SWAP3 DUP3 ISZERO PUSH2 0x402 JUMPI SWAP2 PUSH1 0x20 MUL DUP3 ADD JUMPDEST DUP3 DUP2 GT ISZERO PUSH2 0x401 JUMPI DUP3 MLOAD DUP3 SWAP1 DUP1 MLOAD SWAP1 PUSH1 0x20 ADD SWAP1 PUSH2 0x3F1 SWAP3 SWAP2 SWAP1 PUSH2 0x2A7 JUMP JUMPDEST POP SWAP2 PUSH1 0x20 ADD SWAP2 SWAP1 PUSH1 0x1 ADD SWAP1 PUSH2 0x3D3 JUMP JUMPDEST JUMPDEST POP SWAP1 POP PUSH2 0x40F SWAP2 SWAP1 PUSH2 0x482 JUMP JUMPDEST POP SWAP1 JUMP JUMPDEST DUP3 DUP1 SLOAD DUP3 DUP3 SSTORE SWAP1 PUSH1 0x0 MSTORE PUSH1 0x20 PUSH1 0x0 KECCAK256 SWAP1 DUP2 ADD SWAP3 DUP3 ISZERO PUSH2 0x454 JUMPI SWAP2 PUSH1 0x20 MUL DUP3 ADD JUMPDEST DUP3 DUP2 GT ISZERO PUSH2 0x453 JUMPI DUP3 MLOAD DUP3 SWAP1 PUSH1 0xFF AND SWAP1 SSTORE SWAP2 PUSH1 0x20 ADD SWAP2 SWAP1 PUSH1 0x1 ADD SWAP1 PUSH2 0x433 JUMP JUMPDEST JUMPDEST POP SWAP1 POP PUSH2 0x461 SWAP2 SWAP1 PUSH2 0x465 JUMP JUMPDEST POP SWAP1 JUMP JUMPDEST JUMPDEST DUP1 DUP3 GT ISZERO PUSH2 0x47E JUMPI PUSH1 0x0 DUP2 PUSH1 0x0 SWAP1 SSTORE POP PUSH1 0x1 ADD PUSH2 0x466 JUMP JUMPDEST POP SWAP1 JUMP JUMPDEST JUMPDEST DUP1 DUP3 GT ISZERO PUSH2 0x4A2 JUMPI PUSH1 0x0 DUP2 DUP2 PUSH2 0x499 SWAP2 SWAP1 PUSH2 0x4A6 JUMP JUMPDEST POP PUSH1 0x1 ADD PUSH2 0x483 JUMP JUMPDEST POP SWAP1 JUMP JUMPDEST POP DUP1 SLOAD PUSH2 0x4B2 SWAP1 PUSH2 0x4E6 JUMP JUMPDEST PUSH1 0x0 DUP3 SSTORE DUP1 PUSH1 0x1F LT PUSH2 0x4C4 JUMPI POP PUSH2 0x4E3 JUMP JUMPDEST PUSH1 0x1F ADD PUSH1 0x20 SWAP1 DIV SWAP1 PUSH1 0x0 MSTORE PUSH1 0x20 PUSH1 0x0 KECCAK256 SWAP1 DUP2 ADD SWAP1 PUSH2 0x4E2 SWAP2 SWAP1 PUSH2 0x465 JUMP JUMPDEST JUMPDEST POP JUMP JUMPDEST PUSH1 0x0 PUSH1 0x2 DUP3 DIV SWAP1 POP PUSH1 0x1 DUP3 AND DUP1 PUSH2 0x4FE JUMPI PUSH1 0x7F DUP3 AND SWAP2 POP JUMPDEST PUSH1 0x20 DUP3 LT DUP2 EQ ISZERO PUSH2 0x512 JUMPI PUSH2 0x511 PUSH2 0x518 JUMP JUMPDEST JUMPDEST POP SWAP2 SWAP1 POP JUMP JUMPDEST PUSH32 0x4E487B7100000000000000000000000000000000000000000000000000000000 PUSH1 0x0 MSTORE PUSH1 0x22 PUSH1 0x4 MSTORE PUSH1 0x24 PUSH1 0x0 REVERT JUMPDEST PUSH2 0x3B0 DUP1 PUSH2 0x556 PUSH1 0x0 CODECOPY PUSH1 0x0 RETURN INVALID PUSH1 0x80 PUSH1 0x40 MSTORE CALLVALUE DUP1 ISZERO PUSH2 0x10 JUMPI PUSH1 0x0 DUP1 REVERT JUMPDEST POP PUSH1 0x4 CALLDATASIZE LT PUSH2 0x36 JUMPI PUSH1 0x0 CALLDATALOAD PUSH1 0xE0 SHR DUP1 PUSH4 0xCC80F6F3 EQ PUSH2 0x3B JUMPI DUP1 PUSH4 0xDCF63591 EQ PUSH2 0x59 JUMPI JUMPDEST PUSH1 0x0 DUP1 REVERT JUMPDEST PUSH2 0x43 PUSH2 0x77 JUMP JUMPDEST PUSH1 0x40 MLOAD PUSH2 0x50 SWAP2 SWAP1 PUSH2 0x277 JUMP JUMPDEST PUSH1 0x40 MLOAD DUP1 SWAP2 SUB SWAP1 RETURN JUMPDEST PUSH2 0x61 PUSH2 0xDC JUMP JUMPDEST PUSH1 0x40 MLOAD PUSH2 0x6E SWAP2 SWAP1 PUSH2 0x277 JUMP JUMPDEST PUSH1 0x40 MLOAD DUP1 SWAP2 SUB SWAP1 RETURN JUMPDEST PUSH1 0x60 PUSH1 0x0 PUSH1 0x40 MLOAD DUP1 PUSH1 0x40 ADD PUSH1 0x40 MSTORE DUP1 PUSH1 0x7 DUP2 MSTORE PUSH1 0x20 ADD PUSH32 0x20436F7572736500000000000000000000000000000000000000000000000000 DUP2 MSTORE POP SWAP1 POP PUSH1 0x12 DUP2 PUSH1 0x40 MLOAD PUSH1 0x20 ADD PUSH2 0xC7 SWAP3 SWAP2 SWAP1 PUSH2 0x253 JUMP JUMPDEST PUSH1 0x40 MLOAD PUSH1 0x20 DUP2 DUP4 SUB SUB DUP2 MSTORE SWAP1 PUSH1 0x40 MSTORE SWAP2 POP POP SWAP1 JUMP JUMPDEST PUSH1 0x12 DUP1 SLOAD PUSH2 0xE9 SWAP1 PUSH2 0x308 JUMP JUMPDEST DUP1 PUSH1 0x1F ADD PUSH1 0x20 DUP1 SWAP2 DIV MUL PUSH1 0x20 ADD PUSH1 0x40 MLOAD SWAP1 DUP2 ADD PUSH1 0x40 MSTORE DUP1 SWAP3 SWAP2 SWAP1 DUP2 DUP2 MSTORE PUSH1 0x20 ADD DUP3 DUP1 SLOAD PUSH2 0x115 SWAP1 PUSH2 0x308 JUMP JUMPDEST DUP1 ISZERO PUSH2 0x162 JUMPI DUP1 PUSH1 0x1F LT PUSH2 0x137 JUMPI PUSH2 0x100 DUP1 DUP4 SLOAD DIV MUL DUP4 MSTORE SWAP2 PUSH1 0x20 ADD SWAP2 PUSH2 0x162 JUMP JUMPDEST DUP3 ADD SWAP2 SWAP1 PUSH1 0x0 MSTORE PUSH1 0x20 PUSH1 0x0 KECCAK256 SWAP1 JUMPDEST DUP2 SLOAD DUP2 MSTORE SWAP1 PUSH1 0x1 ADD SWAP1 PUSH1 0x20 ADD DUP1 DUP4 GT PUSH2 0x145 JUMPI DUP3 SWAP1 SUB PUSH1 0x1F AND DUP3 ADD SWAP2 JUMPDEST POP POP POP POP POP DUP2 JUMP JUMPDEST PUSH1 0x0 PUSH2 0x175 DUP3 PUSH2 0x2AE JUMP JUMPDEST PUSH2 0x17F DUP2 DUP6 PUSH2 0x2B9 JUMP JUMPDEST SWAP4 POP PUSH2 0x18F DUP2 DUP6 PUSH1 0x20 DUP7 ADD PUSH2 0x2D5 JUMP JUMPDEST PUSH2 0x198 DUP2 PUSH2 0x369 JUMP JUMPDEST DUP5 ADD SWAP2 POP POP SWAP3 SWAP2 POP POP JUMP JUMPDEST PUSH1 0x0 PUSH2 0x1AE DUP3 PUSH2 0x2AE JUMP JUMPDEST PUSH2 0x1B8 DUP2 DUP6 PUSH2 0x2CA JUMP JUMPDEST SWAP4 POP PUSH2 0x1C8 DUP2 DUP6 PUSH1 0x20 DUP7 ADD PUSH2 0x2D5 JUMP JUMPDEST DUP1 DUP5 ADD SWAP2 POP POP SWAP3 SWAP2 POP POP JUMP JUMPDEST PUSH1 0x0 DUP2 SLOAD PUSH2 0x1E1 DUP2 PUSH2 0x308 JUMP JUMPDEST PUSH2 0x1EB DUP2 DUP7 PUSH2 0x2CA JUMP JUMPDEST SWAP5 POP PUSH1 0x1 DUP3 AND PUSH1 0x0 DUP2 EQ PUSH2 0x206 JUMPI PUSH1 0x1 DUP2 EQ PUSH2 0x217 JUMPI PUSH2 0x24A JUMP JUMPDEST PUSH1 0xFF NOT DUP4 AND DUP7 MSTORE DUP2 DUP7 ADD SWAP4 POP PUSH2 0x24A JUMP JUMPDEST PUSH2 0x220 DUP6 PUSH2 0x299 JUMP JUMPDEST PUSH1 0x0 JUMPDEST DUP4 DUP2 LT ISZERO PUSH2 0x242 JUMPI DUP2 SLOAD DUP2 DUP10 ADD MSTORE PUSH1 0x1 DUP3 ADD SWAP2 POP PUSH1 0x20 DUP2 ADD SWAP1 POP PUSH2 0x223 JUMP JUMPDEST DUP4 DUP9 ADD SWAP6 POP POP POP JUMPDEST POP POP POP SWAP3 SWAP2 POP POP JUMP JUMPDEST PUSH1 0x0 PUSH2 0x25F DUP3 DUP6 PUSH2 0x1D4 JUMP JUMPDEST SWAP2 POP PUSH2 0x26B DUP3 DUP5 PUSH2 0x1A3 JUMP JUMPDEST SWAP2 POP DUP2 SWAP1 POP SWAP4 SWAP3 POP POP POP JUMP JUMPDEST PUSH1 0x0 PUSH1 0x20 DUP3 ADD SWAP1 POP DUP2 DUP2 SUB PUSH1 0x0 DUP4 ADD MSTORE PUSH2 0x291 DUP2 DUP5 PUSH2 0x16A JUMP JUMPDEST SWAP1 POP SWAP3 SWAP2 POP POP JUMP JUMPDEST PUSH1 0x0 DUP2 SWAP1 POP DUP2 PUSH1 0x0 MSTORE PUSH1 0x20 PUSH1 0x0 KECCAK256 SWAP1 POP SWAP2 SWAP1 POP JUMP JUMPDEST PUSH1 0x0 DUP2 MLOAD SWAP1 POP SWAP2 SWAP1 POP JUMP JUMPDEST PUSH1 0x0 DUP3 DUP3 MSTORE PUSH1 0x20 DUP3 ADD SWAP1 POP SWAP3 SWAP2 POP POP JUMP JUMPDEST PUSH1 0x0 DUP2 SWAP1 POP SWAP3 SWAP2 POP POP JUMP JUMPDEST PUSH1 0x0 JUMPDEST DUP4 DUP2 LT ISZERO PUSH2 0x2F3 JUMPI DUP1 DUP3 ADD MLOAD DUP2 DUP5 ADD MSTORE PUSH1 0x20 DUP2 ADD SWAP1 POP PUSH2 0x2D8 JUMP JUMPDEST DUP4 DUP2 GT ISZERO PUSH2 0x302 JUMPI PUSH1 0x0 DUP5 DUP5 ADD MSTORE JUMPDEST POP POP POP POP JUMP JUMPDEST PUSH1 0x0 PUSH1 0x2 DUP3 DIV SWAP1 POP PUSH1 0x1 DUP3 AND DUP1 PUSH2 0x320 JUMPI PUSH1 0x7F DUP3 AND SWAP2 POP JUMPDEST PUSH1 0x20 DUP3 LT DUP2 EQ ISZERO PUSH2 0x334 JUMPI PUSH2 0x333 PUSH2 0x33A JUMP JUMPDEST JUMPDEST POP SWAP2 SWAP1 POP JUMP JUMPDEST PUSH32 0x4E487B7100000000000000000000000000000000000000000000000000000000 PUSH1 0x0 MSTORE PUSH1 0x22 PUSH1 0x4 MSTORE PUSH1 0x24 PUSH1 0x0 REVERT JUMPDEST PUSH1 0x0 PUSH1 0x1F NOT PUSH1 0x1F DUP4 ADD AND SWAP1 POP SWAP2 SWAP1 POP JUMP INVALID LOG2 PUSH5 0x6970667358 0x22 SLT KECCAK256 0xF8 0xB1 PUSH1 0x9D 0xED DIV 0xAC 0x27 0x24 0xC5 SHL LOG4 0x2F PUSH7 0x9052DF085F822 DUP7 0xBA 0xB1 OR DUP3 0xB3 DUP15 SELFBALANCE SELFBALANCE PUSH4 0xA64736F PUSH13 0x63430008070033000000000000 "
				},
				"gasEstimates": {
					"creation": {
						"codeDepositCost": "188800",
						"executionCost": "infinite",
						"totalCost": "infinite"
					},
					"external": {
						"course()": "infinite",
						"show()": "infinite"
					}
				},
				"methodIdentifiers": {
					"course()": "dcf63591",
					"show()": "cc80f6f3"
				}
			},
			"userdoc": {
				"kind": "user",
				"methods": {},
				"version": 1
			}
		}
	}
}