{
	"02 - Functions.sol": {
		"Functions": {
			"abi": [
				{
					"inputs": [],
					"name": "getData",
					"outputs": [
						{
							"internalType": "string",
							"name": "",
							"type": "string"
						}
					],
					"stateMutability": "nonpayable",
					"type": "function"
				},
				{
					"inputs": [],
					"name": "multipleReturn1",
					"outputs": [
						{
							"internalType": "uint256",
							"name": "",
							"type": "uint256"
						},
						{
							"internalType": "string",
							"name": "",
							"type": "string"
						}
					],
					"stateMutability": "pure",
					"type": "function"
				},
				{
					"inputs": [],
					"name": "multipleReturn2",
					"outputs": [
						{
							"internalType": "uint256",
							"name": "number",
							"type": "uint256"
						},
						{
							"internalType": "string",
							"name": "name",
							"type": "string"
						}
					],
					"stateMutability": "pure",
					"type": "function"
				},
				{
					"inputs": [
						{
							"internalType": "uint256",
							"name": "_number",
							"type": "uint256"
						}
					],
					"name": "setNumber",
					"outputs": [],
					"stateMutability": "nonpayable",
					"type": "function"
				},
				{
					"inputs": [],
					"name": "showNumber",
					"outputs": [
						{
							"internalType": "uint256",
							"name": "",
							"type": "uint256"
						}
					],
					"stateMutability": "view",
					"type": "function"
				}
			],
			"devdoc": {
				"kind": "dev",
				"methods": {},
				"version": 1
			},
			"evm": {
				"assembly": "    /* \"02 - Functions.sol\":66:767  contract Functions {\r... */\n  mstore(0x40, 0x80)\n    /* \"02 - Functions.sol\":111:113  15 */\n  0x0f\n    /* \"02 - Functions.sol\":92:113  uint luckyNumber = 15 */\n  0x00\n  sstore\n    /* \"02 - Functions.sol\":66:767  contract Functions {\r... */\n  callvalue\n  dup1\n  iszero\n  tag_1\n  jumpi\n  0x00\n  dup1\n  revert\ntag_1:\n  pop\n  dataSize(sub_0)\n  dup1\n  dataOffset(sub_0)\n  0x00\n  codecopy\n  0x00\n  return\nstop\n\nsub_0: assembly {\n        /* \"02 - Functions.sol\":66:767  contract Functions {\r... */\n      mstore(0x40, 0x80)\n      callvalue\n      dup1\n      iszero\n      tag_1\n      jumpi\n      0x00\n      dup1\n      revert\n    tag_1:\n      pop\n      jumpi(tag_2, lt(calldatasize, 0x04))\n      shr(0xe0, calldataload(0x00))\n      dup1\n      0x3bc5de30\n      eq\n      tag_3\n      jumpi\n      dup1\n      0x3fb5c1cb\n      eq\n      tag_4\n      jumpi\n      dup1\n      0x534c3b38\n      eq\n      tag_5\n      jumpi\n      dup1\n      0x76dad223\n      eq\n      tag_6\n      jumpi\n      dup1\n      0xcb6b5142\n      eq\n      tag_7\n      jumpi\n    tag_2:\n      0x00\n      dup1\n      revert\n        /* \"02 - Functions.sol\":226:312  function getData() public returns(string memory){\r... */\n    tag_3:\n      tag_8\n      tag_9\n      jump\t// in\n    tag_8:\n      mload(0x40)\n      tag_10\n      swap2\n      swap1\n      tag_11\n      jump\t// in\n    tag_10:\n      mload(0x40)\n      dup1\n      swap2\n      sub\n      swap1\n      return\n        /* \"02 - Functions.sol\":411:491  function setNumber(uint _number) public {\r... */\n    tag_4:\n      tag_12\n      0x04\n      dup1\n      calldatasize\n      sub\n      dup2\n      add\n      swap1\n      tag_13\n      swap2\n      swap1\n      tag_14\n      jump\t// in\n    tag_13:\n      tag_15\n      jump\t// in\n    tag_12:\n      stop\n        /* \"02 - Functions.sol\":522:625  function multipleReturn1() public pure returns(uint, string memory){\r... */\n    tag_5:\n      tag_16\n      tag_17\n      jump\t// in\n    tag_16:\n      mload(0x40)\n      tag_18\n      swap3\n      swap2\n      swap1\n      tag_19\n      jump\t// in\n    tag_18:\n      mload(0x40)\n      dup1\n      swap2\n      sub\n      swap1\n      return\n        /* \"02 - Functions.sol\":318:403  function showNumber() public view returns(uint) {\r... */\n    tag_6:\n      tag_20\n      tag_21\n      jump\t// in\n    tag_20:\n      mload(0x40)\n      tag_22\n      swap2\n      swap1\n      tag_23\n      jump\t// in\n    tag_22:\n      mload(0x40)\n      dup1\n      swap2\n      sub\n      swap1\n      return\n        /* \"02 - Functions.sol\":631:764  function multipleReturn2() public pure returns(uint number, string memory name){\r... */\n    tag_7:\n      tag_24\n      tag_25\n      jump\t// in\n    tag_24:\n      mload(0x40)\n      tag_26\n      swap3\n      swap2\n      swap1\n      tag_19\n      jump\t// in\n    tag_26:\n      mload(0x40)\n      dup1\n      swap2\n      sub\n      swap1\n      return\n        /* \"02 - Functions.sol\":226:312  function getData() public returns(string memory){\r... */\n    tag_9:\n        /* \"02 - Functions.sol\":260:273  string memory */\n      0x60\n        /* \"02 - Functions.sol\":285:304  return \"Blockchain\" */\n      mload(0x40)\n      dup1\n      0x40\n      add\n      0x40\n      mstore\n      dup1\n      0x0a\n      dup2\n      mstore\n      0x20\n      add\n      0x426c6f636b636861696e00000000000000000000000000000000000000000000\n      dup2\n      mstore\n      pop\n      swap1\n      pop\n        /* \"02 - Functions.sol\":226:312  function getData() public returns(string memory){\r... */\n      swap1\n      jump\t// out\n        /* \"02 - Functions.sol\":411:491  function setNumber(uint _number) public {\r... */\n    tag_15:\n        /* \"02 - Functions.sol\":476:483  _number */\n      dup1\n        /* \"02 - Functions.sol\":462:473  luckyNumber */\n      0x00\n        /* \"02 - Functions.sol\":462:483  luckyNumber = _number */\n      dup2\n      swap1\n      sstore\n      pop\n        /* \"02 - Functions.sol\":411:491  function setNumber(uint _number) public {\r... */\n      pop\n      jump\t// out\n        /* \"02 - Functions.sol\":522:625  function multipleReturn1() public pure returns(uint, string memory){\r... */\n    tag_17:\n        /* \"02 - Functions.sol\":569:573  uint */\n      0x00\n        /* \"02 - Functions.sol\":575:588  string memory */\n      0x60\n        /* \"02 - Functions.sol\":607:608  0 */\n      0x00\n        /* \"02 - Functions.sol\":600:617  return(0,\"Yavuz\") */\n      mload(0x40)\n      dup1\n      0x40\n      add\n      0x40\n      mstore\n      dup1\n      0x05\n      dup2\n      mstore\n      0x20\n      add\n      0x596176757a000000000000000000000000000000000000000000000000000000\n      dup2\n      mstore\n      pop\n      swap2\n      pop\n      swap2\n      pop\n        /* \"02 - Functions.sol\":522:625  function multipleReturn1() public pure returns(uint, string memory){\r... */\n      swap1\n      swap2\n      jump\t// out\n        /* \"02 - Functions.sol\":318:403  function showNumber() public view returns(uint) {\r... */\n    tag_21:\n        /* \"02 - Functions.sol\":360:364  uint */\n      0x00\n        /* \"02 - Functions.sol\":384:395  luckyNumber */\n      dup1\n      sload\n        /* \"02 - Functions.sol\":377:395  return luckyNumber */\n      swap1\n      pop\n        /* \"02 - Functions.sol\":318:403  function showNumber() public view returns(uint) {\r... */\n      swap1\n      jump\t// out\n        /* \"02 - Functions.sol\":631:764  function multipleReturn2() public pure returns(uint number, string memory name){\r... */\n    tag_25:\n        /* \"02 - Functions.sol\":678:689  uint number */\n      0x00\n        /* \"02 - Functions.sol\":691:709  string memory name */\n      0x60\n        /* \"02 - Functions.sol\":730:731  0 */\n      0x00\n        /* \"02 - Functions.sol\":721:731  number = 0 */\n      swap2\n      pop\n        /* \"02 - Functions.sol\":742:756  name = \"Yavuz\" */\n      mload(0x40)\n      dup1\n      0x40\n      add\n      0x40\n      mstore\n      dup1\n      0x05\n      dup2\n      mstore\n      0x20\n      add\n      0x596176757a000000000000000000000000000000000000000000000000000000\n      dup2\n      mstore\n      pop\n      swap1\n      pop\n        /* \"02 - Functions.sol\":631:764  function multipleReturn2() public pure returns(uint number, string memory name){\r... */\n      swap1\n      swap2\n      jump\t// out\n        /* \"#utility.yul\":7:146   */\n    tag_33:\n        /* \"#utility.yul\":53:58   */\n      0x00\n        /* \"#utility.yul\":91:97   */\n      dup2\n        /* \"#utility.yul\":78:98   */\n      calldataload\n        /* \"#utility.yul\":69:98   */\n      swap1\n      pop\n        /* \"#utility.yul\":107:140   */\n      tag_35\n        /* \"#utility.yul\":134:139   */\n      dup2\n        /* \"#utility.yul\":107:140   */\n      tag_36\n      jump\t// in\n    tag_35:\n        /* \"#utility.yul\":7:146   */\n      swap3\n      swap2\n      pop\n      pop\n      jump\t// out\n        /* \"#utility.yul\":152:481   */\n    tag_14:\n        /* \"#utility.yul\":211:217   */\n      0x00\n        /* \"#utility.yul\":260:262   */\n      0x20\n        /* \"#utility.yul\":248:257   */\n      dup3\n        /* \"#utility.yul\":239:246   */\n      dup5\n        /* \"#utility.yul\":235:258   */\n      sub\n        /* \"#utility.yul\":231:263   */\n      slt\n        /* \"#utility.yul\":228:347   */\n      iszero\n      tag_38\n      jumpi\n        /* \"#utility.yul\":266:345   */\n      tag_39\n      tag_40\n      jump\t// in\n    tag_39:\n        /* \"#utility.yul\":228:347   */\n    tag_38:\n        /* \"#utility.yul\":386:387   */\n      0x00\n        /* \"#utility.yul\":411:464   */\n      tag_41\n        /* \"#utility.yul\":456:463   */\n      dup5\n        /* \"#utility.yul\":447:453   */\n      dup3\n        /* \"#utility.yul\":436:445   */\n      dup6\n        /* \"#utility.yul\":432:454   */\n      add\n        /* \"#utility.yul\":411:464   */\n      tag_33\n      jump\t// in\n    tag_41:\n        /* \"#utility.yul\":401:464   */\n      swap2\n      pop\n        /* \"#utility.yul\":357:474   */\n      pop\n        /* \"#utility.yul\":152:481   */\n      swap3\n      swap2\n      pop\n      pop\n      jump\t// out\n        /* \"#utility.yul\":487:851   */\n    tag_42:\n        /* \"#utility.yul\":575:578   */\n      0x00\n        /* \"#utility.yul\":603:642   */\n      tag_44\n        /* \"#utility.yul\":636:641   */\n      dup3\n        /* \"#utility.yul\":603:642   */\n      tag_45\n      jump\t// in\n    tag_44:\n        /* \"#utility.yul\":658:729   */\n      tag_46\n        /* \"#utility.yul\":722:728   */\n      dup2\n        /* \"#utility.yul\":717:720   */\n      dup6\n        /* \"#utility.yul\":658:729   */\n      tag_47\n      jump\t// in\n    tag_46:\n        /* \"#utility.yul\":651:729   */\n      swap4\n      pop\n        /* \"#utility.yul\":738:790   */\n      tag_48\n        /* \"#utility.yul\":783:789   */\n      dup2\n        /* \"#utility.yul\":778:781   */\n      dup6\n        /* \"#utility.yul\":771:775   */\n      0x20\n        /* \"#utility.yul\":764:769   */\n      dup7\n        /* \"#utility.yul\":760:776   */\n      add\n        /* \"#utility.yul\":738:790   */\n      tag_49\n      jump\t// in\n    tag_48:\n        /* \"#utility.yul\":815:844   */\n      tag_50\n        /* \"#utility.yul\":837:843   */\n      dup2\n        /* \"#utility.yul\":815:844   */\n      tag_51\n      jump\t// in\n    tag_50:\n        /* \"#utility.yul\":810:813   */\n      dup5\n        /* \"#utility.yul\":806:845   */\n      add\n        /* \"#utility.yul\":799:845   */\n      swap2\n      pop\n        /* \"#utility.yul\":579:851   */\n      pop\n        /* \"#utility.yul\":487:851   */\n      swap3\n      swap2\n      pop\n      pop\n      jump\t// out\n        /* \"#utility.yul\":857:975   */\n    tag_52:\n        /* \"#utility.yul\":944:968   */\n      tag_54\n        /* \"#utility.yul\":962:967   */\n      dup2\n        /* \"#utility.yul\":944:968   */\n      tag_55\n      jump\t// in\n    tag_54:\n        /* \"#utility.yul\":939:942   */\n      dup3\n        /* \"#utility.yul\":932:969   */\n      mstore\n        /* \"#utility.yul\":857:975   */\n      pop\n      pop\n      jump\t// out\n        /* \"#utility.yul\":981:1294   */\n    tag_11:\n        /* \"#utility.yul\":1094:1098   */\n      0x00\n        /* \"#utility.yul\":1132:1134   */\n      0x20\n        /* \"#utility.yul\":1121:1130   */\n      dup3\n        /* \"#utility.yul\":1117:1135   */\n      add\n        /* \"#utility.yul\":1109:1135   */\n      swap1\n      pop\n        /* \"#utility.yul\":1181:1190   */\n      dup2\n        /* \"#utility.yul\":1175:1179   */\n      dup2\n        /* \"#utility.yul\":1171:1191   */\n      sub\n        /* \"#utility.yul\":1167:1168   */\n      0x00\n        /* \"#utility.yul\":1156:1165   */\n      dup4\n        /* \"#utility.yul\":1152:1169   */\n      add\n        /* \"#utility.yul\":1145:1192   */\n      mstore\n        /* \"#utility.yul\":1209:1287   */\n      tag_57\n        /* \"#utility.yul\":1282:1286   */\n      dup2\n        /* \"#utility.yul\":1273:1279   */\n      dup5\n        /* \"#utility.yul\":1209:1287   */\n      tag_42\n      jump\t// in\n    tag_57:\n        /* \"#utility.yul\":1201:1287   */\n      swap1\n      pop\n        /* \"#utility.yul\":981:1294   */\n      swap3\n      swap2\n      pop\n      pop\n      jump\t// out\n        /* \"#utility.yul\":1300:1522   */\n    tag_23:\n        /* \"#utility.yul\":1393:1397   */\n      0x00\n        /* \"#utility.yul\":1431:1433   */\n      0x20\n        /* \"#utility.yul\":1420:1429   */\n      dup3\n        /* \"#utility.yul\":1416:1434   */\n      add\n        /* \"#utility.yul\":1408:1434   */\n      swap1\n      pop\n        /* \"#utility.yul\":1444:1515   */\n      tag_59\n        /* \"#utility.yul\":1512:1513   */\n      0x00\n        /* \"#utility.yul\":1501:1510   */\n      dup4\n        /* \"#utility.yul\":1497:1514   */\n      add\n        /* \"#utility.yul\":1488:1494   */\n      dup5\n        /* \"#utility.yul\":1444:1515   */\n      tag_52\n      jump\t// in\n    tag_59:\n        /* \"#utility.yul\":1300:1522   */\n      swap3\n      swap2\n      pop\n      pop\n      jump\t// out\n        /* \"#utility.yul\":1528:1951   */\n    tag_19:\n        /* \"#utility.yul\":1669:1673   */\n      0x00\n        /* \"#utility.yul\":1707:1709   */\n      0x40\n        /* \"#utility.yul\":1696:1705   */\n      dup3\n        /* \"#utility.yul\":1692:1710   */\n      add\n        /* \"#utility.yul\":1684:1710   */\n      swap1\n      pop\n        /* \"#utility.yul\":1720:1791   */\n      tag_61\n        /* \"#utility.yul\":1788:1789   */\n      0x00\n        /* \"#utility.yul\":1777:1786   */\n      dup4\n        /* \"#utility.yul\":1773:1790   */\n      add\n        /* \"#utility.yul\":1764:1770   */\n      dup6\n        /* \"#utility.yul\":1720:1791   */\n      tag_52\n      jump\t// in\n    tag_61:\n        /* \"#utility.yul\":1838:1847   */\n      dup2\n        /* \"#utility.yul\":1832:1836   */\n      dup2\n        /* \"#utility.yul\":1828:1848   */\n      sub\n        /* \"#utility.yul\":1823:1825   */\n      0x20\n        /* \"#utility.yul\":1812:1821   */\n      dup4\n        /* \"#utility.yul\":1808:1826   */\n      add\n        /* \"#utility.yul\":1801:1849   */\n      mstore\n        /* \"#utility.yul\":1866:1944   */\n      tag_62\n        /* \"#utility.yul\":1939:1943   */\n      dup2\n        /* \"#utility.yul\":1930:1936   */\n      dup5\n        /* \"#utility.yul\":1866:1944   */\n      tag_42\n      jump\t// in\n    tag_62:\n        /* \"#utility.yul\":1858:1944   */\n      swap1\n      pop\n        /* \"#utility.yul\":1528:1951   */\n      swap4\n      swap3\n      pop\n      pop\n      pop\n      jump\t// out\n        /* \"#utility.yul\":2038:2137   */\n    tag_45:\n        /* \"#utility.yul\":2090:2096   */\n      0x00\n        /* \"#utility.yul\":2124:2129   */\n      dup2\n        /* \"#utility.yul\":2118:2130   */\n      mload\n        /* \"#utility.yul\":2108:2130   */\n      swap1\n      pop\n        /* \"#utility.yul\":2038:2137   */\n      swap2\n      swap1\n      pop\n      jump\t// out\n        /* \"#utility.yul\":2143:2312   */\n    tag_47:\n        /* \"#utility.yul\":2227:2238   */\n      0x00\n        /* \"#utility.yul\":2261:2267   */\n      dup3\n        /* \"#utility.yul\":2256:2259   */\n      dup3\n        /* \"#utility.yul\":2249:2268   */\n      mstore\n        /* \"#utility.yul\":2301:2305   */\n      0x20\n        /* \"#utility.yul\":2296:2299   */\n      dup3\n        /* \"#utility.yul\":2292:2306   */\n      add\n        /* \"#utility.yul\":2277:2306   */\n      swap1\n      pop\n        /* \"#utility.yul\":2143:2312   */\n      swap3\n      swap2\n      pop\n      pop\n      jump\t// out\n        /* \"#utility.yul\":2318:2395   */\n    tag_55:\n        /* \"#utility.yul\":2355:2362   */\n      0x00\n        /* \"#utility.yul\":2384:2389   */\n      dup2\n        /* \"#utility.yul\":2373:2389   */\n      swap1\n      pop\n        /* \"#utility.yul\":2318:2395   */\n      swap2\n      swap1\n      pop\n      jump\t// out\n        /* \"#utility.yul\":2401:2708   */\n    tag_49:\n        /* \"#utility.yul\":2469:2470   */\n      0x00\n        /* \"#utility.yul\":2479:2592   */\n    tag_69:\n        /* \"#utility.yul\":2493:2499   */\n      dup4\n        /* \"#utility.yul\":2490:2491   */\n      dup2\n        /* \"#utility.yul\":2487:2500   */\n      lt\n        /* \"#utility.yul\":2479:2592   */\n      iszero\n      tag_71\n      jumpi\n        /* \"#utility.yul\":2578:2579   */\n      dup1\n        /* \"#utility.yul\":2573:2576   */\n      dup3\n        /* \"#utility.yul\":2569:2580   */\n      add\n        /* \"#utility.yul\":2563:2581   */\n      mload\n        /* \"#utility.yul\":2559:2560   */\n      dup2\n        /* \"#utility.yul\":2554:2557   */\n      dup5\n        /* \"#utility.yul\":2550:2561   */\n      add\n        /* \"#utility.yul\":2543:2582   */\n      mstore\n        /* \"#utility.yul\":2515:2517   */\n      0x20\n        /* \"#utility.yul\":2512:2513   */\n      dup2\n        /* \"#utility.yul\":2508:2518   */\n      add\n        /* \"#utility.yul\":2503:2518   */\n      swap1\n      pop\n        /* \"#utility.yul\":2479:2592   */\n      jump(tag_69)\n    tag_71:\n        /* \"#utility.yul\":2610:2616   */\n      dup4\n        /* \"#utility.yul\":2607:2608   */\n      dup2\n        /* \"#utility.yul\":2604:2617   */\n      gt\n        /* \"#utility.yul\":2601:2702   */\n      iszero\n      tag_72\n      jumpi\n        /* \"#utility.yul\":2690:2691   */\n      0x00\n        /* \"#utility.yul\":2681:2687   */\n      dup5\n        /* \"#utility.yul\":2676:2679   */\n      dup5\n        /* \"#utility.yul\":2672:2688   */\n      add\n        /* \"#utility.yul\":2665:2692   */\n      mstore\n        /* \"#utility.yul\":2601:2702   */\n    tag_72:\n        /* \"#utility.yul\":2450:2708   */\n      pop\n        /* \"#utility.yul\":2401:2708   */\n      pop\n      pop\n      pop\n      jump\t// out\n        /* \"#utility.yul\":2837:2954   */\n    tag_40:\n        /* \"#utility.yul\":2946:2947   */\n      0x00\n        /* \"#utility.yul\":2943:2944   */\n      dup1\n        /* \"#utility.yul\":2936:2948   */\n      revert\n        /* \"#utility.yul\":2960:3062   */\n    tag_51:\n        /* \"#utility.yul\":3001:3007   */\n      0x00\n        /* \"#utility.yul\":3052:3054   */\n      0x1f\n        /* \"#utility.yul\":3048:3055   */\n      not\n        /* \"#utility.yul\":3043:3045   */\n      0x1f\n        /* \"#utility.yul\":3036:3041   */\n      dup4\n        /* \"#utility.yul\":3032:3046   */\n      add\n        /* \"#utility.yul\":3028:3056   */\n      and\n        /* \"#utility.yul\":3018:3056   */\n      swap1\n      pop\n        /* \"#utility.yul\":2960:3062   */\n      swap2\n      swap1\n      pop\n      jump\t// out\n        /* \"#utility.yul\":3068:3190   */\n    tag_36:\n        /* \"#utility.yul\":3141:3165   */\n      tag_78\n        /* \"#utility.yul\":3159:3164   */\n      dup2\n        /* \"#utility.yul\":3141:3165   */\n      tag_55\n      jump\t// in\n    tag_78:\n        /* \"#utility.yul\":3134:3139   */\n      dup2\n        /* \"#utility.yul\":3131:3166   */\n      eq\n        /* \"#utility.yul\":3121:3184   */\n      tag_79\n      jumpi\n        /* \"#utility.yul\":3180:3181   */\n      0x00\n        /* \"#utility.yul\":3177:3178   */\n      dup1\n        /* \"#utility.yul\":3170:3182   */\n      revert\n        /* \"#utility.yul\":3121:3184   */\n    tag_79:\n        /* \"#utility.yul\":3068:3190   */\n      pop\n      jump\t// out\n\n    auxdata: 0xa2646970667358221220ad62a06b7fbacdde42958ac281103cd39486990890b0ad7b5c752396d0053b1b64736f6c63430008070033\n}\n",
				"bytecode": {
					"linkReferences": {},
					"object": "6080604052600f60005534801561001557600080fd5b5061037d806100256000396000f3fe608060405234801561001057600080fd5b50600436106100575760003560e01c80633bc5de301461005c5780633fb5c1cb1461007a578063534c3b381461009657806376dad223146100b5578063cb6b5142146100d3575b600080fd5b6100646100f2565b6040516100719190610254565b60405180910390f35b610094600480360381019061008f91906101df565b61012f565b005b61009e610139565b6040516100ac929190610291565b60405180910390f35b6100bd61017d565b6040516100ca9190610276565b60405180910390f35b6100db610186565b6040516100e9929190610291565b60405180910390f35b60606040518060400160405280600a81526020017f426c6f636b636861696e00000000000000000000000000000000000000000000815250905090565b8060008190555050565b6000606060006040518060400160405280600581526020017f596176757a000000000000000000000000000000000000000000000000000000815250915091509091565b60008054905090565b60006060600091506040518060400160405280600581526020017f596176757a00000000000000000000000000000000000000000000000000000081525090509091565b6000813590506101d981610330565b92915050565b6000602082840312156101f5576101f461031a565b5b6000610203848285016101ca565b91505092915050565b6000610217826102c1565b61022181856102cc565b93506102318185602086016102e7565b61023a8161031f565b840191505092915050565b61024e816102dd565b82525050565b6000602082019050818103600083015261026e818461020c565b905092915050565b600060208201905061028b6000830184610245565b92915050565b60006040820190506102a66000830185610245565b81810360208301526102b8818461020c565b90509392505050565b600081519050919050565b600082825260208201905092915050565b6000819050919050565b60005b838110156103055780820151818401526020810190506102ea565b83811115610314576000848401525b50505050565b600080fd5b6000601f19601f8301169050919050565b610339816102dd565b811461034457600080fd5b5056fea2646970667358221220ad62a06b7fbacdde42958ac281103cd39486990890b0ad7b5c752396d0053b1b64736f6c63430008070033",
					"opcodes": "PUSH1 0x80 PUSH1 0x40 MSTORE PUSH1 0xF PUSH1 0x0 SSTORE CALLVALUE DUP1 ISZERO PUSH2 0x15 JUMPI PUSH1 0x0 DUP1 REVERT JUMPDEST POP PUSH2 0x37D DUP1 PUSH2 0x25 PUSH1 0x0 CODECOPY PUSH1 0x0 RETURN INVALID PUSH1 0x80 PUSH1 0x40 MSTORE CALLVALUE DUP1 ISZERO PUSH2 0x10 JUMPI PUSH1 0x0 DUP1 REVERT JUMPDEST POP PUSH1 0x4 CALLDATASIZE LT PUSH2 0x57 JUMPI PUSH1 0x0 CALLDATALOAD PUSH1 0xE0 SHR DUP1 PUSH4 0x3BC5DE30 EQ PUSH2 0x5C JUMPI DUP1 PUSH4 0x3FB5C1CB EQ PUSH2 0x7A JUMPI DUP1 PUSH4 0x534C3B38 EQ PUSH2 0x96 JUMPI DUP1 PUSH4 0x76DAD223 EQ PUSH2 0xB5 JUMPI DUP1 PUSH4 0xCB6B5142 EQ PUSH2 0xD3 JUMPI JUMPDEST PUSH1 0x0 DUP1 REVERT JUMPDEST PUSH2 0x64 PUSH2 0xF2 JUMP JUMPDEST PUSH1 0x40 MLOAD PUSH2 0x71 SWAP2 SWAP1 PUSH2 0x254 JUMP JUMPDEST PUSH1 0x40 MLOAD DUP1 SWAP2 SUB SWAP1 RETURN JUMPDEST PUSH2 0x94 PUSH1 0x4 DUP1 CALLDATASIZE SUB DUP2 ADD SWAP1 PUSH2 0x8F SWAP2 SWAP1 PUSH2 0x1DF JUMP JUMPDEST PUSH2 0x12F JUMP JUMPDEST STOP JUMPDEST PUSH2 0x9E PUSH2 0x139 JUMP JUMPDEST PUSH1 0x40 MLOAD PUSH2 0xAC SWAP3 SWAP2 SWAP1 PUSH2 0x291 JUMP JUMPDEST PUSH1 0x40 MLOAD DUP1 SWAP2 SUB SWAP1 RETURN JUMPDEST PUSH2 0xBD PUSH2 0x17D JUMP JUMPDEST PUSH1 0x40 MLOAD PUSH2 0xCA SWAP2 SWAP1 PUSH2 0x276 JUMP JUMPDEST PUSH1 0x40 MLOAD DUP1 SWAP2 SUB SWAP1 RETURN JUMPDEST PUSH2 0xDB PUSH2 0x186 JUMP JUMPDEST PUSH1 0x40 MLOAD PUSH2 0xE9 SWAP3 SWAP2 SWAP1 PUSH2 0x291 JUMP JUMPDEST PUSH1 0x40 MLOAD DUP1 SWAP2 SUB SWAP1 RETURN JUMPDEST PUSH1 0x60 PUSH1 0x40 MLOAD DUP1 PUSH1 0x40 ADD PUSH1 0x40 MSTORE DUP1 PUSH1 0xA DUP2 MSTORE PUSH1 0x20 ADD PUSH32 0x426C6F636B636861696E00000000000000000000000000000000000000000000 DUP2 MSTORE POP SWAP1 POP SWAP1 JUMP JUMPDEST DUP1 PUSH1 0x0 DUP2 SWAP1 SSTORE POP POP JUMP JUMPDEST PUSH1 0x0 PUSH1 0x60 PUSH1 0x0 PUSH1 0x40 MLOAD DUP1 PUSH1 0x40 ADD PUSH1 0x40 MSTORE DUP1 PUSH1 0x5 DUP2 MSTORE PUSH1 0x20 ADD PUSH32 0x596176757A000000000000000000000000000000000000000000000000000000 DUP2 MSTORE POP SWAP2 POP SWAP2 POP SWAP1 SWAP2 JUMP JUMPDEST PUSH1 0x0 DUP1 SLOAD SWAP1 POP SWAP1 JUMP JUMPDEST PUSH1 0x0 PUSH1 0x60 PUSH1 0x0 SWAP2 POP PUSH1 0x40 MLOAD DUP1 PUSH1 0x40 ADD PUSH1 0x40 MSTORE DUP1 PUSH1 0x5 DUP2 MSTORE PUSH1 0x20 ADD PUSH32 0x596176757A000000000000000000000000000000000000000000000000000000 DUP2 MSTORE POP SWAP1 POP SWAP1 SWAP2 JUMP JUMPDEST PUSH1 0x0 DUP2 CALLDATALOAD SWAP1 POP PUSH2 0x1D9 DUP2 PUSH2 0x330 JUMP JUMPDEST SWAP3 SWAP2 POP POP JUMP JUMPDEST PUSH1 0x0 PUSH1 0x20 DUP3 DUP5 SUB SLT ISZERO PUSH2 0x1F5 JUMPI PUSH2 0x1F4 PUSH2 0x31A JUMP JUMPDEST JUMPDEST PUSH1 0x0 PUSH2 0x203 DUP5 DUP3 DUP6 ADD PUSH2 0x1CA JUMP JUMPDEST SWAP2 POP POP SWAP3 SWAP2 POP POP JUMP JUMPDEST PUSH1 0x0 PUSH2 0x217 DUP3 PUSH2 0x2C1 JUMP JUMPDEST PUSH2 0x221 DUP2 DUP6 PUSH2 0x2CC JUMP JUMPDEST SWAP4 POP PUSH2 0x231 DUP2 DUP6 PUSH1 0x20 DUP7 ADD PUSH2 0x2E7 JUMP JUMPDEST PUSH2 0x23A DUP2 PUSH2 0x31F JUMP JUMPDEST DUP5 ADD SWAP2 POP POP SWAP3 SWAP2 POP POP JUMP JUMPDEST PUSH2 0x24E DUP2 PUSH2 0x2DD JUMP JUMPDEST DUP3 MSTORE POP POP JUMP JUMPDEST PUSH1 0x0 PUSH1 0x20 DUP3 ADD SWAP1 POP DUP2 DUP2 SUB PUSH1 0x0 DUP4 ADD MSTORE PUSH2 0x26E DUP2 DUP5 PUSH2 0x20C JUMP JUMPDEST SWAP1 POP SWAP3 SWAP2 POP POP JUMP JUMPDEST PUSH1 0x0 PUSH1 0x20 DUP3 ADD SWAP1 POP PUSH2 0x28B PUSH1 0x0 DUP4 ADD DUP5 PUSH2 0x245 JUMP JUMPDEST SWAP3 SWAP2 POP POP JUMP JUMPDEST PUSH1 0x0 PUSH1 0x40 DUP3 ADD SWAP1 POP PUSH2 0x2A6 PUSH1 0x0 DUP4 ADD DUP6 PUSH2 0x245 JUMP JUMPDEST DUP2 DUP2 SUB PUSH1 0x20 DUP4 ADD MSTORE PUSH2 0x2B8 DUP2 DUP5 PUSH2 0x20C JUMP JUMPDEST SWAP1 POP SWAP4 SWAP3 POP POP POP JUMP JUMPDEST PUSH1 0x0 DUP2 MLOAD SWAP1 POP SWAP2 SWAP1 POP JUMP JUMPDEST PUSH1 0x0 DUP3 DUP3 MSTORE PUSH1 0x20 DUP3 ADD SWAP1 POP SWAP3 SWAP2 POP POP JUMP JUMPDEST PUSH1 0x0 DUP2 SWAP1 POP SWAP2 SWAP1 POP JUMP JUMPDEST PUSH1 0x0 JUMPDEST DUP4 DUP2 LT ISZERO PUSH2 0x305 JUMPI DUP1 DUP3 ADD MLOAD DUP2 DUP5 ADD MSTORE PUSH1 0x20 DUP2 ADD SWAP1 POP PUSH2 0x2EA JUMP JUMPDEST DUP4 DUP2 GT ISZERO PUSH2 0x314 JUMPI PUSH1 0x0 DUP5 DUP5 ADD MSTORE JUMPDEST POP POP POP POP JUMP JUMPDEST PUSH1 0x0 DUP1 REVERT JUMPDEST PUSH1 0x0 PUSH1 0x1F NOT PUSH1 0x1F DUP4 ADD AND SWAP1 POP SWAP2 SWAP1 POP JUMP JUMPDEST PUSH2 0x339 DUP2 PUSH2 0x2DD JUMP JUMPDEST DUP2 EQ PUSH2 0x344 JUMPI PUSH1 0x0 DUP1 REVERT JUMPDEST POP JUMP INVALID LOG2 PUSH5 0x6970667358 0x22 SLT KECCAK256 0xAD PUSH3 0xA06B7F 0xBA 0xCD 0xDE TIMESTAMP SWAP6 DUP11 0xC2 DUP2 LT EXTCODECOPY 0xD3 SWAP5 DUP7 SWAP10 ADDMOD SWAP1 0xB0 0xAD PUSH28 0x5C752396D0053B1B64736F6C63430008070033000000000000000000 "
				},
				"gasEstimates": {
					"creation": {
						"codeDepositCost": "178600",
						"executionCost": "22326",
						"totalCost": "200926"
					},
					"external": {
						"getData()": "infinite",
						"multipleReturn1()": "infinite",
						"multipleReturn2()": "infinite",
						"setNumber(uint256)": "22520",
						"showNumber()": "2481"
					}
				},
				"methodIdentifiers": {
					"getData()": "3bc5de30",
					"multipleReturn1()": "534c3b38",
					"multipleReturn2()": "cb6b5142",
					"setNumber(uint256)": "3fb5c1cb",
					"showNumber()": "76dad223"
				}
			},
			"userdoc": {
				"kind": "user",
				"methods": {},
				"version": 1
			}
		}
	}
}