{
	"01 - Variables.sol": {
		"Variables": {
			"abi": [
				{
					"inputs": [],
					"name": "course",
					"outputs": [
						{
							"internalType": "string",
							"name": "",
							"type": "string"
						}
					],
					"stateMutability": "view",
					"type": "function"
				},
				{
					"inputs": [],
					"name": "sender",
					"outputs": [
						{
							"internalType": "address",
							"name": "",
							"type": "address"
						}
					],
					"stateMutability": "view",
					"type": "function"
				},
				{
					"inputs": [],
					"name": "showInfo",
					"outputs": [
						{
							"internalType": "string",
							"name": "",
							"type": "string"
						}
					],
					"stateMutability": "view",
					"type": "function"
				}
			],
			"devdoc": {
				"kind": "dev",
				"methods": {},
				"version": 1
			},
			"evm": {
				"assembly": "    /* \"01 - Variables.sol\":66:1895  contract Variables{\r... */\n  mstore(0x40, 0x80)\n    /* \"01 - Variables.sol\":278:315  bytes32 nameByteFixed = \"Yavuz ilhan\" */\n  sstore(0x04, 0x596176757a20696c68616e000000000000000000000000000000000000000000)\n    /* \"01 - Variables.sol\":384:417  string nameString = \"Yavuz ilhan\" */\n  mload(0x40)\n  dup1\n  0x40\n  add\n  0x40\n  mstore\n  dup1\n  0x0b\n  dup2\n  mstore\n  0x20\n  add\n  0x596176757a20696c68616e000000000000000000000000000000000000000000\n  dup2\n  mstore\n  pop\n  0x05\n  swap1\n  dup1\n  mload\n  swap1\n  0x20\n  add\n  swap1\n  tag_1\n  swap3\n  swap2\n  swap1\n  tag_2\n  jump\t// in\ntag_1:\n  pop\n    /* \"01 - Variables.sol\":424:461  bytes nameByteDynamic = \"Yavuz ilhan\" */\n  mload(0x40)\n  dup1\n  0x40\n  add\n  0x40\n  mstore\n  dup1\n  0x0b\n  dup2\n  mstore\n  0x20\n  add\n  0x596176757a20696c68616e000000000000000000000000000000000000000000\n  dup2\n  mstore\n  pop\n  0x06\n  swap1\n  dup1\n  mload\n  swap1\n  0x20\n  add\n  swap1\n  tag_3\n  swap3\n  swap2\n  swap1\n  tag_4\n  jump\t// in\ntag_3:\n  pop\n    /* \"01 - Variables.sol\":468:517  string[] names = [\"Yavuz\",\"ilhan\",\"Ahmet\",\"Veli\"] */\n  mload(0x40)\n  dup1\n  0x80\n  add\n  0x40\n  mstore\n  dup1\n  mload(0x40)\n  dup1\n  0x40\n  add\n  0x40\n  mstore\n  dup1\n  0x05\n  dup2\n  mstore\n  0x20\n  add\n  0x596176757a000000000000000000000000000000000000000000000000000000\n  dup2\n  mstore\n  pop\n  dup2\n  mstore\n  0x20\n  add\n  mload(0x40)\n  dup1\n  0x40\n  add\n  0x40\n  mstore\n  dup1\n  0x05\n  dup2\n  mstore\n  0x20\n  add\n  0x696c68616e000000000000000000000000000000000000000000000000000000\n  dup2\n  mstore\n  pop\n  dup2\n  mstore\n  0x20\n  add\n  mload(0x40)\n  dup1\n  0x40\n  add\n  0x40\n  mstore\n  dup1\n  0x05\n  dup2\n  mstore\n  0x20\n  add\n  0x41686d6574000000000000000000000000000000000000000000000000000000\n  dup2\n  mstore\n  pop\n  dup2\n  mstore\n  0x20\n  add\n  mload(0x40)\n  dup1\n  0x40\n  add\n  0x40\n  mstore\n  dup1\n  0x04\n  dup2\n  mstore\n  0x20\n  add\n  0x56656c6900000000000000000000000000000000000000000000000000000000\n  dup2\n  mstore\n  pop\n  dup2\n  mstore\n  pop\n  0x07\n  swap1\n  0x04\n  tag_5\n  swap3\n  swap2\n  swap1\n  tag_6\n  jump\t// in\ntag_5:\n  pop\n    /* \"01 - Variables.sol\":539:567  uint[] numbers = [1,2,3,4,5] */\n  mload(0x40)\n  dup1\n  0xa0\n  add\n  0x40\n  mstore\n  dup1\n    /* \"01 - Variables.sol\":557:558  1 */\n  0x01\n    /* \"01 - Variables.sol\":539:567  uint[] numbers = [1,2,3,4,5] */\n  0xff\n  and\n  dup2\n  mstore\n  0x20\n  add\n    /* \"01 - Variables.sol\":559:560  2 */\n  0x02\n    /* \"01 - Variables.sol\":539:567  uint[] numbers = [1,2,3,4,5] */\n  0xff\n  and\n  dup2\n  mstore\n  0x20\n  add\n    /* \"01 - Variables.sol\":561:562  3 */\n  0x03\n    /* \"01 - Variables.sol\":539:567  uint[] numbers = [1,2,3,4,5] */\n  0xff\n  and\n  dup2\n  mstore\n  0x20\n  add\n    /* \"01 - Variables.sol\":563:564  4 */\n  0x04\n    /* \"01 - Variables.sol\":539:567  uint[] numbers = [1,2,3,4,5] */\n  0xff\n  and\n  dup2\n  mstore\n  0x20\n  add\n    /* \"01 - Variables.sol\":565:566  5 */\n  0x05\n    /* \"01 - Variables.sol\":539:567  uint[] numbers = [1,2,3,4,5] */\n  0xff\n  and\n  dup2\n  mstore\n  pop\n  0x08\n  swap1\n  0x05\n  tag_7\n  swap3\n  swap2\n  swap1\n  tag_8\n  jump\t// in\ntag_7:\n  pop\n    /* \"01 - Variables.sol\":1158:1196  string public course =\"Blockchain Dev\" */\n  mload(0x40)\n  dup1\n  0x40\n  add\n  0x40\n  mstore\n  dup1\n  0x0e\n  dup2\n  mstore\n  0x20\n  add\n  0x426c6f636b636861696e20446576000000000000000000000000000000000000\n  dup2\n  mstore\n  pop\n  0x0a\n  swap1\n  dup1\n  mload\n  swap1\n  0x20\n  add\n  swap1\n  tag_9\n  swap3\n  swap2\n  swap1\n  tag_2\n  jump\t// in\ntag_9:\n  pop\n    /* \"01 - Variables.sol\":1460:1465  1 wei */\n  0x01\n    /* \"01 - Variables.sol\":1448:1465  uint _Wei = 1 wei */\n  0x0b\n  sstore\n    /* \"01 - Variables.sol\":1485:1491  1 gwei */\n  0x3b9aca00\n    /* \"01 - Variables.sol\":1472:1491  uint _Gwei = 1 gwei */\n  0x0c\n  sstore\n    /* \"01 - Variables.sol\":1524:1531  1 ether */\n  0x0de0b6b3a7640000\n    /* \"01 - Variables.sol\":1510:1531  uint _Ether = 1 ether */\n  0x0d\n  sstore\n    /* \"01 - Variables.sol\":1577:1586  1 seconds */\n  0x01\n    /* \"01 - Variables.sol\":1563:1586  uint second = 1 seconds */\n  0x0e\n  sstore\n    /* \"01 - Variables.sol\":1607:1617  60 seconds */\n  0x3c\n    /* \"01 - Variables.sol\":1593:1617  uint minute = 60 seconds */\n  0x0f\n  sstore\n    /* \"01 - Variables.sol\":1636:1646  60 minutes */\n  0x0e10\n    /* \"01 - Variables.sol\":1624:1646  uint hour = 60 minutes */\n  0x10\n  sstore\n    /* \"01 - Variables.sol\":1680:1686  1 days */\n  0x015180\n    /* \"01 - Variables.sol\":1669:1686  uint day = 1 days */\n  0x11\n  sstore\n    /* \"01 - Variables.sol\":1705:1712  1 weeks */\n  0x093a80\n    /* \"01 - Variables.sol\":1693:1712  uint week = 1 weeks */\n  0x12\n  sstore\n    /* \"01 - Variables.sol\":1767:1779  block.number */\n  number\n    /* \"01 - Variables.sol\":1748:1779  uint blockNumber = block.number */\n  0x13\n  sstore\n    /* \"01 - Variables.sol\":1802:1816  block.gaslimit */\n  gaslimit\n    /* \"01 - Variables.sol\":1786:1816  uint gasLimit = block.gaslimit */\n  0x14\n  sstore\n    /* \"01 - Variables.sol\":1847:1857  msg.sender */\n  caller\n    /* \"01 - Variables.sol\":1823:1857  address public sender = msg.sender */\n  0x15\n  exp(0x0100, 0x00)\n  dup2\n  sload\n  dup2\n  0xffffffffffffffffffffffffffffffffffffffff\n  mul\n  not\n  and\n  swap1\n  dup4\n  0xffffffffffffffffffffffffffffffffffffffff\n  and\n  mul\n  or\n  swap1\n  sstore\n  pop\n    /* \"01 - Variables.sol\":1880:1891  tx.gasprice */\n  gasprice\n    /* \"01 - Variables.sol\":1864:1891  uint gasPrice = tx.gasprice */\n  0x16\n  sstore\n    /* \"01 - Variables.sol\":66:1895  contract Variables{\r... */\n  callvalue\n  dup1\n  iszero\n  tag_10\n  jumpi\n  0x00\n  dup1\n  revert\ntag_10:\n  pop\n  jump(tag_11)\ntag_2:\n  dup3\n  dup1\n  sload\n  tag_12\n  swap1\n  tag_13\n  jump\t// in\ntag_12:\n  swap1\n  0x00\n  mstore\n  keccak256(0x00, 0x20)\n  swap1\n  0x1f\n  add\n  0x20\n  swap1\n  div\n  dup2\n  add\n  swap3\n  dup3\n  tag_15\n  jumpi\n  0x00\n  dup6\n  sstore\n  jump(tag_14)\ntag_15:\n  dup3\n  0x1f\n  lt\n  tag_16\n  jumpi\n  dup1\n  mload\n  not(0xff)\n  and\n  dup4\n  dup1\n  add\n  or\n  dup6\n  sstore\n  jump(tag_14)\ntag_16:\n  dup3\n  dup1\n  add\n  0x01\n  add\n  dup6\n  sstore\n  dup3\n  iszero\n  tag_14\n  jumpi\n  swap2\n  dup3\n  add\ntag_17:\n  dup3\n  dup2\n  gt\n  iszero\n  tag_18\n  jumpi\n  dup3\n  mload\n  dup3\n  sstore\n  swap2\n  0x20\n  add\n  swap2\n  swap1\n  0x01\n  add\n  swap1\n  jump(tag_17)\ntag_18:\ntag_14:\n  pop\n  swap1\n  pop\n  tag_19\n  swap2\n  swap1\n  tag_20\n  jump\t// in\ntag_19:\n  pop\n  swap1\n  jump\t// out\ntag_4:\n  dup3\n  dup1\n  sload\n  tag_21\n  swap1\n  tag_13\n  jump\t// in\ntag_21:\n  swap1\n  0x00\n  mstore\n  keccak256(0x00, 0x20)\n  swap1\n  0x1f\n  add\n  0x20\n  swap1\n  div\n  dup2\n  add\n  swap3\n  dup3\n  tag_23\n  jumpi\n  0x00\n  dup6\n  sstore\n  jump(tag_22)\ntag_23:\n  dup3\n  0x1f\n  lt\n  tag_24\n  jumpi\n  dup1\n  mload\n  not(0xff)\n  and\n  dup4\n  dup1\n  add\n  or\n  dup6\n  sstore\n  jump(tag_22)\ntag_24:\n  dup3\n  dup1\n  add\n  0x01\n  add\n  dup6\n  sstore\n  dup3\n  iszero\n  tag_22\n  jumpi\n  swap2\n  dup3\n  add\ntag_25:\n  dup3\n  dup2\n  gt\n  iszero\n  tag_26\n  jumpi\n  dup3\n  mload\n  dup3\n  sstore\n  swap2\n  0x20\n  add\n  swap2\n  swap1\n  0x01\n  add\n  swap1\n  jump(tag_25)\ntag_26:\ntag_22:\n  pop\n  swap1\n  pop\n  tag_27\n  swap2\n  swap1\n  tag_20\n  jump\t// in\ntag_27:\n  pop\n  swap1\n  jump\t// out\ntag_6:\n  dup3\n  dup1\n  sload\n  dup3\n  dup3\n  sstore\n  swap1\n  0x00\n  mstore\n  keccak256(0x00, 0x20)\n  swap1\n  dup2\n  add\n  swap3\n  dup3\n  iszero\n  tag_28\n  jumpi\n  swap2\n  0x20\n  mul\n  dup3\n  add\ntag_29:\n  dup3\n  dup2\n  gt\n  iszero\n  tag_30\n  jumpi\n  dup3\n  mload\n  dup3\n  swap1\n  dup1\n  mload\n  swap1\n  0x20\n  add\n  swap1\n  tag_31\n  swap3\n  swap2\n  swap1\n  tag_2\n  jump\t// in\ntag_31:\n  pop\n  swap2\n  0x20\n  add\n  swap2\n  swap1\n  0x01\n  add\n  swap1\n  jump(tag_29)\ntag_30:\ntag_28:\n  pop\n  swap1\n  pop\n  tag_32\n  swap2\n  swap1\n  tag_33\n  jump\t// in\ntag_32:\n  pop\n  swap1\n  jump\t// out\ntag_8:\n  dup3\n  dup1\n  sload\n  dup3\n  dup3\n  sstore\n  swap1\n  0x00\n  mstore\n  keccak256(0x00, 0x20)\n  swap1\n  dup2\n  add\n  swap3\n  dup3\n  iszero\n  tag_34\n  jumpi\n  swap2\n  0x20\n  mul\n  dup3\n  add\ntag_35:\n  dup3\n  dup2\n  gt\n  iszero\n  tag_36\n  jumpi\n  dup3\n  mload\n  dup3\n  swap1\n  0xff\n  and\n  swap1\n  sstore\n  swap2\n  0x20\n  add\n  swap2\n  swap1\n  0x01\n  add\n  swap1\n  jump(tag_35)\ntag_36:\ntag_34:\n  pop\n  swap1\n  pop\n  tag_37\n  swap2\n  swap1\n  tag_20\n  jump\t// in\ntag_37:\n  pop\n  swap1\n  jump\t// out\ntag_20:\ntag_38:\n  dup1\n  dup3\n  gt\n  iszero\n  tag_39\n  jumpi\n  0x00\n  dup2\n  0x00\n  swap1\n  sstore\n  pop\n  0x01\n  add\n  jump(tag_38)\ntag_39:\n  pop\n  swap1\n  jump\t// out\ntag_33:\ntag_40:\n  dup1\n  dup3\n  gt\n  iszero\n  tag_41\n  jumpi\n  0x00\n  dup2\n  dup2\n  tag_42\n  swap2\n  swap1\n  tag_43\n  jump\t// in\ntag_42:\n  pop\n  0x01\n  add\n  jump(tag_40)\ntag_41:\n  pop\n  swap1\n  jump\t// out\ntag_43:\n  pop\n  dup1\n  sload\n  tag_44\n  swap1\n  tag_13\n  jump\t// in\ntag_44:\n  0x00\n  dup3\n  sstore\n  dup1\n  0x1f\n  lt\n  tag_46\n  jumpi\n  pop\n  jump(tag_45)\ntag_46:\n  0x1f\n  add\n  0x20\n  swap1\n  div\n  swap1\n  0x00\n  mstore\n  keccak256(0x00, 0x20)\n  swap1\n  dup2\n  add\n  swap1\n  tag_47\n  swap2\n  swap1\n  tag_20\n  jump\t// in\ntag_47:\ntag_45:\n  pop\n  jump\t// out\n    /* \"#utility.yul\":7:327   */\ntag_13:\n    /* \"#utility.yul\":51:57   */\n  0x00\n    /* \"#utility.yul\":88:89   */\n  0x02\n    /* \"#utility.yul\":82:86   */\n  dup3\n    /* \"#utility.yul\":78:90   */\n  div\n    /* \"#utility.yul\":68:90   */\n  swap1\n  pop\n    /* \"#utility.yul\":135:136   */\n  0x01\n    /* \"#utility.yul\":129:133   */\n  dup3\n    /* \"#utility.yul\":125:137   */\n  and\n    /* \"#utility.yul\":156:174   */\n  dup1\n    /* \"#utility.yul\":146:227   */\n  tag_50\n  jumpi\n    /* \"#utility.yul\":212:216   */\n  0x7f\n    /* \"#utility.yul\":204:210   */\n  dup3\n    /* \"#utility.yul\":200:217   */\n  and\n    /* \"#utility.yul\":190:217   */\n  swap2\n  pop\n    /* \"#utility.yul\":146:227   */\ntag_50:\n    /* \"#utility.yul\":274:276   */\n  0x20\n    /* \"#utility.yul\":266:272   */\n  dup3\n    /* \"#utility.yul\":263:277   */\n  lt\n    /* \"#utility.yul\":243:261   */\n  dup2\n    /* \"#utility.yul\":240:278   */\n  eq\n    /* \"#utility.yul\":237:321   */\n  iszero\n  tag_51\n  jumpi\n    /* \"#utility.yul\":293:311   */\n  tag_52\n  tag_53\n  jump\t// in\ntag_52:\n    /* \"#utility.yul\":237:321   */\ntag_51:\n    /* \"#utility.yul\":58:327   */\n  pop\n    /* \"#utility.yul\":7:327   */\n  swap2\n  swap1\n  pop\n  jump\t// out\n    /* \"#utility.yul\":333:513   */\ntag_53:\n    /* \"#utility.yul\":381:458   */\n  0x4e487b7100000000000000000000000000000000000000000000000000000000\n    /* \"#utility.yul\":378:379   */\n  0x00\n    /* \"#utility.yul\":371:459   */\n  mstore\n    /* \"#utility.yul\":478:482   */\n  0x22\n    /* \"#utility.yul\":475:476   */\n  0x04\n    /* \"#utility.yul\":468:483   */\n  mstore\n    /* \"#utility.yul\":502:506   */\n  0x24\n    /* \"#utility.yul\":499:500   */\n  0x00\n    /* \"#utility.yul\":492:507   */\n  revert\n    /* \"01 - Variables.sol\":66:1895  contract Variables{\r... */\ntag_11:\n  dataSize(sub_0)\n  dup1\n  dataOffset(sub_0)\n  0x00\n  codecopy\n  0x00\n  return\nstop\n\nsub_0: assembly {\n        /* \"01 - Variables.sol\":66:1895  contract Variables{\r... */\n      mstore(0x40, 0x80)\n      callvalue\n      dup1\n      iszero\n      tag_1\n      jumpi\n      0x00\n      dup1\n      revert\n    tag_1:\n      pop\n      jumpi(tag_2, lt(calldatasize, 0x04))\n      shr(0xe0, calldataload(0x00))\n      dup1\n      0x67e404ce\n      eq\n      tag_3\n      jumpi\n      dup1\n      0xa3277eb1\n      eq\n      tag_4\n      jumpi\n      dup1\n      0xdcf63591\n      eq\n      tag_5\n      jumpi\n    tag_2:\n      0x00\n      dup1\n      revert\n        /* \"01 - Variables.sol\":1823:1857  address public sender = msg.sender */\n    tag_3:\n      tag_6\n      tag_7\n      jump\t// in\n    tag_6:\n      mload(0x40)\n      tag_8\n      swap2\n      swap1\n      tag_9\n      jump\t// in\n    tag_8:\n      mload(0x40)\n      dup1\n      swap2\n      sub\n      swap1\n      return\n        /* \"01 - Variables.sol\":1205:1403  function showInfo() public view returns(string memory){\r... */\n    tag_4:\n      tag_10\n      tag_11\n      jump\t// in\n    tag_10:\n      mload(0x40)\n      tag_12\n      swap2\n      swap1\n      tag_13\n      jump\t// in\n    tag_12:\n      mload(0x40)\n      dup1\n      swap2\n      sub\n      swap1\n      return\n        /* \"01 - Variables.sol\":1158:1196  string public course =\"Blockchain Dev\" */\n    tag_5:\n      tag_14\n      tag_15\n      jump\t// in\n    tag_14:\n      mload(0x40)\n      tag_16\n      swap2\n      swap1\n      tag_13\n      jump\t// in\n    tag_16:\n      mload(0x40)\n      dup1\n      swap2\n      sub\n      swap1\n      return\n        /* \"01 - Variables.sol\":1823:1857  address public sender = msg.sender */\n    tag_7:\n      0x15\n      0x00\n      swap1\n      sload\n      swap1\n      0x0100\n      exp\n      swap1\n      div\n      0xffffffffffffffffffffffffffffffffffffffff\n      and\n      dup2\n      jump\t// out\n        /* \"01 - Variables.sol\":1205:1403  function showInfo() public view returns(string memory){\r... */\n    tag_11:\n        /* \"01 - Variables.sol\":1245:1258  string memory */\n      0x60\n        /* \"01 - Variables.sol\":1297:1315  string memory info */\n      0x00\n        /* \"01 - Variables.sol\":1297:1327  string memory info = \" Course\" */\n      mload(0x40)\n      dup1\n      0x40\n      add\n      0x40\n      mstore\n      dup1\n      0x07\n      dup2\n      mstore\n      0x20\n      add\n      0x20436f7572736500000000000000000000000000000000000000000000000000\n      dup2\n      mstore\n      pop\n      swap1\n      pop\n        /* \"01 - Variables.sol\":1369:1375  course */\n      0x0a\n        /* \"01 - Variables.sol\":1377:1381  info */\n      dup2\n        /* \"01 - Variables.sol\":1352:1394  abi.encodePacked(course, info, \" Section\") */\n      add(0x20, mload(0x40))\n      tag_18\n      swap3\n      swap2\n      swap1\n      tag_19\n      jump\t// in\n    tag_18:\n      mload(0x40)\n      0x20\n      dup2\n      dup4\n      sub\n      sub\n      dup2\n      mstore\n      swap1\n      0x40\n      mstore\n        /* \"01 - Variables.sol\":1338:1395  return string(abi.encodePacked(course, info, \" Section\")) */\n      swap2\n      pop\n      pop\n        /* \"01 - Variables.sol\":1205:1403  function showInfo() public view returns(string memory){\r... */\n      swap1\n      jump\t// out\n        /* \"01 - Variables.sol\":1158:1196  string public course =\"Blockchain Dev\" */\n    tag_15:\n      0x0a\n      dup1\n      sload\n      tag_20\n      swap1\n      tag_21\n      jump\t// in\n    tag_20:\n      dup1\n      0x1f\n      add\n      0x20\n      dup1\n      swap2\n      div\n      mul\n      0x20\n      add\n      mload(0x40)\n      swap1\n      dup2\n      add\n      0x40\n      mstore\n      dup1\n      swap3\n      swap2\n      swap1\n      dup2\n      dup2\n      mstore\n      0x20\n      add\n      dup3\n      dup1\n      sload\n      tag_22\n      swap1\n      tag_21\n      jump\t// in\n    tag_22:\n      dup1\n      iszero\n      tag_23\n      jumpi\n      dup1\n      0x1f\n      lt\n      tag_24\n      jumpi\n      0x0100\n      dup1\n      dup4\n      sload\n      div\n      mul\n      dup4\n      mstore\n      swap2\n      0x20\n      add\n      swap2\n      jump(tag_23)\n    tag_24:\n      dup3\n      add\n      swap2\n      swap1\n      0x00\n      mstore\n      keccak256(0x00, 0x20)\n      swap1\n    tag_25:\n      dup2\n      sload\n      dup2\n      mstore\n      swap1\n      0x01\n      add\n      swap1\n      0x20\n      add\n      dup1\n      dup4\n      gt\n      tag_25\n      jumpi\n      dup3\n      swap1\n      sub\n      0x1f\n      and\n      dup3\n      add\n      swap2\n    tag_23:\n      pop\n      pop\n      pop\n      pop\n      pop\n      dup2\n      jump\t// out\n        /* \"#utility.yul\":7:125   */\n    tag_27:\n        /* \"#utility.yul\":94:118   */\n      tag_29\n        /* \"#utility.yul\":112:117   */\n      dup2\n        /* \"#utility.yul\":94:118   */\n      tag_30\n      jump\t// in\n    tag_29:\n        /* \"#utility.yul\":89:92   */\n      dup3\n        /* \"#utility.yul\":82:119   */\n      mstore\n        /* \"#utility.yul\":7:125   */\n      pop\n      pop\n      jump\t// out\n        /* \"#utility.yul\":131:495   */\n    tag_31:\n        /* \"#utility.yul\":219:222   */\n      0x00\n        /* \"#utility.yul\":247:286   */\n      tag_33\n        /* \"#utility.yul\":280:285   */\n      dup3\n        /* \"#utility.yul\":247:286   */\n      tag_34\n      jump\t// in\n    tag_33:\n        /* \"#utility.yul\":302:373   */\n      tag_35\n        /* \"#utility.yul\":366:372   */\n      dup2\n        /* \"#utility.yul\":361:364   */\n      dup6\n        /* \"#utility.yul\":302:373   */\n      tag_36\n      jump\t// in\n    tag_35:\n        /* \"#utility.yul\":295:373   */\n      swap4\n      pop\n        /* \"#utility.yul\":382:434   */\n      tag_37\n        /* \"#utility.yul\":427:433   */\n      dup2\n        /* \"#utility.yul\":422:425   */\n      dup6\n        /* \"#utility.yul\":415:419   */\n      0x20\n        /* \"#utility.yul\":408:413   */\n      dup7\n        /* \"#utility.yul\":404:420   */\n      add\n        /* \"#utility.yul\":382:434   */\n      tag_38\n      jump\t// in\n    tag_37:\n        /* \"#utility.yul\":459:488   */\n      tag_39\n        /* \"#utility.yul\":481:487   */\n      dup2\n        /* \"#utility.yul\":459:488   */\n      tag_40\n      jump\t// in\n    tag_39:\n        /* \"#utility.yul\":454:457   */\n      dup5\n        /* \"#utility.yul\":450:489   */\n      add\n        /* \"#utility.yul\":443:489   */\n      swap2\n      pop\n        /* \"#utility.yul\":223:495   */\n      pop\n        /* \"#utility.yul\":131:495   */\n      swap3\n      swap2\n      pop\n      pop\n      jump\t// out\n        /* \"#utility.yul\":501:878   */\n    tag_41:\n        /* \"#utility.yul\":607:610   */\n      0x00\n        /* \"#utility.yul\":635:674   */\n      tag_43\n        /* \"#utility.yul\":668:673   */\n      dup3\n        /* \"#utility.yul\":635:674   */\n      tag_34\n      jump\t// in\n    tag_43:\n        /* \"#utility.yul\":690:779   */\n      tag_44\n        /* \"#utility.yul\":772:778   */\n      dup2\n        /* \"#utility.yul\":767:770   */\n      dup6\n        /* \"#utility.yul\":690:779   */\n      tag_45\n      jump\t// in\n    tag_44:\n        /* \"#utility.yul\":683:779   */\n      swap4\n      pop\n        /* \"#utility.yul\":788:840   */\n      tag_46\n        /* \"#utility.yul\":833:839   */\n      dup2\n        /* \"#utility.yul\":828:831   */\n      dup6\n        /* \"#utility.yul\":821:825   */\n      0x20\n        /* \"#utility.yul\":814:819   */\n      dup7\n        /* \"#utility.yul\":810:826   */\n      add\n        /* \"#utility.yul\":788:840   */\n      tag_38\n      jump\t// in\n    tag_46:\n        /* \"#utility.yul\":865:871   */\n      dup1\n        /* \"#utility.yul\":860:863   */\n      dup5\n        /* \"#utility.yul\":856:872   */\n      add\n        /* \"#utility.yul\":849:872   */\n      swap2\n      pop\n        /* \"#utility.yul\":611:878   */\n      pop\n        /* \"#utility.yul\":501:878   */\n      swap3\n      swap2\n      pop\n      pop\n      jump\t// out\n        /* \"#utility.yul\":908:1753   */\n    tag_47:\n        /* \"#utility.yul\":1011:1014   */\n      0x00\n        /* \"#utility.yul\":1048:1053   */\n      dup2\n        /* \"#utility.yul\":1042:1054   */\n      sload\n        /* \"#utility.yul\":1077:1113   */\n      tag_49\n        /* \"#utility.yul\":1103:1112   */\n      dup2\n        /* \"#utility.yul\":1077:1113   */\n      tag_21\n      jump\t// in\n    tag_49:\n        /* \"#utility.yul\":1129:1218   */\n      tag_50\n        /* \"#utility.yul\":1211:1217   */\n      dup2\n        /* \"#utility.yul\":1206:1209   */\n      dup7\n        /* \"#utility.yul\":1129:1218   */\n      tag_45\n      jump\t// in\n    tag_50:\n        /* \"#utility.yul\":1122:1218   */\n      swap5\n      pop\n        /* \"#utility.yul\":1249:1250   */\n      0x01\n        /* \"#utility.yul\":1238:1247   */\n      dup3\n        /* \"#utility.yul\":1234:1251   */\n      and\n        /* \"#utility.yul\":1265:1266   */\n      0x00\n        /* \"#utility.yul\":1260:1397   */\n      dup2\n      eq\n      tag_52\n      jumpi\n        /* \"#utility.yul\":1411:1412   */\n      0x01\n        /* \"#utility.yul\":1406:1747   */\n      dup2\n      eq\n      tag_53\n      jumpi\n        /* \"#utility.yul\":1227:1747   */\n      jump(tag_51)\n        /* \"#utility.yul\":1260:1397   */\n    tag_52:\n        /* \"#utility.yul\":1344:1348   */\n      0xff\n        /* \"#utility.yul\":1340:1349   */\n      not\n        /* \"#utility.yul\":1329:1338   */\n      dup4\n        /* \"#utility.yul\":1325:1350   */\n      and\n        /* \"#utility.yul\":1320:1323   */\n      dup7\n        /* \"#utility.yul\":1313:1351   */\n      mstore\n        /* \"#utility.yul\":1380:1386   */\n      dup2\n        /* \"#utility.yul\":1375:1378   */\n      dup7\n        /* \"#utility.yul\":1371:1387   */\n      add\n        /* \"#utility.yul\":1364:1387   */\n      swap4\n      pop\n        /* \"#utility.yul\":1260:1397   */\n      jump(tag_51)\n        /* \"#utility.yul\":1406:1747   */\n    tag_53:\n        /* \"#utility.yul\":1473:1511   */\n      tag_54\n        /* \"#utility.yul\":1505:1510   */\n      dup6\n        /* \"#utility.yul\":1473:1511   */\n      tag_55\n      jump\t// in\n    tag_54:\n        /* \"#utility.yul\":1533:1534   */\n      0x00\n        /* \"#utility.yul\":1547:1701   */\n    tag_56:\n        /* \"#utility.yul\":1561:1567   */\n      dup4\n        /* \"#utility.yul\":1558:1559   */\n      dup2\n        /* \"#utility.yul\":1555:1568   */\n      lt\n        /* \"#utility.yul\":1547:1701   */\n      iszero\n      tag_58\n      jumpi\n        /* \"#utility.yul\":1635:1642   */\n      dup2\n        /* \"#utility.yul\":1629:1643   */\n      sload\n        /* \"#utility.yul\":1625:1626   */\n      dup2\n        /* \"#utility.yul\":1620:1623   */\n      dup10\n        /* \"#utility.yul\":1616:1627   */\n      add\n        /* \"#utility.yul\":1609:1644   */\n      mstore\n        /* \"#utility.yul\":1685:1686   */\n      0x01\n        /* \"#utility.yul\":1676:1683   */\n      dup3\n        /* \"#utility.yul\":1672:1687   */\n      add\n        /* \"#utility.yul\":1661:1687   */\n      swap2\n      pop\n        /* \"#utility.yul\":1583:1587   */\n      0x20\n        /* \"#utility.yul\":1580:1581   */\n      dup2\n        /* \"#utility.yul\":1576:1588   */\n      add\n        /* \"#utility.yul\":1571:1588   */\n      swap1\n      pop\n        /* \"#utility.yul\":1547:1701   */\n      jump(tag_56)\n    tag_58:\n        /* \"#utility.yul\":1730:1736   */\n      dup4\n        /* \"#utility.yul\":1725:1728   */\n      dup9\n        /* \"#utility.yul\":1721:1737   */\n      add\n        /* \"#utility.yul\":1714:1737   */\n      swap6\n      pop\n        /* \"#utility.yul\":1413:1747   */\n      pop\n      pop\n        /* \"#utility.yul\":1227:1747   */\n    tag_51:\n      pop\n        /* \"#utility.yul\":1015:1753   */\n      pop\n      pop\n        /* \"#utility.yul\":908:1753   */\n      swap3\n      swap2\n      pop\n      pop\n      jump\t// out\n        /* \"#utility.yul\":1759:2159   */\n    tag_59:\n        /* \"#utility.yul\":1919:1922   */\n      0x00\n        /* \"#utility.yul\":1940:2024   */\n      tag_61\n        /* \"#utility.yul\":2022:2023   */\n      0x08\n        /* \"#utility.yul\":2017:2020   */\n      dup4\n        /* \"#utility.yul\":1940:2024   */\n      tag_45\n      jump\t// in\n    tag_61:\n        /* \"#utility.yul\":1933:2024   */\n      swap2\n      pop\n        /* \"#utility.yul\":2033:2126   */\n      tag_62\n        /* \"#utility.yul\":2122:2125   */\n      dup3\n        /* \"#utility.yul\":2033:2126   */\n      tag_63\n      jump\t// in\n    tag_62:\n        /* \"#utility.yul\":2151:2152   */\n      0x08\n        /* \"#utility.yul\":2146:2149   */\n      dup3\n        /* \"#utility.yul\":2142:2153   */\n      add\n        /* \"#utility.yul\":2135:2153   */\n      swap1\n      pop\n        /* \"#utility.yul\":1759:2159   */\n      swap2\n      swap1\n      pop\n      jump\t// out\n        /* \"#utility.yul\":2165:2860   */\n    tag_19:\n        /* \"#utility.yul\":2443:2446   */\n      0x00\n        /* \"#utility.yul\":2465:2557   */\n      tag_65\n        /* \"#utility.yul\":2553:2556   */\n      dup3\n        /* \"#utility.yul\":2544:2550   */\n      dup6\n        /* \"#utility.yul\":2465:2557   */\n      tag_47\n      jump\t// in\n    tag_65:\n        /* \"#utility.yul\":2458:2557   */\n      swap2\n      pop\n        /* \"#utility.yul\":2574:2669   */\n      tag_66\n        /* \"#utility.yul\":2665:2668   */\n      dup3\n        /* \"#utility.yul\":2656:2662   */\n      dup5\n        /* \"#utility.yul\":2574:2669   */\n      tag_41\n      jump\t// in\n    tag_66:\n        /* \"#utility.yul\":2567:2669   */\n      swap2\n      pop\n        /* \"#utility.yul\":2686:2834   */\n      tag_67\n        /* \"#utility.yul\":2830:2833   */\n      dup3\n        /* \"#utility.yul\":2686:2834   */\n      tag_59\n      jump\t// in\n    tag_67:\n        /* \"#utility.yul\":2679:2834   */\n      swap2\n      pop\n        /* \"#utility.yul\":2851:2854   */\n      dup2\n        /* \"#utility.yul\":2844:2854   */\n      swap1\n      pop\n        /* \"#utility.yul\":2165:2860   */\n      swap4\n      swap3\n      pop\n      pop\n      pop\n      jump\t// out\n        /* \"#utility.yul\":2866:3088   */\n    tag_9:\n        /* \"#utility.yul\":2959:2963   */\n      0x00\n        /* \"#utility.yul\":2997:2999   */\n      0x20\n        /* \"#utility.yul\":2986:2995   */\n      dup3\n        /* \"#utility.yul\":2982:3000   */\n      add\n        /* \"#utility.yul\":2974:3000   */\n      swap1\n      pop\n        /* \"#utility.yul\":3010:3081   */\n      tag_69\n        /* \"#utility.yul\":3078:3079   */\n      0x00\n        /* \"#utility.yul\":3067:3076   */\n      dup4\n        /* \"#utility.yul\":3063:3080   */\n      add\n        /* \"#utility.yul\":3054:3060   */\n      dup5\n        /* \"#utility.yul\":3010:3081   */\n      tag_27\n      jump\t// in\n    tag_69:\n        /* \"#utility.yul\":2866:3088   */\n      swap3\n      swap2\n      pop\n      pop\n      jump\t// out\n        /* \"#utility.yul\":3094:3407   */\n    tag_13:\n        /* \"#utility.yul\":3207:3211   */\n      0x00\n        /* \"#utility.yul\":3245:3247   */\n      0x20\n        /* \"#utility.yul\":3234:3243   */\n      dup3\n        /* \"#utility.yul\":3230:3248   */\n      add\n        /* \"#utility.yul\":3222:3248   */\n      swap1\n      pop\n        /* \"#utility.yul\":3294:3303   */\n      dup2\n        /* \"#utility.yul\":3288:3292   */\n      dup2\n        /* \"#utility.yul\":3284:3304   */\n      sub\n        /* \"#utility.yul\":3280:3281   */\n      0x00\n        /* \"#utility.yul\":3269:3278   */\n      dup4\n        /* \"#utility.yul\":3265:3282   */\n      add\n        /* \"#utility.yul\":3258:3305   */\n      mstore\n        /* \"#utility.yul\":3322:3400   */\n      tag_71\n        /* \"#utility.yul\":3395:3399   */\n      dup2\n        /* \"#utility.yul\":3386:3392   */\n      dup5\n        /* \"#utility.yul\":3322:3400   */\n      tag_31\n      jump\t// in\n    tag_71:\n        /* \"#utility.yul\":3314:3400   */\n      swap1\n      pop\n        /* \"#utility.yul\":3094:3407   */\n      swap3\n      swap2\n      pop\n      pop\n      jump\t// out\n        /* \"#utility.yul\":3413:3554   */\n    tag_55:\n        /* \"#utility.yul\":3462:3466   */\n      0x00\n        /* \"#utility.yul\":3485:3488   */\n      dup2\n        /* \"#utility.yul\":3477:3488   */\n      swap1\n      pop\n        /* \"#utility.yul\":3508:3511   */\n      dup2\n        /* \"#utility.yul\":3505:3506   */\n      0x00\n        /* \"#utility.yul\":3498:3512   */\n      mstore\n        /* \"#utility.yul\":3542:3546   */\n      0x20\n        /* \"#utility.yul\":3539:3540   */\n      0x00\n        /* \"#utility.yul\":3529:3547   */\n      keccak256\n        /* \"#utility.yul\":3521:3547   */\n      swap1\n      pop\n        /* \"#utility.yul\":3413:3554   */\n      swap2\n      swap1\n      pop\n      jump\t// out\n        /* \"#utility.yul\":3560:3659   */\n    tag_34:\n        /* \"#utility.yul\":3612:3618   */\n      0x00\n        /* \"#utility.yul\":3646:3651   */\n      dup2\n        /* \"#utility.yul\":3640:3652   */\n      mload\n        /* \"#utility.yul\":3630:3652   */\n      swap1\n      pop\n        /* \"#utility.yul\":3560:3659   */\n      swap2\n      swap1\n      pop\n      jump\t// out\n        /* \"#utility.yul\":3665:3834   */\n    tag_36:\n        /* \"#utility.yul\":3749:3760   */\n      0x00\n        /* \"#utility.yul\":3783:3789   */\n      dup3\n        /* \"#utility.yul\":3778:3781   */\n      dup3\n        /* \"#utility.yul\":3771:3790   */\n      mstore\n        /* \"#utility.yul\":3823:3827   */\n      0x20\n        /* \"#utility.yul\":3818:3821   */\n      dup3\n        /* \"#utility.yul\":3814:3828   */\n      add\n        /* \"#utility.yul\":3799:3828   */\n      swap1\n      pop\n        /* \"#utility.yul\":3665:3834   */\n      swap3\n      swap2\n      pop\n      pop\n      jump\t// out\n        /* \"#utility.yul\":3840:3988   */\n    tag_45:\n        /* \"#utility.yul\":3942:3953   */\n      0x00\n        /* \"#utility.yul\":3979:3982   */\n      dup2\n        /* \"#utility.yul\":3964:3982   */\n      swap1\n      pop\n        /* \"#utility.yul\":3840:3988   */\n      swap3\n      swap2\n      pop\n      pop\n      jump\t// out\n        /* \"#utility.yul\":3994:4090   */\n    tag_30:\n        /* \"#utility.yul\":4031:4038   */\n      0x00\n        /* \"#utility.yul\":4060:4084   */\n      tag_77\n        /* \"#utility.yul\":4078:4083   */\n      dup3\n        /* \"#utility.yul\":4060:4084   */\n      tag_78\n      jump\t// in\n    tag_77:\n        /* \"#utility.yul\":4049:4084   */\n      swap1\n      pop\n        /* \"#utility.yul\":3994:4090   */\n      swap2\n      swap1\n      pop\n      jump\t// out\n        /* \"#utility.yul\":4096:4222   */\n    tag_78:\n        /* \"#utility.yul\":4133:4140   */\n      0x00\n        /* \"#utility.yul\":4173:4215   */\n      0xffffffffffffffffffffffffffffffffffffffff\n        /* \"#utility.yul\":4166:4171   */\n      dup3\n        /* \"#utility.yul\":4162:4216   */\n      and\n        /* \"#utility.yul\":4151:4216   */\n      swap1\n      pop\n        /* \"#utility.yul\":4096:4222   */\n      swap2\n      swap1\n      pop\n      jump\t// out\n        /* \"#utility.yul\":4228:4535   */\n    tag_38:\n        /* \"#utility.yul\":4296:4297   */\n      0x00\n        /* \"#utility.yul\":4306:4419   */\n    tag_81:\n        /* \"#utility.yul\":4320:4326   */\n      dup4\n        /* \"#utility.yul\":4317:4318   */\n      dup2\n        /* \"#utility.yul\":4314:4327   */\n      lt\n        /* \"#utility.yul\":4306:4419   */\n      iszero\n      tag_83\n      jumpi\n        /* \"#utility.yul\":4405:4406   */\n      dup1\n        /* \"#utility.yul\":4400:4403   */\n      dup3\n        /* \"#utility.yul\":4396:4407   */\n      add\n        /* \"#utility.yul\":4390:4408   */\n      mload\n        /* \"#utility.yul\":4386:4387   */\n      dup2\n        /* \"#utility.yul\":4381:4384   */\n      dup5\n        /* \"#utility.yul\":4377:4388   */\n      add\n        /* \"#utility.yul\":4370:4409   */\n      mstore\n        /* \"#utility.yul\":4342:4344   */\n      0x20\n        /* \"#utility.yul\":4339:4340   */\n      dup2\n        /* \"#utility.yul\":4335:4345   */\n      add\n        /* \"#utility.yul\":4330:4345   */\n      swap1\n      pop\n        /* \"#utility.yul\":4306:4419   */\n      jump(tag_81)\n    tag_83:\n        /* \"#utility.yul\":4437:4443   */\n      dup4\n        /* \"#utility.yul\":4434:4435   */\n      dup2\n        /* \"#utility.yul\":4431:4444   */\n      gt\n        /* \"#utility.yul\":4428:4529   */\n      iszero\n      tag_84\n      jumpi\n        /* \"#utility.yul\":4517:4518   */\n      0x00\n        /* \"#utility.yul\":4508:4514   */\n      dup5\n        /* \"#utility.yul\":4503:4506   */\n      dup5\n        /* \"#utility.yul\":4499:4515   */\n      add\n        /* \"#utility.yul\":4492:4519   */\n      mstore\n        /* \"#utility.yul\":4428:4529   */\n    tag_84:\n        /* \"#utility.yul\":4277:4535   */\n      pop\n        /* \"#utility.yul\":4228:4535   */\n      pop\n      pop\n      pop\n      jump\t// out\n        /* \"#utility.yul\":4541:4861   */\n    tag_21:\n        /* \"#utility.yul\":4585:4591   */\n      0x00\n        /* \"#utility.yul\":4622:4623   */\n      0x02\n        /* \"#utility.yul\":4616:4620   */\n      dup3\n        /* \"#utility.yul\":4612:4624   */\n      div\n        /* \"#utility.yul\":4602:4624   */\n      swap1\n      pop\n        /* \"#utility.yul\":4669:4670   */\n      0x01\n        /* \"#utility.yul\":4663:4667   */\n      dup3\n        /* \"#utility.yul\":4659:4671   */\n      and\n        /* \"#utility.yul\":4690:4708   */\n      dup1\n        /* \"#utility.yul\":4680:4761   */\n      tag_86\n      jumpi\n        /* \"#utility.yul\":4746:4750   */\n      0x7f\n        /* \"#utility.yul\":4738:4744   */\n      dup3\n        /* \"#utility.yul\":4734:4751   */\n      and\n        /* \"#utility.yul\":4724:4751   */\n      swap2\n      pop\n        /* \"#utility.yul\":4680:4761   */\n    tag_86:\n        /* \"#utility.yul\":4808:4810   */\n      0x20\n        /* \"#utility.yul\":4800:4806   */\n      dup3\n        /* \"#utility.yul\":4797:4811   */\n      lt\n        /* \"#utility.yul\":4777:4795   */\n      dup2\n        /* \"#utility.yul\":4774:4812   */\n      eq\n        /* \"#utility.yul\":4771:4855   */\n      iszero\n      tag_87\n      jumpi\n        /* \"#utility.yul\":4827:4845   */\n      tag_88\n      tag_89\n      jump\t// in\n    tag_88:\n        /* \"#utility.yul\":4771:4855   */\n    tag_87:\n        /* \"#utility.yul\":4592:4861   */\n      pop\n        /* \"#utility.yul\":4541:4861   */\n      swap2\n      swap1\n      pop\n      jump\t// out\n        /* \"#utility.yul\":4867:5047   */\n    tag_89:\n        /* \"#utility.yul\":4915:4992   */\n      0x4e487b7100000000000000000000000000000000000000000000000000000000\n        /* \"#utility.yul\":4912:4913   */\n      0x00\n        /* \"#utility.yul\":4905:4993   */\n      mstore\n        /* \"#utility.yul\":5012:5016   */\n      0x22\n        /* \"#utility.yul\":5009:5010   */\n      0x04\n        /* \"#utility.yul\":5002:5017   */\n      mstore\n        /* \"#utility.yul\":5036:5040   */\n      0x24\n        /* \"#utility.yul\":5033:5034   */\n      0x00\n        /* \"#utility.yul\":5026:5041   */\n      revert\n        /* \"#utility.yul\":5053:5155   */\n    tag_40:\n        /* \"#utility.yul\":5094:5100   */\n      0x00\n        /* \"#utility.yul\":5145:5147   */\n      0x1f\n        /* \"#utility.yul\":5141:5148   */\n      not\n        /* \"#utility.yul\":5136:5138   */\n      0x1f\n        /* \"#utility.yul\":5129:5134   */\n      dup4\n        /* \"#utility.yul\":5125:5139   */\n      add\n        /* \"#utility.yul\":5121:5149   */\n      and\n        /* \"#utility.yul\":5111:5149   */\n      swap1\n      pop\n        /* \"#utility.yul\":5053:5155   */\n      swap2\n      swap1\n      pop\n      jump\t// out\n        /* \"#utility.yul\":5161:5319   */\n    tag_63:\n        /* \"#utility.yul\":5301:5311   */\n      0x2053656374696f6e000000000000000000000000000000000000000000000000\n        /* \"#utility.yul\":5297:5298   */\n      0x00\n        /* \"#utility.yul\":5289:5295   */\n      dup3\n        /* \"#utility.yul\":5285:5299   */\n      add\n        /* \"#utility.yul\":5278:5312   */\n      mstore\n        /* \"#utility.yul\":5161:5319   */\n      pop\n      jump\t// out\n\n    auxdata: 0xa26469706673582212208c8a8cda5a40eb1ebeb183acfbc3c425f03021af1d417844f49e64215a21277e64736f6c63430008070033\n}\n",
				"bytecode": {
					"linkReferences": {},
					"object": "60806040527f596176757a20696c68616e0000000000000000000000000000000000000000006004556040518060400160405280600b81526020017f596176757a20696c68616e000000000000000000000000000000000000000000815250600590805190602001906200007592919062000300565b506040518060400160405280600b81526020017f596176757a20696c68616e00000000000000000000000000000000000000000081525060069080519060200190620000c392919062000391565b5060405180608001604052806040518060400160405280600581526020017f596176757a00000000000000000000000000000000000000000000000000000081525081526020016040518060400160405280600581526020017f696c68616e00000000000000000000000000000000000000000000000000000081525081526020016040518060400160405280600581526020017f41686d657400000000000000000000000000000000000000000000000000000081525081526020016040518060400160405280600481526020017f56656c69000000000000000000000000000000000000000000000000000000008152508152506007906004620001cb92919062000422565b506040518060a00160405280600160ff168152602001600260ff168152602001600360ff168152602001600460ff168152602001600560ff1681525060089060056200021992919062000489565b506040518060400160405280600e81526020017f426c6f636b636861696e20446576000000000000000000000000000000000000815250600a90805190602001906200026792919062000300565b506001600b55633b9aca00600c55670de0b6b3a7640000600d556001600e55603c600f55610e106010556201518060115562093a80601255436013554560145533601560006101000a81548173ffffffffffffffffffffffffffffffffffffffff021916908373ffffffffffffffffffffffffffffffffffffffff1602179055503a601655348015620002f957600080fd5b50620005d2565b8280546200030e906200056d565b90600052602060002090601f0160209004810192826200033257600085556200037e565b82601f106200034d57805160ff19168380011785556200037e565b828001600101855582156200037e579182015b828111156200037d57825182559160200191906001019062000360565b5b5090506200038d9190620004e0565b5090565b8280546200039f906200056d565b90600052602060002090601f016020900481019282620003c357600085556200040f565b82601f10620003de57805160ff19168380011785556200040f565b828001600101855582156200040f579182015b828111156200040e578251825591602001919060010190620003f1565b5b5090506200041e9190620004e0565b5090565b82805482825590600052602060002090810192821562000476579160200282015b82811115620004755782518290805190602001906200046492919062000300565b509160200191906001019062000443565b5b509050620004859190620004ff565b5090565b828054828255906000526020600020908101928215620004cd579160200282015b82811115620004cc578251829060ff16905591602001919060010190620004aa565b5b509050620004dc9190620004e0565b5090565b5b80821115620004fb576000816000905550600101620004e1565b5090565b5b8082111562000523576000818162000519919062000527565b5060010162000500565b5090565b50805462000535906200056d565b6000825580601f106200054957506200056a565b601f016020900490600052602060002090810190620005699190620004e0565b5b50565b600060028204905060018216806200058657607f821691505b602082108114156200059d576200059c620005a3565b5b50919050565b7f4e487b7100000000000000000000000000000000000000000000000000000000600052602260045260246000fd5b6104b280620005e26000396000f3fe608060405234801561001057600080fd5b50600436106100415760003560e01c806367e404ce14610046578063a3277eb114610064578063dcf6359114610082575b600080fd5b61004e6100a0565b60405161005b9190610303565b60405180910390f35b61006c6100c6565b604051610079919061031e565b60405180910390f35b61008a61012b565b604051610097919061031e565b60405180910390f35b601560009054906101000a900473ffffffffffffffffffffffffffffffffffffffff1681565b606060006040518060400160405280600781526020017f20436f75727365000000000000000000000000000000000000000000000000008152509050600a816040516020016101169291906102d4565b60405160208183030381529060405291505090565b600a8054610138906103e1565b80601f0160208091040260200160405190810160405280929190818152602001828054610164906103e1565b80156101b15780601f10610186576101008083540402835291602001916101b1565b820191906000526020600020905b81548152906001019060200180831161019457829003601f168201915b505050505081565b6101c28161037c565b82525050565b60006101d382610355565b6101dd8185610360565b93506101ed8185602086016103ae565b6101f681610442565b840191505092915050565b600061020c82610355565b6102168185610371565b93506102268185602086016103ae565b80840191505092915050565b6000815461023f816103e1565b6102498186610371565b945060018216600081146102645760018114610275576102a8565b60ff198316865281860193506102a8565b61027e85610340565b60005b838110156102a057815481890152600182019150602081019050610281565b838801955050505b50505092915050565b60006102be600883610371565b91506102c982610453565b600882019050919050565b60006102e08285610232565b91506102ec8284610201565b91506102f7826102b1565b91508190509392505050565b600060208201905061031860008301846101b9565b92915050565b6000602082019050818103600083015261033881846101c8565b905092915050565b60008190508160005260206000209050919050565b600081519050919050565b600082825260208201905092915050565b600081905092915050565b60006103878261038e565b9050919050565b600073ffffffffffffffffffffffffffffffffffffffff82169050919050565b60005b838110156103cc5780820151818401526020810190506103b1565b838111156103db576000848401525b50505050565b600060028204905060018216806103f957607f821691505b6020821081141561040d5761040c610413565b5b50919050565b7f4e487b7100000000000000000000000000000000000000000000000000000000600052602260045260246000fd5b6000601f19601f8301169050919050565b7f2053656374696f6e00000000000000000000000000000000000000000000000060008201525056fea26469706673582212208c8a8cda5a40eb1ebeb183acfbc3c425f03021af1d417844f49e64215a21277e64736f6c63430008070033",
					"opcodes": "PUSH1 0x80 PUSH1 0x40 MSTORE PUSH32 0x596176757A20696C68616E000000000000000000000000000000000000000000 PUSH1 0x4 SSTORE PUSH1 0x40 MLOAD DUP1 PUSH1 0x40 ADD PUSH1 0x40 MSTORE DUP1 PUSH1 0xB DUP2 MSTORE PUSH1 0x20 ADD PUSH32 0x596176757A20696C68616E000000000000000000000000000000000000000000 DUP2 MSTORE POP PUSH1 0x5 SWAP1 DUP1 MLOAD SWAP1 PUSH1 0x20 ADD SWAP1 PUSH3 0x75 SWAP3 SWAP2 SWAP1 PUSH3 0x300 JUMP JUMPDEST POP PUSH1 0x40 MLOAD DUP1 PUSH1 0x40 ADD PUSH1 0x40 MSTORE DUP1 PUSH1 0xB DUP2 MSTORE PUSH1 0x20 ADD PUSH32 0x596176757A20696C68616E000000000000000000000000000000000000000000 DUP2 MSTORE POP PUSH1 0x6 SWAP1 DUP1 MLOAD SWAP1 PUSH1 0x20 ADD SWAP1 PUSH3 0xC3 SWAP3 SWAP2 SWAP1 PUSH3 0x391 JUMP JUMPDEST POP PUSH1 0x40 MLOAD DUP1 PUSH1 0x80 ADD PUSH1 0x40 MSTORE DUP1 PUSH1 0x40 MLOAD DUP1 PUSH1 0x40 ADD PUSH1 0x40 MSTORE DUP1 PUSH1 0x5 DUP2 MSTORE PUSH1 0x20 ADD PUSH32 0x596176757A000000000000000000000000000000000000000000000000000000 DUP2 MSTORE POP DUP2 MSTORE PUSH1 0x20 ADD PUSH1 0x40 MLOAD DUP1 PUSH1 0x40 ADD PUSH1 0x40 MSTORE DUP1 PUSH1 0x5 DUP2 MSTORE PUSH1 0x20 ADD PUSH32 0x696C68616E000000000000000000000000000000000000000000000000000000 DUP2 MSTORE POP DUP2 MSTORE PUSH1 0x20 ADD PUSH1 0x40 MLOAD DUP1 PUSH1 0x40 ADD PUSH1 0x40 MSTORE DUP1 PUSH1 0x5 DUP2 MSTORE PUSH1 0x20 ADD PUSH32 0x41686D6574000000000000000000000000000000000000000000000000000000 DUP2 MSTORE POP DUP2 MSTORE PUSH1 0x20 ADD PUSH1 0x40 MLOAD DUP1 PUSH1 0x40 ADD PUSH1 0x40 MSTORE DUP1 PUSH1 0x4 DUP2 MSTORE PUSH1 0x20 ADD PUSH32 0x56656C6900000000000000000000000000000000000000000000000000000000 DUP2 MSTORE POP DUP2 MSTORE POP PUSH1 0x7 SWAP1 PUSH1 0x4 PUSH3 0x1CB SWAP3 SWAP2 SWAP1 PUSH3 0x422 JUMP JUMPDEST POP PUSH1 0x40 MLOAD DUP1 PUSH1 0xA0 ADD PUSH1 0x40 MSTORE DUP1 PUSH1 0x1 PUSH1 0xFF AND DUP2 MSTORE PUSH1 0x20 ADD PUSH1 0x2 PUSH1 0xFF AND DUP2 MSTORE PUSH1 0x20 ADD PUSH1 0x3 PUSH1 0xFF AND DUP2 MSTORE PUSH1 0x20 ADD PUSH1 0x4 PUSH1 0xFF AND DUP2 MSTORE PUSH1 0x20 ADD PUSH1 0x5 PUSH1 0xFF AND DUP2 MSTORE POP PUSH1 0x8 SWAP1 PUSH1 0x5 PUSH3 0x219 SWAP3 SWAP2 SWAP1 PUSH3 0x489 JUMP JUMPDEST POP PUSH1 0x40 MLOAD DUP1 PUSH1 0x40 ADD PUSH1 0x40 MSTORE DUP1 PUSH1 0xE DUP2 MSTORE PUSH1 0x20 ADD PUSH32 0x426C6F636B636861696E20446576000000000000000000000000000000000000 DUP2 MSTORE POP PUSH1 0xA SWAP1 DUP1 MLOAD SWAP1 PUSH1 0x20 ADD SWAP1 PUSH3 0x267 SWAP3 SWAP2 SWAP1 PUSH3 0x300 JUMP JUMPDEST POP PUSH1 0x1 PUSH1 0xB SSTORE PUSH4 0x3B9ACA00 PUSH1 0xC SSTORE PUSH8 0xDE0B6B3A7640000 PUSH1 0xD SSTORE PUSH1 0x1 PUSH1 0xE SSTORE PUSH1 0x3C PUSH1 0xF SSTORE PUSH2 0xE10 PUSH1 0x10 SSTORE PUSH3 0x15180 PUSH1 0x11 SSTORE PUSH3 0x93A80 PUSH1 0x12 SSTORE NUMBER PUSH1 0x13 SSTORE GASLIMIT PUSH1 0x14 SSTORE CALLER PUSH1 0x15 PUSH1 0x0 PUSH2 0x100 EXP DUP2 SLOAD DUP2 PUSH20 0xFFFFFFFFFFFFFFFFFFFFFFFFFFFFFFFFFFFFFFFF MUL NOT AND SWAP1 DUP4 PUSH20 0xFFFFFFFFFFFFFFFFFFFFFFFFFFFFFFFFFFFFFFFF AND MUL OR SWAP1 SSTORE POP GASPRICE PUSH1 0x16 SSTORE CALLVALUE DUP1 ISZERO PUSH3 0x2F9 JUMPI PUSH1 0x0 DUP1 REVERT JUMPDEST POP PUSH3 0x5D2 JUMP JUMPDEST DUP3 DUP1 SLOAD PUSH3 0x30E SWAP1 PUSH3 0x56D JUMP JUMPDEST SWAP1 PUSH1 0x0 MSTORE PUSH1 0x20 PUSH1 0x0 KECCAK256 SWAP1 PUSH1 0x1F ADD PUSH1 0x20 SWAP1 DIV DUP2 ADD SWAP3 DUP3 PUSH3 0x332 JUMPI PUSH1 0x0 DUP6 SSTORE PUSH3 0x37E JUMP JUMPDEST DUP3 PUSH1 0x1F LT PUSH3 0x34D JUMPI DUP1 MLOAD PUSH1 0xFF NOT AND DUP4 DUP1 ADD OR DUP6 SSTORE PUSH3 0x37E JUMP JUMPDEST DUP3 DUP1 ADD PUSH1 0x1 ADD DUP6 SSTORE DUP3 ISZERO PUSH3 0x37E JUMPI SWAP2 DUP3 ADD JUMPDEST DUP3 DUP2 GT ISZERO PUSH3 0x37D JUMPI DUP3 MLOAD DUP3 SSTORE SWAP2 PUSH1 0x20 ADD SWAP2 SWAP1 PUSH1 0x1 ADD SWAP1 PUSH3 0x360 JUMP JUMPDEST JUMPDEST POP SWAP1 POP PUSH3 0x38D SWAP2 SWAP1 PUSH3 0x4E0 JUMP JUMPDEST POP SWAP1 JUMP JUMPDEST DUP3 DUP1 SLOAD PUSH3 0x39F SWAP1 PUSH3 0x56D JUMP JUMPDEST SWAP1 PUSH1 0x0 MSTORE PUSH1 0x20 PUSH1 0x0 KECCAK256 SWAP1 PUSH1 0x1F ADD PUSH1 0x20 SWAP1 DIV DUP2 ADD SWAP3 DUP3 PUSH3 0x3C3 JUMPI PUSH1 0x0 DUP6 SSTORE PUSH3 0x40F JUMP JUMPDEST DUP3 PUSH1 0x1F LT PUSH3 0x3DE JUMPI DUP1 MLOAD PUSH1 0xFF NOT AND DUP4 DUP1 ADD OR DUP6 SSTORE PUSH3 0x40F JUMP JUMPDEST DUP3 DUP1 ADD PUSH1 0x1 ADD DUP6 SSTORE DUP3 ISZERO PUSH3 0x40F JUMPI SWAP2 DUP3 ADD JUMPDEST DUP3 DUP2 GT ISZERO PUSH3 0x40E JUMPI DUP3 MLOAD DUP3 SSTORE SWAP2 PUSH1 0x20 ADD SWAP2 SWAP1 PUSH1 0x1 ADD SWAP1 PUSH3 0x3F1 JUMP JUMPDEST JUMPDEST POP SWAP1 POP PUSH3 0x41E SWAP2 SWAP1 PUSH3 0x4E0 JUMP JUMPDEST POP SWAP1 JUMP JUMPDEST DUP3 DUP1 SLOAD DUP3 DUP3 SSTORE SWAP1 PUSH1 0x0 MSTORE PUSH1 0x20 PUSH1 0x0 KECCAK256 SWAP1 DUP2 ADD SWAP3 DUP3 ISZERO PUSH3 0x476 JUMPI SWAP2 PUSH1 0x20 MUL DUP3 ADD JUMPDEST DUP3 DUP2 GT ISZERO PUSH3 0x475 JUMPI DUP3 MLOAD DUP3 SWAP1 DUP1 MLOAD SWAP1 PUSH1 0x20 ADD SWAP1 PUSH3 0x464 SWAP3 SWAP2 SWAP1 PUSH3 0x300 JUMP JUMPDEST POP SWAP2 PUSH1 0x20 ADD SWAP2 SWAP1 PUSH1 0x1 ADD SWAP1 PUSH3 0x443 JUMP JUMPDEST JUMPDEST POP SWAP1 POP PUSH3 0x485 SWAP2 SWAP1 PUSH3 0x4FF JUMP JUMPDEST POP SWAP1 JUMP JUMPDEST DUP3 DUP1 SLOAD DUP3 DUP3 SSTORE SWAP1 PUSH1 0x0 MSTORE PUSH1 0x20 PUSH1 0x0 KECCAK256 SWAP1 DUP2 ADD SWAP3 DUP3 ISZERO PUSH3 0x4CD JUMPI SWAP2 PUSH1 0x20 MUL DUP3 ADD JUMPDEST DUP3 DUP2 GT ISZERO PUSH3 0x4CC JUMPI DUP3 MLOAD DUP3 SWAP1 PUSH1 0xFF AND SWAP1 SSTORE SWAP2 PUSH1 0x20 ADD SWAP2 SWAP1 PUSH1 0x1 ADD SWAP1 PUSH3 0x4AA JUMP JUMPDEST JUMPDEST POP SWAP1 POP PUSH3 0x4DC SWAP2 SWAP1 PUSH3 0x4E0 JUMP JUMPDEST POP SWAP1 JUMP JUMPDEST JUMPDEST DUP1 DUP3 GT ISZERO PUSH3 0x4FB JUMPI PUSH1 0x0 DUP2 PUSH1 0x0 SWAP1 SSTORE POP PUSH1 0x1 ADD PUSH3 0x4E1 JUMP JUMPDEST POP SWAP1 JUMP JUMPDEST JUMPDEST DUP1 DUP3 GT ISZERO PUSH3 0x523 JUMPI PUSH1 0x0 DUP2 DUP2 PUSH3 0x519 SWAP2 SWAP1 PUSH3 0x527 JUMP JUMPDEST POP PUSH1 0x1 ADD PUSH3 0x500 JUMP JUMPDEST POP SWAP1 JUMP JUMPDEST POP DUP1 SLOAD PUSH3 0x535 SWAP1 PUSH3 0x56D JUMP JUMPDEST PUSH1 0x0 DUP3 SSTORE DUP1 PUSH1 0x1F LT PUSH3 0x549 JUMPI POP PUSH3 0x56A JUMP JUMPDEST PUSH1 0x1F ADD PUSH1 0x20 SWAP1 DIV SWAP1 PUSH1 0x0 MSTORE PUSH1 0x20 PUSH1 0x0 KECCAK256 SWAP1 DUP2 ADD SWAP1 PUSH3 0x569 SWAP2 SWAP1 PUSH3 0x4E0 JUMP JUMPDEST JUMPDEST POP JUMP JUMPDEST PUSH1 0x0 PUSH1 0x2 DUP3 DIV SWAP1 POP PUSH1 0x1 DUP3 AND DUP1 PUSH3 0x586 JUMPI PUSH1 0x7F DUP3 AND SWAP2 POP JUMPDEST PUSH1 0x20 DUP3 LT DUP2 EQ ISZERO PUSH3 0x59D JUMPI PUSH3 0x59C PUSH3 0x5A3 JUMP JUMPDEST JUMPDEST POP SWAP2 SWAP1 POP JUMP JUMPDEST PUSH32 0x4E487B7100000000000000000000000000000000000000000000000000000000 PUSH1 0x0 MSTORE PUSH1 0x22 PUSH1 0x4 MSTORE PUSH1 0x24 PUSH1 0x0 REVERT JUMPDEST PUSH2 0x4B2 DUP1 PUSH3 0x5E2 PUSH1 0x0 CODECOPY PUSH1 0x0 RETURN INVALID PUSH1 0x80 PUSH1 0x40 MSTORE CALLVALUE DUP1 ISZERO PUSH2 0x10 JUMPI PUSH1 0x0 DUP1 REVERT JUMPDEST POP PUSH1 0x4 CALLDATASIZE LT PUSH2 0x41 JUMPI PUSH1 0x0 CALLDATALOAD PUSH1 0xE0 SHR DUP1 PUSH4 0x67E404CE EQ PUSH2 0x46 JUMPI DUP1 PUSH4 0xA3277EB1 EQ PUSH2 0x64 JUMPI DUP1 PUSH4 0xDCF63591 EQ PUSH2 0x82 JUMPI JUMPDEST PUSH1 0x0 DUP1 REVERT JUMPDEST PUSH2 0x4E PUSH2 0xA0 JUMP JUMPDEST PUSH1 0x40 MLOAD PUSH2 0x5B SWAP2 SWAP1 PUSH2 0x303 JUMP JUMPDEST PUSH1 0x40 MLOAD DUP1 SWAP2 SUB SWAP1 RETURN JUMPDEST PUSH2 0x6C PUSH2 0xC6 JUMP JUMPDEST PUSH1 0x40 MLOAD PUSH2 0x79 SWAP2 SWAP1 PUSH2 0x31E JUMP JUMPDEST PUSH1 0x40 MLOAD DUP1 SWAP2 SUB SWAP1 RETURN JUMPDEST PUSH2 0x8A PUSH2 0x12B JUMP JUMPDEST PUSH1 0x40 MLOAD PUSH2 0x97 SWAP2 SWAP1 PUSH2 0x31E JUMP JUMPDEST PUSH1 0x40 MLOAD DUP1 SWAP2 SUB SWAP1 RETURN JUMPDEST PUSH1 0x15 PUSH1 0x0 SWAP1 SLOAD SWAP1 PUSH2 0x100 EXP SWAP1 DIV PUSH20 0xFFFFFFFFFFFFFFFFFFFFFFFFFFFFFFFFFFFFFFFF AND DUP2 JUMP JUMPDEST PUSH1 0x60 PUSH1 0x0 PUSH1 0x40 MLOAD DUP1 PUSH1 0x40 ADD PUSH1 0x40 MSTORE DUP1 PUSH1 0x7 DUP2 MSTORE PUSH1 0x20 ADD PUSH32 0x20436F7572736500000000000000000000000000000000000000000000000000 DUP2 MSTORE POP SWAP1 POP PUSH1 0xA DUP2 PUSH1 0x40 MLOAD PUSH1 0x20 ADD PUSH2 0x116 SWAP3 SWAP2 SWAP1 PUSH2 0x2D4 JUMP JUMPDEST PUSH1 0x40 MLOAD PUSH1 0x20 DUP2 DUP4 SUB SUB DUP2 MSTORE SWAP1 PUSH1 0x40 MSTORE SWAP2 POP POP SWAP1 JUMP JUMPDEST PUSH1 0xA DUP1 SLOAD PUSH2 0x138 SWAP1 PUSH2 0x3E1 JUMP JUMPDEST DUP1 PUSH1 0x1F ADD PUSH1 0x20 DUP1 SWAP2 DIV MUL PUSH1 0x20 ADD PUSH1 0x40 MLOAD SWAP1 DUP2 ADD PUSH1 0x40 MSTORE DUP1 SWAP3 SWAP2 SWAP1 DUP2 DUP2 MSTORE PUSH1 0x20 ADD DUP3 DUP1 SLOAD PUSH2 0x164 SWAP1 PUSH2 0x3E1 JUMP JUMPDEST DUP1 ISZERO PUSH2 0x1B1 JUMPI DUP1 PUSH1 0x1F LT PUSH2 0x186 JUMPI PUSH2 0x100 DUP1 DUP4 SLOAD DIV MUL DUP4 MSTORE SWAP2 PUSH1 0x20 ADD SWAP2 PUSH2 0x1B1 JUMP JUMPDEST DUP3 ADD SWAP2 SWAP1 PUSH1 0x0 MSTORE PUSH1 0x20 PUSH1 0x0 KECCAK256 SWAP1 JUMPDEST DUP2 SLOAD DUP2 MSTORE SWAP1 PUSH1 0x1 ADD SWAP1 PUSH1 0x20 ADD DUP1 DUP4 GT PUSH2 0x194 JUMPI DUP3 SWAP1 SUB PUSH1 0x1F AND DUP3 ADD SWAP2 JUMPDEST POP POP POP POP POP DUP2 JUMP JUMPDEST PUSH2 0x1C2 DUP2 PUSH2 0x37C JUMP JUMPDEST DUP3 MSTORE POP POP JUMP JUMPDEST PUSH1 0x0 PUSH2 0x1D3 DUP3 PUSH2 0x355 JUMP JUMPDEST PUSH2 0x1DD DUP2 DUP6 PUSH2 0x360 JUMP JUMPDEST SWAP4 POP PUSH2 0x1ED DUP2 DUP6 PUSH1 0x20 DUP7 ADD PUSH2 0x3AE JUMP JUMPDEST PUSH2 0x1F6 DUP2 PUSH2 0x442 JUMP JUMPDEST DUP5 ADD SWAP2 POP POP SWAP3 SWAP2 POP POP JUMP JUMPDEST PUSH1 0x0 PUSH2 0x20C DUP3 PUSH2 0x355 JUMP JUMPDEST PUSH2 0x216 DUP2 DUP6 PUSH2 0x371 JUMP JUMPDEST SWAP4 POP PUSH2 0x226 DUP2 DUP6 PUSH1 0x20 DUP7 ADD PUSH2 0x3AE JUMP JUMPDEST DUP1 DUP5 ADD SWAP2 POP POP SWAP3 SWAP2 POP POP JUMP JUMPDEST PUSH1 0x0 DUP2 SLOAD PUSH2 0x23F DUP2 PUSH2 0x3E1 JUMP JUMPDEST PUSH2 0x249 DUP2 DUP7 PUSH2 0x371 JUMP JUMPDEST SWAP5 POP PUSH1 0x1 DUP3 AND PUSH1 0x0 DUP2 EQ PUSH2 0x264 JUMPI PUSH1 0x1 DUP2 EQ PUSH2 0x275 JUMPI PUSH2 0x2A8 JUMP JUMPDEST PUSH1 0xFF NOT DUP4 AND DUP7 MSTORE DUP2 DUP7 ADD SWAP4 POP PUSH2 0x2A8 JUMP JUMPDEST PUSH2 0x27E DUP6 PUSH2 0x340 JUMP JUMPDEST PUSH1 0x0 JUMPDEST DUP4 DUP2 LT ISZERO PUSH2 0x2A0 JUMPI DUP2 SLOAD DUP2 DUP10 ADD MSTORE PUSH1 0x1 DUP3 ADD SWAP2 POP PUSH1 0x20 DUP2 ADD SWAP1 POP PUSH2 0x281 JUMP JUMPDEST DUP4 DUP9 ADD SWAP6 POP POP POP JUMPDEST POP POP POP SWAP3 SWAP2 POP POP JUMP JUMPDEST PUSH1 0x0 PUSH2 0x2BE PUSH1 0x8 DUP4 PUSH2 0x371 JUMP JUMPDEST SWAP2 POP PUSH2 0x2C9 DUP3 PUSH2 0x453 JUMP JUMPDEST PUSH1 0x8 DUP3 ADD SWAP1 POP SWAP2 SWAP1 POP JUMP JUMPDEST PUSH1 0x0 PUSH2 0x2E0 DUP3 DUP6 PUSH2 0x232 JUMP JUMPDEST SWAP2 POP PUSH2 0x2EC DUP3 DUP5 PUSH2 0x201 JUMP JUMPDEST SWAP2 POP PUSH2 0x2F7 DUP3 PUSH2 0x2B1 JUMP JUMPDEST SWAP2 POP DUP2 SWAP1 POP SWAP4 SWAP3 POP POP POP JUMP JUMPDEST PUSH1 0x0 PUSH1 0x20 DUP3 ADD SWAP1 POP PUSH2 0x318 PUSH1 0x0 DUP4 ADD DUP5 PUSH2 0x1B9 JUMP JUMPDEST SWAP3 SWAP2 POP POP JUMP JUMPDEST PUSH1 0x0 PUSH1 0x20 DUP3 ADD SWAP1 POP DUP2 DUP2 SUB PUSH1 0x0 DUP4 ADD MSTORE PUSH2 0x338 DUP2 DUP5 PUSH2 0x1C8 JUMP JUMPDEST SWAP1 POP SWAP3 SWAP2 POP POP JUMP JUMPDEST PUSH1 0x0 DUP2 SWAP1 POP DUP2 PUSH1 0x0 MSTORE PUSH1 0x20 PUSH1 0x0 KECCAK256 SWAP1 POP SWAP2 SWAP1 POP JUMP JUMPDEST PUSH1 0x0 DUP2 MLOAD SWAP1 POP SWAP2 SWAP1 POP JUMP JUMPDEST PUSH1 0x0 DUP3 DUP3 MSTORE PUSH1 0x20 DUP3 ADD SWAP1 POP SWAP3 SWAP2 POP POP JUMP JUMPDEST PUSH1 0x0 DUP2 SWAP1 POP SWAP3 SWAP2 POP POP JUMP JUMPDEST PUSH1 0x0 PUSH2 0x387 DUP3 PUSH2 0x38E JUMP JUMPDEST SWAP1 POP SWAP2 SWAP1 POP JUMP JUMPDEST PUSH1 0x0 PUSH20 0xFFFFFFFFFFFFFFFFFFFFFFFFFFFFFFFFFFFFFFFF DUP3 AND SWAP1 POP SWAP2 SWAP1 POP JUMP JUMPDEST PUSH1 0x0 JUMPDEST DUP4 DUP2 LT ISZERO PUSH2 0x3CC JUMPI DUP1 DUP3 ADD MLOAD DUP2 DUP5 ADD MSTORE PUSH1 0x20 DUP2 ADD SWAP1 POP PUSH2 0x3B1 JUMP JUMPDEST DUP4 DUP2 GT ISZERO PUSH2 0x3DB JUMPI PUSH1 0x0 DUP5 DUP5 ADD MSTORE JUMPDEST POP POP POP POP JUMP JUMPDEST PUSH1 0x0 PUSH1 0x2 DUP3 DIV SWAP1 POP PUSH1 0x1 DUP3 AND DUP1 PUSH2 0x3F9 JUMPI PUSH1 0x7F DUP3 AND SWAP2 POP JUMPDEST PUSH1 0x20 DUP3 LT DUP2 EQ ISZERO PUSH2 0x40D JUMPI PUSH2 0x40C PUSH2 0x413 JUMP JUMPDEST JUMPDEST POP SWAP2 SWAP1 POP JUMP JUMPDEST PUSH32 0x4E487B7100000000000000000000000000000000000000000000000000000000 PUSH1 0x0 MSTORE PUSH1 0x22 PUSH1 0x4 MSTORE PUSH1 0x24 PUSH1 0x0 REVERT JUMPDEST PUSH1 0x0 PUSH1 0x1F NOT PUSH1 0x1F DUP4 ADD AND SWAP1 POP SWAP2 SWAP1 POP JUMP JUMPDEST PUSH32 0x2053656374696F6E000000000000000000000000000000000000000000000000 PUSH1 0x0 DUP3 ADD MSTORE POP JUMP INVALID LOG2 PUSH5 0x6970667358 0x22 SLT KECCAK256 DUP13 DUP11 DUP13 0xDA GAS BLOCKHASH 0xEB 0x1E 0xBE 0xB1 DUP4 0xAC 0xFB 0xC3 0xC4 0x25 CREATE ADDRESS 0x21 0xAF SAR COINBASE PUSH25 0x44F49E64215A21277E64736F6C634300080700330000000000 "
				},
				"gasEstimates": {
					"creation": {
						"codeDepositCost": "240400",
						"executionCost": "infinite",
						"totalCost": "infinite"
					},
					"external": {
						"course()": "infinite",
						"sender()": "2492",
						"showInfo()": "infinite"
					}
				},
				"methodIdentifiers": {
					"course()": "dcf63591",
					"sender()": "67e404ce",
					"showInfo()": "a3277eb1"
				}
			},
			"userdoc": {
				"kind": "user",
				"methods": {},
				"version": 1
			}
		}
	}
}